:020000040800F2
:10240000483C002099250008A9470008C14500085C
:10241000C7450008193200086D4C00080000000094
:10242000000000000000000000000000012500087E
:102430004F3300080000000045250008094C000843
:10244000B3250008B3250008B3250008B32500080C
:10245000B3250008B3250008B3250008B3250008FC
:10246000B3250008B3250008B3250008B3250008EC
:10247000B3250008B3250008B3250008B3250008DC
:10248000B3250008B3250008B3250008B3250008CC
:10249000B3250008B3250008B3250008B3250008BC
:1024A000B3250008B3250008B3250008B3250008AC
:1024B000B3250008B3250008B3250008B32500089C
:1024C000B3250008B3250008B3250008B32500088C
:1024D000B3250008B3250008B3250008B32500087C
:1024E000F9330008B3250008B3250008DFF80CD045
:1024F00000F078FC00480047CD660008483C00200A
:10250000224B19680868B0E8F00F80F30988BFF320
:102510006F8F4FF0000080F311884EF00D0E704762
:102520000000000006480068006880F3088862B672
:1025300061B6BFF34F8FBFF36F8F00DF00BF00BFE7
:1025400008ED00E0EFF30980BFF36F8F0F4B1A68BF
:1025500020E9F00F106008B54FF0500080F31188AB
:10256000BFF34F8FBFF36F8F07F0D4F84FF0000029
:1025700080F31188BDE8084019680868B0E8F00FDA
:1025800080F30988BFF36F8F704700BFCC02002033
:10259000EFF3058070470000064880470648004773
:1025A000FEE7FEE7FEE7FEE7FEE7FEE7FEE7FEE703
:1025B000FEE7FEE71D4C0008ED24000840EA010399
:1025C0009B0703D009E008C9121F08C0042AFAD2E9
:1025D00003E011F8013B00F8013B521EF9D27047AD
:1025E000D2B201E000F8012B491EFBD27047002255
:1025F000F6E710B513460A4604461946FFF7F0FF02
:10260000204610BD421C10F8011B0029FBD1801A86
:102610007047F0B480EA0102D40F4200B2EB410FE0
:1026200002D20246084611464A0042D0C30DDDB22E
:10263000C1F3C752AD1A202D35DAC1F3160141F4AA
:10264000000204B15242C5F1200602FA06F12A4105
:102650001044B3EBD05F23D0C4B1012DA0EBC35025
:1026600009DCF0BC4FF0004202EAC352DBB200F5D5
:10267000000000F055BA400000F1807000EBC3503C
:10268000A0F1807040EAD170490009E0490841EAB0
:10269000C071A0EBC35000F50000400800EBC35030
:1026A000F0BC00F034BA6142012202EB4101001B90
:1026B000F6E7F0BC704781F00041AAE780F00040E7
:1026C000A7E780EA010210B502F00043400022D0E3
:1026D0004A001FD0010E01EB1261C0F35600C2F395
:1026E000560240F4000042F40002A0FB0220000465
:1026F0007F39140400D0401C50EA124001D440003D
:10270000491EC2B20C0604EBD010401C4008802ABF
:1027100002D003E0002010BD20F00100002900DA03
:102720000020184310BD30B480EA010202F00045D9
:1027300030F0004221F0004013D090B1C30DD40D11
:10274000C2F31601C0F31600E41A41F4000140F48C
:1027500000027D34914201D3641C00E04900002C4A
:1027600002DA30BC002070474FF400000023914291
:1027700001D3891A034340084FEA4101F7D151B10F
:10278000914202D14FF0004105E002D24FF0010129
:1027900001E06FF0010103EBC450284430BC00F0AD
:1027A000B6B92DE9FE4F81EA030404F0004421F09C
:1027B000004100944FF0000B23F0004350EA010465
:1027C0005ED052EA03045BD0C3F30A54C1F30A5546
:1027D0002C44A4F2F3340194A0FB0254C1F313017E
:1027E00041F48011C3F3130343F4801301FB02444B
:1027F00000FB034E840A970A44EA815447EA835750
:10280000A4FB076802958D0A05FB07854FEA932C08
:1028100004FB0C542705029D4FEA065847EA163779
:10282000B5EB08056EEB070C870E920E47EA811791
:1028300042EA8312A7FB0201B6EB0B0164EB000432
:102840002B0D43EA0C335E1844EB1C50DA4651461C
:10285000E7FB0201C5F313044FEA0B3343EA1453B9
:102860004FEA0432019C43EA0603A4F10C040294EB
:10287000009CCDE900B400F090F903B0BDE8F08F02
:1028800000200146F9E72DE9F04D81EA030404F048
:10289000004B21F0004514464FF0000A23F00041A0
:1028A00050EA050220D054EA01021DD0C5F30A57B0
:1028B0000246C5F31303C1F31300C1F30A5640F4F3
:1028C000801543F48013A7EB0608101BD64608F2C8
:1028D000FD3873EB050002D308F1010801E09218FE
:1028E0005B41B8F1000F03DA00200146BDE8F08D2E
:1028F00000204FF48011064684460EE0171B73EB50
:10290000050705D3121B63EB050306434CEA010CD4
:1029100049084FEA300092185B4150EA0107EDD1B7
:1029200052EA030012D082EA040083EA0501084358
:1029300005D0101BAB4106D20122002306E0002285
:102940004FF0004302E06FF0010253101AEB060053
:102950004CEB085110EB0A0041EB0B01BDE8F04DC8
:1029600000F00CB970B521F0004303430CD0C1F363
:102970000A550024D5EB040564EB0403D617AD1A01
:10298000B34102DB0020014670BD201841EB02512B
:1029900070BDC10F80EAE0700844CA079623002189
:1029A00000F0BEB896230022114600F0B9B80EB56B
:1029B00040F2334102910021CDE900110A460B4655
:1029C00000F0EBF803B000BD00F0004220F0004042
:1029D000C10DC0F3160040F400007F2901DA002089
:1029E0007047962903DCC1F19601C84001E0963991
:1029F0008840002AF4D04042704720F00040C10DCA
:102A0000C0F3160040F400007F2901DA002070476F
:102A1000962903DCC1F19601C84070479639884079
:102A2000704700F0004230F000400AD0C10D01F5BF
:102A30006071C0F3160042EA0151C2084007114319
:102A4000704700200146704701F0004330B421F088
:102A5000004150EA010206D00A0DA2F56072C1F3EE
:102A60001301002A02DC30BC00207047440F44EA06
:102A7000C104C100E01830BC00EBC25000F047B800
:102A800030B50B46014600202022012409E021FA3E
:102A900002F59D4205D303FA02F5491B04FA02F53B
:102AA0002844151EA2F10102F1DC30BD2DE9F05FD2
:102AB0000546002092469B468846064681464024AD
:102AC0001BE0284641464746224600F0ACF95346F3
:102AD0005A46C01A914110D311461846224600F0BA
:102AE00093F92D1A67EB01084F4622460120002179
:102AF00000F08AF917EB00094E41201EA4F10104F1
:102B0000DFDC484631462A464346BDE8F09F0029AF
:102B1000A8BF7047401C490008BF20F00100704763
:102B200010B4B0FA80FC00FA0CF050EA010404BFC3
:102B300010BC704749B1CCF1200421FA04F411FA19
:102B40000CF118BF012121430843A3EB0C01CB1D5D
:102B50004FEA00614FEA102042BF002010BC7047CE
:102B600000EBC35010440029A4BF10BC7047401CA8
:102B7000490008BF20F0010010BC704710B5141EBA
:102B800073F1000408DA401C41F1000192185B4126
:102B90001A4301D120F0010010BD2DE9F04D9246FD
:102BA0009B4611B1B1FA81F202E0B0FA80F2203214
:102BB000904600F029F904460F4640EA0A0041EA2F
:102BC0000B0153465A46084313D0114653EA0100FD
:102BD00019D0C8F14002504600F025F905460E46CE
:102BE00050465946424600F00FF9084305D00120EF
:102BF00004E020463946BDE8F08D0020054346EA52
:102C0000E0762C4337430A986305E40AA0EB0800FA
:102C10000022FD0A44EA47540A3002D5002001464A
:102C2000E9E7010510196941DDE908450019694125
:102C3000BDE8F04DA2E72DE9FE4F804681EA030092
:102C4000C00F0C46009021F0004123F00045B8EB86
:102C50000200A94105D24046214690461C460B463B
:102C6000024623F00040104347D0270DC7F30A0067
:102C7000C3F30A510290401A019040286BDAC3F363
:102C8000130040F4801B0098924620B10023D2EB41
:102C9000030A63EB0B0B01985946C0F14002504602
:102CA00000F0B2F806460D4650465946019A00F02B
:102CB000CAF810EB08006141002487EA115284EA47
:102CC000E7731A4340D0009A62B3019A012A4FEA8F
:102CD000075215DC001B61EB02014FF0004202EAD3
:102CE0000752CDE90042001C41F5801132462B46C7
:102CF000FFF753FF03B0BDE8F08F40462146F9E7E8
:102D0000001B61EB0201001C41F5801300185B41C0
:102D10002018A2F5001747EB030140EAD570B61959
:102D20006D4111E06D084FEA360645EAC0754FEA7D
:102D30000752001B61EB0201001C41F5801149089C
:102D40004FEA30000019514132462B4603B0BDE82E
:102D5000F04FFFF713BF0098012240000023D0EB93
:102D6000020263EBE073009821464FEAE074B8EB8F
:102D7000000061EB0401E9E783F000435BE781F0C9
:102D8000004158E7C1F30A52C1F3130140F2FF3387
:102D900041F480119A4202DA00200146704740F265
:102DA00033439A42A2F2334202DC524200F03BB873
:102DB00000F02AB830B5041E71F1000404DB4FF0B6
:102DC0000044404264EB0101141E73F1000405DB72
:102DD0001C464FF00043524263EB0403994208BF84
:102DE000904230BD064C074D06E0E06840F001031C
:102DF00094E8070098471034AC42F6D3FFF77AFB0B
:102E00006CD300088CD30008202A04DB203A00FA97
:102E100002F1002070479140C2F1200320FA03F331
:102E2000194390407047202A04DB203A21FA02F02F
:102E30000021704721FA02F3D040C2F120029140F4
:102E4000084319467047202A06DBCB17203A41FA7F
:102E500002F043EAE07306E041FA02F3D040C2F127
:102E60002002914008431946704770B58C1810F83D
:102E7000015B15F0070301D110F8013B2A1106D1BF
:102E800010F8012B03E010F8016B01F8016B5B1ED9
:102E9000F9D12B0705D40023521E0DD401F8013BB4
:102EA000FAE710F8013BCB1A921C03E013F8015B20
:102EB00001F8015B521EF9D5A142D8D3002070BDA4
:102EC0000029816802D041F0010101E021F00101F7
:102ED000816070470029816802D041F4807101E06F
:102EE00021F48071816070470D4910B5884202D18C
:102EF000012144150AE00B49884202D10121041541
:102F000004E0094988420AD10121CC03204601F09E
:102F100039FD2046BDE81040002101F033BD10BD51
:102F20000024014000280140003C014001460020EF
:102F30008968490700D5012070470146002089684B
:102F4000090700D50120704710B542680E4B0C7977
:102F50001A400B6842EA04221343436082680B4B19
:102F60001A40D1E9024323434C7942EA4402134315
:102F70008360C26A097C22F47002491EC9B242EA27
:102F80000151C16210BD0000FFFEF0FFFDF7F1FF2F
:102F900070B5072609290AD9C568A1F10A0404EB0E
:102FA0004404A640B543A3401D43C56007E005693E
:102FB00001EB4104A640B543A3401D4305611F2317
:102FC000072A09D2446B521E02EB820293409C43B3
:102FD00091400C43446370BD0D2A09D2046BD21F8B
:102FE00002EB820293409C4391400C43046370BD0A
:102FF000C46A0D3A02EB820293409C4391400C4319
:10300000C46270BD816841F0080181607047002989
:10301000816802D041F4A00101E021F4A0018160A7
:103020007047816841F004018160704770B50446C3
:10303000012002F0BFFEA0F5006000B2962102F070
:1030400055FB00B2244E0025002806DBFFF7A1FC4B
:103050003146FFF768FB206000E02560022002F0A7
:10306000A9FEA0F5006000B2962102F03FFB00B27D
:10307000002806DBFFF78DFC3146FFF754FB60604C
:1030800000E06560032002F095FEA0F5006000B24C
:10309000962102F02BFB00B2002806DBFFF779FC3B
:1030A0003146FFF740FBA06000E0A560042002F07D
:1030B00081FEA0F5006000B2962102F017FB00B27D
:1030C000002806DBFFF765FC3146FFF72CFBE060CC
:1030D00070BDE56070BD000000E0FF4430B591B008
:1030E00001210C2001F042FC0121480201F03EFCCC
:1030F0000121084601F022FC0720ADF84000002421
:103100008DF8434010A93F4800F05EFA0320ADF867
:10311000400010A93C4800F057FA3C4D284600F00A
:1031200087F83B4800903B48CDE901043220CDE9C7
:103130000304802005904000069080000790202026
:1031400008900002CDE909046946284600F0E2F83B
:103150000121284600F061F82D4D4C3D2846FFF72F
:10316000C3FE01218DF830108DF831100B944FF40F
:103170006020CDE90D0405208DF83C000BA9284600
:10318000FFF7E2FE01212846FFF79AFE01212846BB
:10319000FFF7A0FE4FF4004001F0C6FB0723012219
:1031A00000212846FFF7F4FE0723022201212846CA
:1031B000FFF7EEFE0723032202212846FFF7E8FE71
:1031C0000723042208212846FFF7E2FE07230522F1
:1031D00009212846FFF7DCFE2846FFF713FF2846A3
:1031E000FFF7ABFE0028FAD12846FFF71AFF284662
:1031F000FFF79CFE0028FAD101212846FFF707FFC0
:1032000011B030BD00080140000C01400800024030
:103210004C24014074060020FEE70029016802D01A
:1032200041F0010102E04FF6FE721140016070476B
:1032300001684FF6FE72114001600021016041609B
:103240008160C1603149314A0839904203D14868F0
:1032500040F00F0006E02D4A1432904204D1486835
:1032600040F0F00048607047284A2832904203D16D
:10327000486840F47060F5E7244A3C32904203D13C
:10328000486840F47040EDE7204A5032904203D144
:10329000486840F47020E5E71C4A6432904203D14C
:1032A000486840F47000DDE7184A7832904203D154
:1032B000486840F07060D5E7154A111F904203D16D
:1032C000086840F00F0006E0114A1432904204D121
:1032D000086840F0F000086070470D4A28329042BC
:1032E00003D1086840F47060F5E7094A3C32904227
:1032F00003D1086840F47040EDE7054A503290422F
:10330000EAD1086840F47020E5E7000008000240B8
:103310000804024030B5026847F6F0739A430C6A1D
:103320008B682343D1E904452C4323438C69234311
:10333000CC6923434C6A23438C6A234313430360C1
:10334000CA6842600A6882604968C16030BD7047DF
:103350002DE9F047274C05462078002848D028461C
:1033600002F0F6FD6061A06195F900104FF00008D1
:10337000814201DD85F800802978A1461D4C401A64
:103380001C34C6B268782169884200D800261948E2
:1033900066611C3001F0BEF81648383086616978E5
:1033A000016101F025F820696978C7B2814200D235
:1033B0000F4600240BE03019C0EBC00005EB800283
:1033C000C4EB04111420133100F088FE641CBC42CD
:1033D000F1DBD9F818000121C0EBC00005EB80003B
:1033E000C9F810004C46817001F000F884F80080A4
:1033F000BDE8F0870C01002010B54FF400542046C2
:1034000000F014F8012808D10448016801B1884788
:103410002046BDE8104000F003B810BD8002002037
:10342000014908607047000014040140064A014643
:1034300000201268044B0A4014331B680B4202D070
:10344000002A00D0012070470004014030B51A4A1C
:103450008379016853B313688B431360111D0B68A4
:103460000468A3430B60017911440B68046823438B
:103470000B60114B083319680468A14319601C1DC7
:1034800021680568A94321604179102905D01144BC
:103490000A68006802430A6030BD19680268114377
:1034A0001960216800680143216030BD0079104433
:1034B00002688A43026030BD0004014070B50546D1
:1034C0004FF43026304600F059F8042811D1094C49
:1034D000206940F0020020616561206940F04000F1
:1034E0002061304600F04AF8216941F6FD72114032
:1034F000216170BD0020024008490420CA68D2073B
:1035000001D001207047CA68520701D502207047D8
:10351000C968C906FBD5032070470000002002409F
:103520000248016941F080010161704700200240BA
:10353000F0B506464FF400570D46384600F01EF829
:1035400004280CD1064C206940F001002061358030
:10355000384600F013F82169BA1E11402161F0BD10
:10356000002002400348024941600349416070471E
:103570002301674500200240AB89EFCD00B503462B
:10358000FFF7BAFF02E0FFF7B7FF5B1E012803D089
:10359000002B00D1052000BD002BF4D1FAE700007C
:1035A00010B58A0721F003040649120F21440F23A6
:1035B0008C6893409C438C608B68904003438B6085
:1035C00010BD000000000140F0B5CC78002204F0EE
:1035D0000F03E40601D58C7823430C784FF00F0CD1
:1035E00014F0FF0F4FF0010E1BD005680E880EFA85
:1035F00002F42640A64210D196000CFA06F725EAFE
:10360000070703FA06F5CE783D43282E02D0482E50
:1036100002D002E0446100E00461521C082AE5D3B4
:1036200005600A88FF2A1CD94468002202F10806B6
:103630000EFA06F50E882E40AE420ED196000CFA18
:1036400006F7BC4303FA06F7CE783C43282E00D198
:103650004561CE78482E00D10561521C082AE5D379
:103660004460F0BDF0B5144C002801DAE36900E0D5
:103670006368450D2E0185B2C0F30157B540C0F314
:103680000342032F05D0C6020AD503269640B34352
:1036900007E023F07062636823F07063636002E008
:1036A000AB4343F0706201B12A43002801DAE261C2
:1036B000F0BD6260F0BD0000000001400246002045
:1036C00092680A4200D00120704741617047016151
:1036D00070472DE9F0471400DDF820907DD065009B
:1036E00065430719012B45D0A0EB0408022B7ED0BF
:1036F000032B74D0042B70D1B8460E460027F1B2CC
:103700001FFA88F04A4600F0C3FD60007F1C60434A
:10371000790001FB0700401B614200EB4100401CA7
:10372000761E002802DDA8F10108641EA742E6DB30
:10373000F1B21FFA88F04A4600F0AAFD2046400088
:10374000641E801E6043790001FB0700401B00EBF4
:103750004700401CA8F10108002801DC761E7F1CF0
:10376000002CE5DCF1B21FFA88F04A46BDE8F047CC
:1037700000F08EBD8846002608F0FF01B8B24A4628
:1037800000F086FD6000761C6043710001FB0600BE
:10379000401B614200EB4100401C08F10108002879
:1037A00001DD641E7F1EA642E6DB08F0FF01B8B211
:1037B0004A4600F06DFD20464000641E801E6043B6
:1037C000710001FB0600401B00EB4600401C7F1E01
:1037D000002806DC08F1010802E075E007E03DE0A2
:1037E000761C002CE1DC08F0FF01B8B2BDE70F4603
:1037F0000026F9B21FFA88F04A4600F049FD600041
:10380000761C6043710001FB0600401B614200EB27
:1038100041007F1C401C002802DD641E08F10108E5
:10382000A642E6DBF9B21FFA88F04A4600F030FD06
:1038300020464000641E801E6043710001FB0600AC
:10384000401B00EB4600401C08F10108002801DC89
:103850007F1C761C002CE5DCF9B284E70E460027BD
:10386000F1B21FFA88F04A4600F012FD60007F1C9A
:103870006043790001FB0700401B614200EB4100FF
:10388000401C761E002802DD08F10108641EA742D4
:10389000E6DBF1B21FFA88F04A4600F0F9FC204658
:1038A0004000641E801E6043790001FB0700401B3E
:1038B00000EB4700401C08F10108002801DC761EDF
:1038C0007F1C002CE5DC4DE7BDE8F0877CB50446A5
:1038D000C0680D460E287DD3A0681E287AD32069C3
:1038E00002F07EFAA168884274D82575D4E90001F7
:1038F0000C268DB101220830083100F00CFA206945
:1039000002F06EFAA168081A218801EB500000212C
:10391000CDE9006180B26CE000220830083100F08F
:10392000FAF901250095D4E90001032308220830A3
:103930000831FFF7CEFE0095A16820684218616843
:1039400008300B46093A00F065FB0095A168206835
:10395000042308446168082209380831FFF7B9FEDA
:103960000095E1686068A268014420684B1E02442B
:103970000830491E093A00F04DFB0095E168606887
:10398000A26801442068012310440822093809393B
:10399000FFF79FFE00956168E0680B18206808310A
:1039A0000246093B00F036FB0095E168606802239F
:1039B00001442068082208300939FFF78AFE009583
:1039C0006168E068A2680B1820681044421E401E1F
:1039D000083100E017E0093B00F01CFB206902F011
:1039E000FFF9A168081A2188CDE9006501EB5000B4
:1039F00080B2E168A2880C3902EB510189B20C2334
:103A0000226905F02DF87CBD2DE9FF4F8BB00446EF
:103A10000D988A4600287DD00D9900940AEB010785
:103A200001940A97402F04DAF9B2A0B20E9A00F07E
:103A30002FFC03940D990294BAEB0106099604D465
:103A4000F1B2A0B20E9A00F023FC0D98D3462518CF
:103A5000CDE907A5802D05DA0BF0FF01A8B20E9A7B
:103A600000F016FC0D98241ACDE905A405D40AF03F
:103A7000FF01A0B20E9A00F00BFC0D98012849D06E
:103A80004042032101EB40080D984FF000090490DB
:103A900094E0B8F1000F04DA08EB890000F10608A1
:103AA00018E0A9EB010108EB810000F10A08049875
:103AB000641C401E04900A986D1E401E0A900998CE
:103AC000761C401C09900898401E08900698401CDF
:103AD0007F1E0690019809F10109401C0190009891
:103AE0000BF1010B401E009003980AF1010A401CE3
:103AF00003900298401E02900798401E0790059878
:103B0000401E05900198802808DC002F06DBF9B2E2
:103B100080B200E056E00E9A00F0BAFB0098002850
:103B200008DB0A98002805DBC1B200980E9A80B223
:103B300000F0AEFB0398802806DC402E04DCF1B2D6
:103B400080B20E9A00F0A4FB0298002808DB0998C6
:103B5000402805DCC1B202980E9A80B200F098FBB2
:103B6000802D08DCBBF1000F05DB0BF0FF01A8B2D4
:103B70000E9A00F08DFB002C08DBBAF1000F05DB7C
:103B80000AF0FF01A0B20E9A00F082FB089880288C
:103B900008DC0798402805DCC1B208980E9A80B26C
:103BA00000F076FB0698002808DB0598402805DC25
:103BB000C1B206980E9A80B200F06AFB049989455A
:103BC000FFF667AF0FB0BDE8F08F03F037BD38B533
:103BD0001446C9B280B26A4600F097FB9DF8001007
:103BE00001206140884338BD7CB50446C0680E287A
:103BF0007AD3A0681E2877D3206902F0F1F8A16873
:103C0000884271D801250095D4E9000103230822D8
:103C100008300831FFF75DFD0095A1682068421863
:103C2000616808300B46093A00F0F4F90095A16884
:103C30002068042308446168082209380831FFF726
:103C400048FD0095E1686068A268014420684B1E49
:103C500002440830491E093A00F0DCF90095E16899
:103C60006068A268014420680123104408220938D2
:103C70000939FFF72EFD00956168E0680B18206890
:103C800008310246093B00F0C5F90095E16860681B
:103C9000022301442068082208300939FFF719FD82
:103CA00000956168E068A2680B182068083110442C
:103CB000421E401E093B00F0ADF9207D0C26A0B14C
:103CC000D4E9000101220830083100F024F820690D
:103CD00002F086F8A168081A218801EB5000002143
:103CE000CDE9006180B20BE014E0206902F078F8C1
:103CF000A168081A2188CDE9006501EB500080B267
:103D0000E168A2880C3902EB510189B20C232269C7
:103D100004F0A6FE7CBD2DE9F74FD6B00C46054653
:103D2000802870D2402C6ED2E1B2A8B26A4600F070
:103D3000ECFA9DF80020589802F0010100F0010013
:103D4000814260D021462846539400F0B9FA0646D5
:103D500054909DF800202146284600F0DEFA52904B
:103D600030444008CDE92904CDE901040124254669
:103D700001E0002D73D029A800EBC5006D1E50F89E
:103D8000081D51914668EDB29DF8002031465198CA
:103D900000F096FA82469DF800203146519800F0D6
:103DA000BCFA8046761C9DF8002031465198FFF7FA
:103DB0000EFF20B19DF800203146519812E0574681
:103DC00007E09DF8002031463846FFF700FF10B9A4
:103DD0007F1C4745F5D94745CBD851979DF8002022
:103DE0003146384600F099FA80469DF80020314669
:103DF000519800F065FA8246142C1DD28146A0F13C
:103E0000010B574616E079E09DF80020711E3846F8
:103E1000FFF7DDFE20B34946CB4508D001A88B460D
:103E200040F8347000EBC400641CE4B24660142C0B
:103E300002D27F1C4745E7D908EB0A0040085190A1
:103E40001FFA88F2F1B21FFA8AF0589B00F0CCF802
:103E5000142DA7D2D146AAF1010B574618E01CE059
:103E6000B946E4E79DF80020711C3846FFF7AFFE25
:103E700088B14946CB4508D029A88B4640F8357013
:103E800000EBC5006D1CEDB24660142D8AD27F1C7C
:103E9000474587D8E6E7B946F7E71CB301A800EB2A
:103EA000C400641E50F8081D51914668E4B29DF8A4
:103EB00000203146519800F003FA82469DF8002018
:103EC0003146519800F029FA0746761E9DF80020E9
:103ED00031465198FFF77BFE98B19DF8002031469E
:103EE000519824E0002D7FF444AF5298589B82B241
:103EF0005398C1B2549880B200F076F859B0BDE83A
:103F0000F08F5046D04608E09DF800203146FFF77C
:103F10005EFE20B908F101008046B845F4D940465C
:103F2000B845BAD8CDF844819DF80020314600F05C
:103F3000F4F907469DF800203146519800F0C0F989
:103F40008246142D1ED2D146AAF1010B5046C84616
:103F500016E09DF80020711CFFF739FE28B3494692
:103F6000CB4508D029A88B4640F8358000EBC5002A
:103F70006D1CEDB24660142D04D208F1010080469C
:103F8000B845E6D907EB0A0040085190BAB2F1B241
:103F90001FFA8AF0589B00F027F8142C95D2D146CE
:103FA000AAF1010B5046C84618E0C146E3E79DF868
:103FB0000020711EFFF70BFEA0B14946CB4508D08B
:103FC00001A88B4640F8348000EBC400641CE4B2C6
:103FD0004660142CE2D208F101008046B8453FF655
:103FE00074AFE4E7C146F4E72DE9F04115461E46FB
:103FF0000F460446A84202D9D0B2254604463246AE
:104000003946204600F044F9641CA4B2A542F6D219
:10401000BDE8F0812DE9FF5F05460C460398934605
:10402000511B021B4FF0FF37002902DD4FF0010842
:1040300001E005DAB846002A0BDD4FF0010713E076
:104040000E9BC2B204B0E1B2A8B2BDE8F05F00F0CE
:1040500022B909DB0E9B04B01FFA8BF2E1B2A8B2C1
:10406000BDE8F05FFFF7C0BF08FB01F007FB02F1FE
:104070004FEA400A4FEA4109884213DBA9EB0006E8
:10408000A9EB0A0A0BE0E1B2A8B20E9A00F000F91F
:104090004544002E01DA4E4401E056443C445D455F
:1040A000F1D113E0AAEB0106AAEB09090BE0E1B29A
:1040B000A8B20E9A00F0ECF83C44002E01DA564407
:1040C00001E04E44454403988442F0D10E9A04B076
:1040D000E1B2A8B2BDE8F05F00F0DAB82DE9FC412A
:1040E00014460D460646802805D8402D03D8022DDB
:1040F00001D3122E02D20020BDE8FC81E068002826
:10410000FAD0A2781023A91EA6F112000C278AB1BA
:10411000626822B1C9B2C0B2009303F0B1FB0020C3
:10412000CDE90070A9B2B0B20C23E26804F098FCAB
:104130000120E1E7A2682AB10093C9B2C0B21023FE
:1041400003F09EFB0120EBE710B511B10121002423
:1041500001E0002101240548FFF7B8FB2146034890
:10416000BDE810401830FFF7B1BB000094020020FA
:10417000FEB58168044614293CD3E068142839D37D
:1041800025686A18802A35D861680B18402B31D809
:1041900000272846521E5B1E009700F0F8F8012504
:1041A00000956168E068A2680B1820685B1E0244F5
:1041B000521E00F0CAF820882189304B0144491E64
:1041C0008AB2217980B20E31C9B21B78FFF70CFF99
:1041D0000095A168206842186168521E01F10D0324
:1041E00000F0D5F8206901F0C2FE0146A068821EE9
:1041F000914201D90020FEBD0C2680B20096CDE987
:104200000170A0883346401C81B22088226980B2A8
:1042100004F07CFC1A480775A16901612168491DF9
:104220000160E26861681144C268891A091F41602F
:10423000FFF7DAFC124818300575E1690161A268E0
:10424000216811448268891A891F0160E2686168E7
:104250001144C268891A091F4160FFF7C5FCCDE906
:104260000065A0880C23113081B220886269801D0E
:1042700080B204F0F5FB0120FEBD0000900200209A
:10428000940200200148007D704700009402002045
:10429000C0B203F0E9B92DE9F04115461E460746C4
:1042A0000C46A94201D90D461446324621463846ED
:1042B000FFF7EEFF641CE4B2A542F6D2BDE8F08140
:1042C000F8B5401E0E46040002F001050ED0F1B212
:1042D000A0B26A4600F019F89DF8000000F0010055
:1042E000A84201D0601CF8BD641EF0D1F1B20020DC
:1042F0006A4600F00AF89DF8000000F00100A842AC
:1043000001D00120F8BD0020F8BD10B51446C0B2A0
:1043100003F0E2F92070002010BDF8B50E46441CF1
:1043200002F001050DE0F1B2A0B26A46FFF7EDFF21
:104330009DF8000000F00100A84201D0601EF8BD09
:10434000641C802CEFD38020F8BD2DE9F0411C4681
:10435000DDF8188015460E46074692B2C9B280B203
:104360004346FFF741FEAAB2E1B2B8B24346FFF7B7
:104370003BFEE2B2F1B2B8B24346FFF78CFFE2B2C5
:10438000F1B2A8B24346BDE8F041FFF784BF2DE982
:10439000F0411746DDF818801E460C460546B84227
:1043A00001D915460746B44201D91C460E46B4420F
:1043B00007D1BAB2E1B2A8B24346BDE8F041FFF777
:1043C00013BEBD420ED1F2B2E1B2A8B24346BDE87F
:1043D000F041FFF760BFBAB2E1B2A8B24346FFF7BF
:1043E00003FE641CB442F6D9BDE8F08103F088B93D
:1043F000F8B5040054D0A2680A2A51D3E068142802
:104400004ED30125009561680B1820685B1E02449D
:10441000521EFFF79AFF0826009620892178083857
:1044200001EB50002179C0B2491CC9B233461D4A84
:1044300003F026FA00962079217B22780844093877
:10444000C1B220890823083802EB5000154AC0B2D7
:10445000083203F015FA0095A168206842186168D7
:10446000521E09310B46FFF7D5FD0095E1686068E3
:10447000A268014420680A3902440B46521EFFF725
:10448000C9FDD4E90421E0681438914202D24143C5
:10449000B1FBF2F0E0612046BDE8F84000F004B85E
:1044A000F8BD0000B2CB00082DE9F843044681892D
:1044B000808B091A14398EB22188721E491C1FFA8A
:1044C00081F8A18810440A318DB2218980B2C91EB9
:1044D00089B2002208EB01072B1800923A462946C0
:1044E0004046FFF754FFD4E90401884201D8002078
:1044F00005E0A1697143401EB1FBF0F080B20121DB
:1045000000912918E269404653183A46FFF73FFFE9
:10451000BDE8F883FEB58168044614293CD3E06801
:10452000142839D326687218802A35D861680B1888
:10453000402B31D800253046521E5B1E0095FFF7F8
:1045400026FF012600966168E068A2680B182068C3
:104550005B1E0244521EFFF7F8FE20882189174B8C
:104560000144491E8AB2217980B20E31C9B21B784A
:10457000FFF73AFD0096A168206842186168521E54
:1045800001F10D03FFF703FFA06901F09FFD014654
:10459000A068821E914201D90020FEBD0C2180B28C
:1045A0000091CDE90150A0880C23401C81B22088E5
:1045B000A26980B204F0AAFA0120FEBD9002002098
:1045C000FEE772B67047FEE72DE9F84F754D686853
:1045D000FEF7BEFE002001F06FFC002600B1EE6089
:1045E000DFF8C0A14FF001080AF1380AAAF11C0453
:1045F000012863D0022804D003287DD004285CD190
:10460000A9E03E237522122101200096FFF7BFFE8C
:10461000A8696A68C0EBC00102EB810129618E7054
:10462000401CA8616A685178491E814200DCA9617A
:10463000A869A446C0EBC00002EB8000286180F8A6
:10464000028069680878401C43B20B704878226980
:10465000904205D80746834211DB401E08700EE0E9
:10466000D7B2521E93420AD90A70DCF81010411AD0
:10467000DCF81400814202D9401CCCF8140000245C
:10468000E14611E0D9F814006968C0EBC00001EB05
:104690008000C4EBC40100EB8102C4EB04111420C0
:1046A0001331FFF71BFD641CBC42EBDB3D48A969DD
:1046B0003830CAF81810FFF7F7FE51E03E23752294
:1046C000122101200096FFF762FEA8696A68C0EB1C
:1046D000C00102EB81012961401E8E70A861002893
:1046E00000DCAE61A8696968C0EBC00001EB800026
:1046F000286180F8028000E030E068682246017896
:10470000491E49B20170477823699F4203D80029A6
:1047100009DA067007E0DFB2002904DA0670506992
:1047200008B1401E50610024914611E0D9F81400F0
:104730006968C0EBC00001EB8000C4EBC40100EB72
:104740008102C4EB041114201331FFF7C7FC641C71
:10475000BC42EBDBAAE701F0F5FC01E001F0CAFC8A
:1047600001F0EEFB072803D12869006900B18047FA
:10477000E868411CE960642811DDEE602869416940
:1047800049B1867068696968C0EBC00001EB8000C0
:10479000286180F80280BDE8F84F01F0F9BABDE861
:1047A000F88F00000C0100207047000070B58AB03F
:1047B0000121142000F0DAF80121080300F0D6F8F6
:1047C000E020ADF8140003208DF816002F4D1824BA
:1047D0008DF8174005A92846FEF7F6FEADF81440FF
:1047E00010268DF8176005A92846FEF7EDFE6C141B
:1047F000ADF8144048208DF8170005A92448FEF7AD
:10480000E3FE0D210220FEF7CBFE069400248DF876
:104810001C400C208DF81D0001258DF81E5006A8A7
:10482000FEF714FE28208DF8200006208DF82100C8
:104830008DF822408DF8235008A800F02FF8ADF82D
:1048400000404FF48270ADF80200ADF808406802F5
:10485000ADF80A00ADF80C6007200E4EADF804402C
:10486000ADF81000ADF80640ADF80E406946304690
:1048700000F0A9F80121304600F090F80648C0F891
:104880009051C0F88C410AB070BD00000008014092
:1048900000100140003001400000214230B50F23DC
:1048A000C27801780125F2B1144A126801F1E021C1
:1048B00002F4E062C2F5E062120AC2F10404D340DD
:1048C0004278A24084781C401443220181F80024DD
:1048D000007800F01F018D404009800000F1E020C9
:1048E000C0F8005130BD01F01F008540480980002C
:1048F00000F1E020C0F8805130BD00000CED00E078
:104900000249084302490860704700000000FA05A8
:104910000CED00E0024A114001430248016070477B
:1049200080FFFF1F08ED00E0034A516821F4404179
:10493000014351607047000000100240044A002902
:10494000516901D0014300E081435161704700008B
:1049500000100240044A0029D16901D0014300E05F
:104960008143D1617047000000100240044A0029D1
:10497000916901D0014300E08143916170470000DB
:1049800000100240044A0029D16801D0014300E030
:104990008143D16070470000001002400029018867
:1049A00002D041F0400101E021F040010180704758
:1049B0000246002012890A4200D0012070478089F7
:1049C00070478181704730B502884C8802F44153AA
:1049D0000A88CD8822438C882C4322430C892243A9
:1049E0004C8922438C892243CC8922431A4302807A
:1049F000828B22F400628283098A018230BD10B565
:104A00000446FFF7DEFF02212046FFF7D1FF002812
:104A1000F9D001212046FFF7CBFF0028F9D020462E
:104A2000FFF7CDFFC0B210BD10B5064C01462046C1
:104A3000FFF7C7FF02212046FFF7BAFF0028F9D091
:104A400010BD00000038004010B5002305E030F82C
:104A5000024B21F813405B1C9BB29342F7D310BD6D
:104A60002DE9F05FA0F10064154688468246B4F552
:104A7000003F51D2FEF776FDA70AC4F34806C6F5FB
:104A80000074A54200D82C46DFF890B04FF00060CB
:104A900000EB872081464FF400722049FFF7D4FFD6
:104AA00000204FF6FF7206E033183BF813109142D6
:104AB00003D1401C80B2A042F6D3A04224D2484683
:104AC000FEF7FCFC00205A4606E038F81010831967
:104AD000401C22F8131080B2A042F6D348464FF48F
:104AE00000720E4900F01CF8A54211D0281B08EBFB
:104AF00044080AEB440A002685B24FF400747F1C78
:104B0000A542C3D82C46C1E7224641465046E9E7B4
:104B1000BDE8F05FFEF704BDBDE8F09FD80A0020B5
:104B20002DE9F04116460F460546002407E037F808
:104B300014102846FEF7FCFC641CA4B2AD1CB44261
:104B4000F5D3BDE8F08100000CB5002226480092A4
:104B50000192016841F4803101604FF4A063016863
:104B600001F4003101910099491C0091019911B99A
:104B700000999942F3D10168890333D5012101914C
:104B80001A490A6842F010020A600A6822F0030219
:104B90000A600A6842F002020A60416841604168A6
:104BA0004160416841F480614160416821F47C11B9
:104BB0004160416841F4E8114160016841F0807151
:104BC000016001688901FCD5416821F00301416061
:104BD000416841F0020141604168C1F3810102294D
:104BE000FAD10CBD01920CBD001002400020024021
:104BF0004FF0E0210428086903D020F00400086188
:104C0000704740F00400FAE710B505F0DBF9012821
:104C100003D0BDE8104004F051BE10BD0F4810B5E0
:104C2000016841F00101016041680D4A1140416095
:104C300001680C4A11400160016821F48021016083
:104C4000416821F4FE0141604FF41F018160FFF7CC
:104C50007BFF05494FF00060086010BD0010024066
:104C60000000FFF8FFFFF6FE08ED00E0FEE70000A1
:104C70000FB4084B10B504A902AA039800F0DEF89F
:104C8000044602A9002000F070FC204610BC5DF82C
:104C900014FB00006B55000802E008C8121F08C191
:104CA000002AFAD170477047002001E001C1121FAD
:104CB000002AFBD1704700002DE9FF5F82B0002180
:104CC000DDE90430020DDDF840B0034318D044F6AE
:104CD0001050A2F2FF3242431514119801281FD040
:104CE000A5EB0B00401C5FEA000A4FF000064E4F98
:104CF000DFF83891B046504615D5CAF1000413E0EC
:104D0000119801244AA3012801D16FEA0B010298EE
:104D1000119AC0E90031C0E9024206B0BDE8F09F37
:104D2000CBF10000DFE704460021404A491842EB7E
:104D30000450CDE9001012E0E00707D032463B46B0
:104D400040464946FDF72DFD8046894632463B46A2
:104D500010461946FDF725FD06460F466410002C47
:104D6000EAD1DDE90401DDE90023BAF1000F06DA3A
:104D7000FDF717FD42464B46FDF713FD05E0FDF735
:104D800082FD42464B46FDF77EFD04460E4600225C
:104D9000284BFEF70FF803D84FF0FF30014607E02D
:104DA0000022254B20463146FDF745FFFDF7EAFF7F
:104DB000102409E0002C0ADB0A220023FDF776FE0E
:104DC000039B30321A55641E50EA0102F2D1641C72
:104DD000039AC4F111031444119A012A03D0012249
:104DE00008430DD10AE0084304D000204FF0110B16
:104DF000119072E7A3EB0B056D1E0DE05B4504DD22
:104E00004FF0000205F1010504E003DA4FF0000263
:104E1000A5F10105002AECD002981199C0E90231F0
:104E2000C0E9004579E70000000014400000F03FB1
:104E3000300000000000F0430000E03F2DE9FF4F8C
:104E400095B09B468946064600250FE2252877D176
:104E500000242746F84A0121059400E0044316F88F
:104E6000013F203B01FA03F01042F7D130782A28A5
:104E700011D06FF02F033078A0F13002092A16D834
:104E8000059A44F0020402EB820203EB4202104452
:104E9000761C0590EFE759F8042B0592002A03DAF7
:104EA000504244F40054059044F00204761C3078DB
:104EB0002E2816D116F8010F44F004042A280DD02C
:104EC0006FF02F023078A0F13003092B09D807EBDF
:104ED000870302EB4303C718761CF3E759F8047BFA
:104EE000761C30786C280FD006DC4C2817D0682848
:104EF0000DD06A2814D104E0742810D07A280FD17C
:104F00000DE044F400140AE044F4801401E044F499
:104F100040147278824202D104F58014761C761C0B
:104F2000307866280BD013DC582877D009DC0028AD
:104F300075D04528F6D04628F4D047281AD19DE1EF
:104F400018E0632835D0642879D0652812D195E11E
:104F5000702873D008DC6728F1D069286FD06E28DC
:104F60000DD06F2806D1B5E073282CD0752875D0E8
:104F7000782874D05A46179990476D1C75E1C4F390
:104F80000250022809D003280DD0D9F800100428B7
:104F90000DD00D6009F1040967E1D9F80010EA1796
:104FA000C1E90052F6E7D9F800100D80F2E70D7064
:104FB000F0E719F8041B8DF8001000208DF80100AF
:104FC000EA46012003E059F804AB4FF0FF306107D7
:104FD0004FF0000102D40DE008F101018846B9420A
:104FE0000FDA8045F8DB1AF808100029F4D108E040
:104FF00008F1010188468142FADB1AF808100029FD
:10500000F6D105985B46A0EB080721463846179A6B
:1050100000F094FA284400EB080507E04DE029E190
:105020000DE01AF8010B5A4617999047B8F101089C
:10503000F7D25B4621463846179A13E142E00A222E
:105040000092C4F302524FF0000A022A08D059F825
:1050500004CB032A4FEAEC710AD00DE029E02AE0E4
:1050600009F1070121F00702F2E802C1914609E0C7
:105070000FFA8CFC4FEAEC71042A03D14FFA8CFC36
:105080004FEAEC71002907DA0A460021DCF1000C36
:1050900061EB02012D2202E0220504D52B228DF8BE
:1050A0000420012203E0E20701D02022F7E7904626
:1050B00059E00A2102E010220DE010214FF0000A11
:1050C00000910BE010224FF0000A44F0040408277E
:1050D000009203E008224FF0000A0092C4F302524B
:1050E000022A05D059F804CB0021032A08D009E090
:1050F00009F1070121F00702F2E802C1914605E03B
:105100001FFA8CFC042A01D10CF0FF0C4FF00008B0
:10511000220728D5702806D0009B83F0100353EA9D
:105120000A0305D00EE040228DF80420012208E099
:105130005CEA010206D030228DF804208DF80500CB
:1051400002229046009B83F0080353EA0A030AD127
:105150005CEA010201D1620705D530228DF80420F6
:105160004FF001087F1E582804D034A003900EA8E9
:1051700002900DE036A0F9E753466046009AFDF72D
:1051800095FC84460398825C0298401E029002704F
:105190005CEA0100F0D1029806A9081A00F1200A81
:1051A000600702D524F4803400E00127574502DD72
:1051B000A7EB0A0000E0002000EB0A010090059830
:1051C0004144401A0590E00306D45B462146179AF5
:1051D000059800F0B3F90544002706E001A85A46F7
:1051E000C05D179990476D1C7F1C4745F6DBE003B7
:1051F0000CD55B462146179A059800F09FF90544A7
:1052000004E030205A46179990476D1C0099481EBB
:1052100000900029F5DC08E0029802995A460078CF
:10522000491C0291179990476D1CBAF10001AAF12F
:10523000010AF1DC65E10000092801003031323358
:1052400034353637383961626364656600000000C2
:1052500030313233343536373839414243444546AC
:105260000000000000F058F90544761C3078002852
:105270007FF4ECAD19B02846BDE8F08F620700D48A
:10528000062709F1070222F0070CFCE80223E14699
:1052900003F000485FEA080C02D00FF2702C0DE01A
:1052A0005FEA045C02D50FF2682C07E05FEAC47C79
:1052B00002D00FF2602C01E0AFF2700C4FF0FF381B
:1052C00023F00043CDF850C065280CD006DC4528FB
:1052D00009D046281DD047283DD13DE0662818D08A
:1052E00067287ED138E00021112F01DB112000E07A
:1052F000781CCDE9000106A90EA8FFF7DDFCDDE969
:105300000F010E9A03910021009207F1010A049106
:105310004DE04FF000400097CDE9011006A90EA81E
:10532000FFF7CAFCDDE90F0203920E9B11990022E0
:10533000DDF80CA00093049211B9791C00EB010A6E
:10534000B7EB0A0004D4C0F1FF3007F1010A049062
:10535000AAEB0700019044E0012F00DA01270021A9
:10536000112F01DD112000E03846CDE9000106A92A
:105370000EA8FFF7A1FCDDE90F010E9A03910021B1
:1053800004910092BA4621070CD40399514500DAE2
:105390008A46BAF1010F05DD009AAAF10101515CBC
:1053A000302908D0B84202DA10F1040F06DA0121E0
:1053B000CDE9011015E0AAF10101E9E7002805DCBB
:1053C000049901440491AAEB000102E0411C5145FB
:1053D00000DD8A460499401A401C01904FF00040BD
:1053E0000290200704D40198504501DBCDF80480D9
:1053F00000208DF84F0002980DF14F07B0F1004FDB
:1054000025D02B200E9002984FF0020800280CDACD
:10541000404202902D200E9007E00A210298FDF7ED
:105420002FFB3031029007F8011DB8F10001A8F1FF
:105430000108F2DC02980028EFD1791E0E9808705E
:10544000307800F0200040F0450007F8020D12A867
:10545000C01B00F107081498007800B1012000EB90
:105460000A01019801EBE07105984144401A401E81
:105470000590E00306D45B462146179A059800F094
:105480005DF805441498007818B15A46179990476A
:105490006D1CE00324D55B462146179A059800F061
:1054A0004DF805441CE00498002807DBDDE9030102
:1054B000884203DD0098405C179901E0179930207D
:1054C0005A469047049805F10105401C0490019844
:1054D000401E019004D12E205A46179990476D1C0A
:1054E000BAF10001AAF1010ADDDC05E017F8010BB1
:1054F0005A46179990476D1CB8F10001A8F10108B0
:10550000F4DC5B462146179A0598ABE62D000000B7
:105510002B000000200000002DE9F041044600258A
:105520001E461746880404D405E039462020B047BB
:105530006D1C641EF9D52846BDE8F0812DE9F041C7
:10554000044600251E469046C80301D5302700E0DA
:105550002027880404D505E041463846B0476D1C35
:10556000641EF9D52846BDE8F0810A68531C0B601B
:1055700010707047FEE70000F8B5144C2078002842
:1055800022D101211020FFF7F1F94FF48045ADF849
:10559000005010208DF8030003200D4E8DF80200FE
:1055A00069463046FEF710F829463046FEF78DF87A
:1055B00008480090002301224FF47A7106A004F0FD
:1055C000C5FE606001202070F8BD00005000002082
:1055D00000100140058700086265657054696D65BB
:1055E0007200000010B5002301461A4611F8014B65
:1055F000521C2344DBB2302AF8D390F82C00181A3E
:10560000C0B210BD2DE9F041114C6078002812D1D4
:10561000182210491048FFF717FA0E4D00260127EF
:1056200028780A2809D12846FFF7DCFF95F82C10C6
:10563000814202D1A770BDE8F0810549A6703022F1
:10564000091D0448FCF7BAFF04F0CCF8F2E70000AB
:105650001C0000204C03002000FC010810B50B4981
:1056600086B018220C466846FCF7A8FF074830228F
:1056700007491438FCF7A2FF182269462046FCF7B8
:105680009DFF04F0AFF806B010BD000060030020DD
:1056900020000020124D0126124CDFF84C904FF4F0
:1056A0007A780027404603F031FE0D48FFF79AFF55
:1056B00095F82C10814203D085F82C00267002E06A
:1056C00020780028EED02078401CC0B22070062838
:1056D000E8D92770182202494846FFF7C1F9E1E7E7
:1056E0004C0300201C00002000FC0108002801DB06
:1056F000024600E042428A4201DA00207047002858
:1057000002DDA0EB01007047FDDA0844704700009D
:105710002DE9F0438DB008A800F0C4FCDDE9094193
:105720008846182102A80B9F089EFCF760FF02F034
:10573000D5FE054602F080FE02462B4648A102A88F
:10574000FFF796FA4FF00C090021062302AA08463B
:10575000CDF8009002F0EEF8182102A8FCF747FF00
:105760002046FDF75EF904460D463846FDF759F927
:1057700002460B463FA102A8CDE90045FFF778FAA3
:105780000827062302AA0D210020009702F0D2F874
:10579000182102A8FCF72BFF3046FDF742F904461A
:1057A0000D464046FDF73DF902460B4637A102A8DB
:1057B000CDE90045FFF75CFA062302AA1621002076
:1057C000009702F0B7F8182102A8FCF710FF35A1E6
:1057D00002A8FFF74DFA062302AA22210020CDF8E5
:1057E000009002F0A7F8182102A8FCF700FF0023A0
:1057F0001A462FA102A8FFF73BFA02A8FCF702FF06
:105800000024152801D98DF81D40062302AA2F2156
:105810000020009702F08EF8182102A8FCF7E7FE9E
:1058200000231A4627A102A8FFF722FA02A8FCF7D4
:10583000E9FE152801D98DF81D40062302AA38215A
:105840000020009702F076F800F07AFB012804D0DF
:10585000032802D1002003F06FF80DB0BDE8F083FB
:10586000464E554D2F544E554D3A2534642F253410
:105870006400000042524B3A25332E32662020202D
:10588000205448523A25332E326600004C483A25BF
:10589000332E32662020202052483A25332E32669D
:1058A00000000000204241434B203C2D2D2D2000C4
:1058B000476561723A25336420202052504D3A25C5
:1058C0003464000042524B3A253364202020205497
:1058D00048523A253364000010B50420FFF788F9D8
:1058E0000C480D490D4A0068B0FBF1F3B0FBF1F133
:1058F0004FF47A7041431370012050804FF0E02044
:10590000026942F0020202614161016941F0010154
:10591000016110BD0400002040420F00180000206B
:1059200070B5044604F04EFB01280CD0094D688880
:10593000844203D3B4FBF0F003F0E8FC6888B4FBC6
:10594000F0F100FB11444FF47A706043BDE8704001
:1059500000F002B81800002070B54FF0E0250021DB
:105960006C69094AAB6912785043AA699A42FCD023
:1059700002D2A3EB020302E0A4EB02063344194473
:1059800013468142F1D370BD1800002010B500F01D
:10599000D1FE01F0EDFB01F0BBF9BDE8104000F0D5
:1059A0001DBE0000134C322003F0B0FC2078092803
:1059B0001DD2DFE800F005080B0E1114171C1A00A9
:1059C00000F00EFF13E000F0BDFF10E001F0EAF977
:1059D0000DE002F021FF0AE0FEF7F6FD07E0FFF719
:1059E00097FE04E000F0D4FB01E002F02BFEFEF78E
:1059F000FDFCD8E7A60000202DE9F04F89B0002774
:105A00003F237F2218213846009701F04BFE0A21E0
:105A1000012308220846FDF7F7FFC64E082401259A
:105A2000307C00B301284FF006031FD04622062128
:105A30000420CDE9004501F087FE0623522206210D
:105A40000A20CDE9004501F07FFE012308220A214A
:105A50001E20FDF7D9FF707C0C2688B1012812D0DA
:105A6000022813D01AE00623462200E05222062123
:105A70000420CDE9004501F067FE06234F22DEE752
:105A80000623542204E00623742201E00623532255
:105A9000CDE9006504211B2001F056FE01230822F8
:105AA0000A213220FDF7B0FF684600F0A5F9A24CAC
:105AB00000984FF04E08A061BDF80400A08304F1E7
:105AC00018004FF0440980784FF0520A4FF04C0B09
:105AD00030B1012807D0022808D003280BD108E0F4
:105AE00084F80B8007E084F80B9004E084F80BA0A6
:105AF00001E084F80BB0CDE900650623E27A0421C9
:105B00002F2001F021FE16218C48FCF770FD8A48F9
:105B10008BA11830C2788948FFF7AAF80623874A74
:105B200004214020009601F005FF1023522219465F
:105B300040200095FEF76EFA207860B11E2100919A
:105B4000C0EB00117F481E2300EBC1021C21312055
:105B500001F096FEA9E00021684600F013FA7748AC
:105B6000242269461830FCF729FD16217348FCF7FA
:105B70003EFD72481830007830B1012807D0022865
:105B800008D003280BD108E084F80C8007E084F8E3
:105B90000C9004E084F80CA001E084F80CB0227BA7
:105BA00069A16648FFF764F80623644A16210020BD
:105BB000009601F0BFFE16216048FCF718FD5F4813
:105BC00063A1183042781838FFF752F806235B4A71
:105BD00024210020009601F0ADFE16215748FCF765
:105BE00006FD56485CA1183082881838FFF740F847
:105BF0000623524A32210020009601F09BFE01212B
:105C0000684600F0BFF94D48242269463C30FCF755
:105C1000D5FC16214948FCF7EAFC48483C3000789E
:105C200030B1012807D0022808D003280BD108E0A2
:105C300084F80D8007E084F80D9004E084F80DA04E
:105C400001E084F80DB0627B3FA13C48FFF710F8FB
:105C500006233A4A16214020009601F06BFE1621D9
:105C60003648FCF7C4FCDFF8D48039A108F13C08C1
:105C7000324898F80120FEF7FBFF06232F4A242123
:105C80004020009601F056FE16212C48FCF7AFFC90
:105C9000B8F8042030A12948FEF7EAFF0623274A76
:105CA00032214020009601F045FE00F049F9092814
:105CB0001CD2DFE800F01B0D1B17111B050B0700A2
:105CC000277013E0207888B1042008E025700DE0EB
:105CD000207858B9257209E0207838B1052002F003
:105CE0002BFE03E0207808B902202072002000F08B
:105CF0009FF86072002000F0DFF8A072607A04283C
:105D000002D0032802D004E0012000E0022002F0CB
:105D100013FEA07A042809D12078002806D0A079A3
:105D2000401CC0B2A071052800D9A77109B0BDE818
:105D3000F08F00004C030020EC0000200C04002039
:105D400025336400C2CA0008474541523A25630022
:105D50005448523A2533640052504D3A2534640079
:105D600009490120096809B1002070470749CA693B
:105D7000002AF9D1044A896828321268491E8A42E9
:105D8000F3D1022070470000E00F0020CC02002079
:105D900010B5074C054804F11C016060A0688861DB
:105DA000002002F0C9FD0120207010BD6C0400200D
:105DB0000C01002010B50022084B114601EB8104B4
:105DC0000444491C33F81440C9B222440A29F5D3CB
:105DD0000A20B2FBF0F080B210BD00007406002073
:105DE00010B5FCF70FFC80B200EB40004FF6FF71DE
:105DF00001EA400010BD000002490A6A0260898C75
:105E0000818070478000002010B504460120FFF714
:105E1000D1FF20800220FFF7CDFF60800320FFF735
:105E2000C9FFA0800420FFF7C5FFE08010BD00007F
:105E30007CB5054600246846FFF7E6FF1D490122B0
:105E40004FF432664FF49C630DB10A7001E008789C
:105E5000F8B1BDF80600B04201D901240CE0984227
:105E60000AD2BDF804000224B04201D906240CE095
:105E7000984201D2052408E0BDF80400B04201D9DF
:105E8000042402E0984200D20324002008706CB180
:105E90000DE0BDF80600A0F59C60B0F5C86F06D80F
:105EA000BDF80400984202D3B04200D80A702046E0
:105EB0007CBD0000700000207CB5054600246846CB
:105EC000FFF7A2FF1D4901224FF432664FF49C6395
:105ED0000DB14A7001E04878F8B1BDF80200B04257
:105EE00001D901240CE098420AD2BDF80000022436
:105EF000B04201D906240CE0984201D2052408E002
:105F0000BDF80000B04201D9042402E0984200D25A
:105F10000324002048706CB10DE0BDF80200A0F52C
:105F20009C60B0F5C86F06D8BDF80000984202D357
:105F3000B04200D84A7020467CBD000070000020AE
:105F40000249002208790A7170470000740000209D
:105F50000021427807E0C1EBC10300EB83039B788B
:105F6000012B02D0491C8A42F5DCC8B2704710B53B
:105F7000FCF748FB80B200EB40004FF6FF7101EAEE
:105F8000400010BDF0B55422434D444E89B0074641
:105F900051234FF0530C11B101296CD064E0404CF7
:105FA0006BE08DF8022006E08DF8023003E0022855
:105FB00001D18DF802C0207B617B00EB0120ADF8A0
:105FC0000400A07B8DF80600E07B8DF80700207CA4
:105FD000617C00EB0120FCF7EAFC2A463346FCF723
:105FE000E0FBFCF731FD0290A07CE17C00EB01209E
:105FF000FCF7DDFC2A463346FCF7D3FBFCF724FD17
:106000000390207D617D00EB0120FCF7D0FC2A4647
:106010003346FCF7C6FBFCF717FD0490A07DE17D3D
:1060200000EB01208DF81400207E617E00EB012042
:10603000FCF7BDFC2A463346FCF7B3FBFCF704FD36
:106040000690A07EE17E00EB0120ADF81C00207FD1
:10605000617F00EB0120FCF7AAFC2A463346FCF7DF
:10606000A0FBFCF7F1FC0890242269463846FCF7B7
:10607000A5FA09B0F0BD0A4C2034207A8DF8000052
:10608000607AA17A00EB01208DF80100E07A2028E7
:1060900087D022288BD187E79A9999999999B93F06
:1060A000AC030020024910B51EC980E81E0010BDD7
:1060B0007C0300200148007870470000EC000020BD
:1060C0000148007A70470000EC00002010B5FCF792
:1060D00099FA80B200EB40004FF6FF7101EA4000F0
:1060E00010BD10B5FFF754FEBDE81040062002F0C9
:1060F00023BC0000114830B401694A69D2B10022C2
:106100008A7041694268C1EBC10102EB810101243F
:1061100001618C7001690A4D00F11C034A694260FB
:10612000AA4201D1816801E0C968891C99610470A3
:1061300030BC704730BCFFF72BBE00000C010020C4
:106140006C040020094A1069816941B15160C0683E
:1061500002F11C01801C88610120107070470169E8
:106160000029FBD040690028F8D108470C01002025
:1061700010B5FFF70DFEBDE81040082002F0DCBBB3
:1061800010B5FFF705FEBDE81040032002F0D4BBB8
:106190002DE9F04F93B010A8FFF736FEDFF838A2D4
:1061A0000026DFF838B29AF800000AF102044FF036
:1061B0000C0904F1080500285ED1002126237F2266
:1061C0000846009601F06EFA9BF801000E270128A0
:1061D00000D11A274FF001087F49CDE9009814310A
:1061E0000C2351F820200021084602F039FCCDE9AB
:1061F000009879499BF8010020310C2351F82020A8
:106200003946002002F02CFCB4F90010BDF8400023
:10621000814200DA01462180B5F90010814200DC9C
:1062200008462880B4F90210BDF84200814200DA25
:1062300001466180B5F90210814200DC08466880A1
:10624000B4F90410BDF84400814200DA0146A1808F
:10625000B5F90410814200DC0846A880B4F90610A4
:10626000BDF84600814200DA0146E180B5F906102A
:10627000814200DC0846E8809AF80000D0460128F8
:1062800056D1002126237F220846009601F00AFA03
:106290009BF801000E27012800D11A274FF0010AB0
:1062A0004D49CDE9009A2C310C2351F820200021D2
:1062B000084602F0D5FBCDE9009A47499BF801005A
:1062C00038310C2351F820203946002002F0C8FB59
:1062D000BDF84230ADF83030BDF84000ADF82A00CE
:1062E000BDF84420BDF84610ADF83620ADF83C109E
:1062F00027883F1AADF828702F88C01BADF82C00F6
:106300006088C01AADF82E006888181AADF83200FF
:10631000A088801AADF83400A888101AADF83800AB
:10632000E088401AADF83A00E888081AADF83E0057
:10633000162102A8FCF75BF9BDF84230BDF84620F3
:1063400027A102A8FEF794FC0827062302AA2C2105
:106350000020009701F0EEFA162102A8FCF747F999
:10636000BDF84030BDF8442022A102A8FEF780FC11
:10637000062302AA36210020009701F0DBFAFFF77E
:10638000DFFD032804D0012822D188F800601CE03A
:1063900098F80000401CC0B288F80000022817D10D
:1063A0000E4888F8006018220AA91430FCF706F994
:1063B00003F018FA00204FF47A7125F8101024F831
:1063C0001010401CC0B20428F7D3002002F0B4FA29
:1063D00013B0BDE8F08F0000A80000204C0300209F
:1063E00042524B3A253464202020205448523A250A
:1063F000346400004C483A25346420202020524860
:106400003A2534640000000010B5044CA078002840
:1064100003D1FCF763FE0120A07010BD70000020C6
:1064200008B501211C20FEF7A1FA4FF48070ADF8E9
:10643000000048208DF8030069460A48FDF7C4F8BB
:106440004FF44060ADF8000069460748FDF7BCF81E
:106450004FF40040ADF8000069460448FDF7B4F879
:1064600008BD000000080140000C01400010014080
:106470000125DFF85881564C4FF4006B00264FF48D
:10648000FA77142002F042FF207840B9594640467E
:10649000FDF714F918B9257003F0A2FDA06060782B
:1064A00048B94FF400414B48FDF708F918B9657039
:1064B00003F096FDA060A07848B94FF48061404693
:1064C000FDF7FCF818B9A57003F08AFDA060E0782C
:1064D00048B94FF480714048FDF7F0F818B9E570FD
:1064E00003F07EFDA0602078B8B1D94659464046F9
:1064F000FDF7E4F8012800D1267003F071FDA168D2
:10650000401AB84202D90220207106E049464046AE
:10651000FDF7D4F8012800D125716078D0B1DFF8FB
:10652000B4A04FF4004949465046FDF7C7F801288A
:1065300000D1667003F054FDA168401AB84201D939
:10654000042006E049465046FDF7B8F8012801D17D
:1065500003202071A078C0B14FF4806949464046BD
:10656000FDF7ACF8012800D1A67003F039FDA16851
:10657000401AB84201D9062006E049464046FDF7D8
:106580009DF8012801D105202071E07800283FF412
:1065900078AFDFF844A04FF4807949465046FDF7C4
:1065A0008DF8012800D1E67003F01AFDA168401AA9
:1065B000B84201D9082007E049465046FDF77EF869
:1065C00001287FF45EAF072020715AE7000C0140DC
:1065D0007400002000100140000801402DE9F04344
:1065E0001B480021DFF864C044781A4ADFF868903D
:1065F00004EB4400194E0B4603270CF1200802EB74
:106600008005C1EBC10006EB800047708370C0E9D4
:1066100001C855F82120C260C0E90593491C03292F
:10662000EFDB0F4830610F48F0620F48B064012083
:106630003CB1012C07D0022C01D186F83A00BDE80C
:10664000F083B070FBE7B077F9E70000DCA4000846
:106650004C030020000200206C040020D80500201C
:10666000F5870008D1870008AD87000838B50121FB
:106670000846FEF77BF901210E48FCF7F3FF0121E4
:106680000820FEF773F98820ADF8000010208DF87F
:1066900003000320084C8DF8020069462046FCF7F1
:1066A00093FF08212046FDF712F880212046FDF7D0
:1066B0000EF838BD00023000000C0140904201D9B4
:1066C000104670478842FCD2084670471CB500212E
:1066D0001248FEF71FF94FF44070FEF711F9FFF76B
:1066E000FBF8FEF78FFFFFF7C1FF00F0E3FEFEF7B8
:1066F00043FFFFF795FEFFF787FE01F0F5FEFFF77A
:1067000045F907490220CDE900010023642205A1D3
:10671000074803F02BFC02F05FFFFEE700240008AF
:106720000000002053544152545F5441534B000029
:10673000598B0008F0B520480021204C40781C4AB5
:106740001C4EC0EBC0000B46072504EB8004C1EBD8
:10675000C10002EB800045708370C0E9016354F80A
:106760002170C0E903734361491C83610729EEDB93
:10677000012090701248134910619161D062124952
:1067800051631249136591641149D3665166C2F889
:1067900080001048C2F888000F48C2F8A430C2F840
:1067A0009C000E48C2F8C030C2F8B800F0BD00002E
:1067B0006C040020BCA400084C03002064010020ED
:1067C0004561000830050020840500208161000833
:1067D000E3600008D805002071610008915D0008A1
:1067E0002DE9FC4103F0FCFB404C414F0125616960
:1067F000002601F57A7188421AD303F0F1FB60613B
:106800000020FFF7D7FAFCF7D2F80022394BFCF74B
:106810003AF80022384BFBF7C4FF0122FCF7A2F83C
:10682000FCF712F92061B84201DAA57000E0A67009
:1068300039462069FBF73FFF3049FBF774FF3049C9
:10684000FBF73FFFFCF7C0F8E071C0B26322002104
:10685000FFF734FF40B2E07100EB4000800063219D
:1068600090FBF1F0274900EB800001EB8002102043
:1068700000900A2304216A2001F002F80827CDE9DC
:106880000075062325220D21772000F05DFF0620EC
:10689000CDE90007022394F907200421742000F0B9
:1068A000B7FF607808B1FFF7A7F8A078E1788842D1
:1068B00003D12179627991420DD0217908434FF0BB
:1068C000020002D001F002FF01E002F0BBF9A07863
:1068D000E070207960712079002804D001F0A6FDD5
:1068E000002800D12671BDE8FC810000EC000020EA
:1068F0000000504000FEAF40000008406866663F60
:106900000000C842BEC9000810B5FFF741FA0249AD
:106910000220487410BD00004C03002010B5FFF7A2
:1069200037FA02490020487410BD00004C030020D3
:1069300010B5FFF72DFA02490120487410BD000080
:106940004C0300202DE9F04192B000243F237F2228
:1069500018212046009400F0A5FE0020FFF768FAF9
:1069600005460020FFF7A8FABC4E042802D00328F1
:1069700003D00CE03078401C01E03078401E3070CD
:106980003F237F2210210020009400F08BFE002185
:1069900008A8FFF7F7FA242208A9B148FBF70EFE72
:1069A0000822012311461046FDF72EF8FFF782FB5F
:1069B00001270C2400284FF006034ED04C22CDE9CD
:1069C00000470221052000F0BFFE182102A8FBF7B6
:1069D0000EFEA4A102A8FEF74BF9062302AA00218D
:1069E0002220009400F0A6FF6846FFF705FADFF8C2
:1069F0007C82009902A8C8F80010BDF80410A8F81D
:106A000004101821FBF7F3FD98F8032098A102A8C1
:106A1000FEF72EF9062302AA00214C20009400F074
:106A200089FF0E235E2219464C200097FDF7F2FAEB
:106A300030780321B0FBF1F201FB1202884E72B1F3
:106A4000B0FBF1F201FB1202012A76D0B0FBF1F2A9
:106A500001FB120002286BD0F2E05522AFE71821AB
:106A600002A8FBF7C4FD307830B1012806D0022817
:106A70005FD0032806D15EE07EA100E07FA102A8DE
:106A8000FEF7F6F8062302AA10210020009400F079
:106A900051FF182102A8FBF7AAFD727879A102A87C
:106AA000FEF7E6F8062302AA20210020009400F059
:106AB00041FF182102A8FBF79AFDB27873A102A842
:106AC000FEF7D6F8062302AA30210020009400F039
:106AD00031FF182102A8FBF78AFDB2886EA102A837
:106AE000FEF7C6F8062302AA10214020009400F009
:106AF00021FF182102A8FBF77AFDB27968A102A84C
:106B0000FEF7B6F8062302AA20214020009400F0E8
:106B100011FF182102A8FBF76AFDF27963A102A810
:106B2000FEF7A6F8062302AA302100944EE004E006
:106B30004EE060A1A3E761A1A1E7182102A8FBF73D
:106B400056FDB068FBF76DFF02460B465DA102A83B
:106B5000FEF78EF8062302AA10210020009400F010
:106B6000E9FE182102A8FBF742FDF068FBF759FF88
:106B700002460B4656A102A8FEF77AF8062302AA9F
:106B800020210020009400F0D5FE182102A8FBF778
:106B90002EFD3069FBF745FF02460B464FA102A8C8
:106BA000FEF766F8062302AA30210020009400F0C8
:106BB000C1FE182102A8FBF71AFD327D4AA102A8E6
:106BC000FEF756F8062302AA10210094402035E073
:106BD000182102A8FBF70BFDB069FBF722FF024664
:106BE0000B4643A102A8FEF743F8062302AA102190
:106BF0000020009400F09EFE182102A8FBF7F7FC8D
:106C0000B28B3EA102A8FEF733F8062302AA202188
:106C10000020009400F08EFE182102A8FBF7E7FC8C
:106C2000306AFBF7FEFE02460B4636A102A8FEF7CD
:106C30001FF8062302AA30210020009400F07AFEFB
:106C4000042D09D0032D04D1FFF77AF9002001F0BB
:106C500073FE12B0BDE8F0810220F8E77C0200204C
:106C60002C0600204D4F544F5F46000004010020C9
:106C700025336400476561723A204E0047656172B2
:106C80003A204400546872743A2564004D6F64657C
:106C90003A2025630000000052504D3A2564000060
:106CA0004D6F746F543A25640000000044727654AE
:106CB0003A256400476561723A2052004765617267
:106CC0003A204C00566F6C743A252E316600000055
:106CD000437572723A252E31660000004469737460
:106CE0003A252E3166000000457272433A25640051
:106CF000547271433A252E316600000052504D43C4
:106D00003A2564005472713A252E31660000000065
:106D10002DE9F0431C4E0021DFF868C070781B4B52
:106D2000DFF86C9000EB40001A4D0A4603270CF187
:106D3000200803EB8004C1EBC10005EB8000477025
:106D40008270C0E901C854F82130C0E90332C0E9BB
:106D50000592491C0329EEDB0F4828610F48E862C1
:106D60000F48A864707C012138B1012807D002289F
:106D700001D185F83A10BDE8F083A970FBE7A97747
:106D8000F9E70000DCA400084C030020DC0100202F
:106D90006C040020840500201D690008316900088A
:106DA000096900082DE9F04192B000243F237F22B9
:106DB00018212046009400F075FC0020FFF738F8F9
:106DC00005460020FFF778F8BC4E042802D00328BF
:106DD00003D00CE03078401C01E03078401E307069
:106DE0003F237F2210210020009400F05BFC012152
:106DF00008A8FFF7C7F8242208A9B148FBF7DEFB73
:106E00000822012311461046FCF7FEFDFFF752F958
:106E100001270C2400284FF006034ED04C22CDE968
:106E200000470221052000F08FFC182102A8FBF783
:106E3000DEFBA4A102A8FDF71BFF062302AA002186
:106E40002220009400F076FD6846FEF7D5FFDFF8BB
:106E50007C82009902A8C8F80010BDF80410A8F8B8
:106E600004101821FBF7C3FB98F8032098A102A88F
:106E7000FDF7FEFE062302AA00214C20009400F03C
:106E800059FD0E235E2219464C200097FDF7C2F8EB
:106E900030780321B0FBF1F201FB1202884E72B18F
:106EA000B0FBF1F201FB1202012A76D0B0FBF1F245
:106EB00001FB120002286BD0F2E05522AFE7182147
:106EC00002A8FBF794FB307830B1012806D00228E5
:106ED0005FD0032806D15EE07EA100E07FA102A87A
:106EE000FDF7C6FE062302AA10210020009400F040
:106EF00021FD182102A8FBF77AFB727879A102A87C
:106F0000FDF7B6FE062302AA20210020009400F01F
:106F100011FD182102A8FBF76AFBB27873A102A841
:106F2000FDF7A6FE062302AA30210020009400F0FF
:106F300001FD182102A8FBF75AFBB2886EA102A836
:106F4000FDF796FE062302AA10214020009400F0CF
:106F5000F1FC182102A8FBF74AFBB27968A102A84C
:106F6000FDF786FE062302AA20214020009400F0AF
:106F7000E1FC182102A8FBF73AFBF27963A102A811
:106F8000FDF776FE062302AA302100944EE004E0CD
:106F90004EE060A1A3E761A1A1E7182102A8FBF7D9
:106FA00026FBB068FBF73DFD02460B465DA102A83B
:106FB000FDF75EFE062302AA10210020009400F0D7
:106FC000B9FC182102A8FBF712FBF068FBF729FDBA
:106FD00002460B4656A102A8FDF74AFE062302AA66
:106FE00020210020009400F0A5FC182102A8FBF746
:106FF000FEFA3069FBF715FD02460B464FA102A8C9
:10700000FDF736FE062302AA30210020009400F08E
:1070100091FC182102A8FBF7EAFA327D4AA102A8E6
:10702000FDF726FE062302AA10210094402035E039
:10703000182102A8FBF7DBFAB069FBF7F2FC024665
:107040000B4643A102A8FDF713FE062302AA102156
:107050000020009400F06EFC182102A8FBF7C7FA8C
:10706000B28B3EA102A8FDF703FE062302AA20214F
:107070000020009400F05EFC182102A8FBF7B7FA8C
:10708000306AFBF7CEFC02460B4636A102A8FDF79C
:10709000EFFD062302AA30210020009400F04AFCF4
:1070A000042D07D0032D02D1012001F045FC12B0C0
:1070B000BDE8F081FEF744FF0020F6E77D020020E6
:1070C000500600204D4F544F5F5200000401002035
:1070D00025336400476561723A204E00476561724E
:1070E0003A204400546872743A2564004D6F646518
:1070F0003A2025630000000052504D3A25640000FC
:107100004D6F746F543A2564000000004472765449
:107110003A256400476561723A2052004765617202
:107120003A204C00566F6C743A252E3166000000F0
:10713000437572723A252E316600000044697374FB
:107140003A252E3166000000457272433A256400EC
:10715000547271433A252E316600000052504D435F
:107160003A2564005472713A252E31660000000001
:107170002DE9F0431B4E0021DFF864C070781A4AF5
:10718000DFF8689000EB4000194D0B4603270CF127
:10719000200802EB8004C1EBC10005EB80004770C2
:1071A0008370C0E901C854F82120C260C0E905938A
:1071B000491C0329EFDB0F4828610F48E8620F489C
:1071C000A864307C012138B1012807D0022801D100
:1071D00085F83A10BDE8F083A970FBE7A977F9E7D5
:1071E000DCA400084C030020B80100206C0400203F
:1071F00030050020718700089987000885870008FE
:1072000010B50D4C2078002815D10C4804F1280247
:10721000A2F12001407852F8203002EB80000B618F
:10722000C2684A6182698A61406AC8610846FCF79F
:107230009FFF0120207010BD240200204C0300207D
:107240000346012000E05843491EC9B2FBD27047F3
:1072500010B50446FDF7AAFA1C49D1E9020100F075
:10726000A7F8282000F0D3F8022000F0D7F8032078
:1072700000F0F2F800F0B7F8032000F0A5F8012CB8
:1072800015D00E21002002F0BFFA01211C2002F0CF
:10729000BBFA07211D2002F0B7FAFF21E12002F01E
:1072A000B3FAFF21BDE81040E22002F0ADBA0F2191
:1072B000002002F0A9FA01211C2002F0A5FA062103
:1072C0001D2002F0A1FA01210846E4E78002002017
:1072D0001CB50020CDE90000FDF768FA05220B4936
:1072E000302002F05BFA05226946102001F06EF9A9
:1072F00006480838D0E90210DDE900235140584023
:10730000014301D000201CBD01201CBD88020020CB
:1073100070B5064600240D460C70072001F07AF97E
:10732000C10605D5FF21E12002F06EFA01240AE032
:10733000410605D5304600F01BF82870032402E012
:10734000800600D502247021072002F05DFA072094
:1073500001F060F9204670BD08B500200090034898
:107360006946806902F048FD08BD000080000020E9
:1073700070B50546602001F04DF90446401E2028F6
:107380000DD20A4E0020C6F88C0122462946612003
:1073900006F5C67601F01AF90120306000E00024FD
:1073A000FF21E22002F030FA204670BD00002142A9
:1073B00013B5052269462A2002F0F0F90522694634
:1073C000302002F0EBF91CBD10B504460F2809D897
:1073D000042001F01FF940EA0401BDE81040042038
:1073E00002F012BA10BD10B5062001F013F90446E0
:1073F000042001F00FF9A10602D440F0100101E0D1
:1074000040F05001BDE81040042002F0FDB97D2895
:1074100003D80146052002F0F7B9704710B50446BD
:10742000062001F0F7F820F0280124B1012C07D044
:10743000022C05D102E041F0200101E041F00801F9
:10744000BDE81040062002F0DFB9000001490860E5
:10745000704700008002002010B50446062001F0AD
:10746000D9F800F0F80174B1012C04D0022C05D039
:10747000032C08D105E041F0020104E041F00401D1
:1074800001E041F00701BDE81040062002F0BCB960
:1074900010B5074C0A460021C4F88C110146A02003
:1074A00004F5C67402F07AF90120206010BD0000D6
:1074B0000000214270B586B001210820FDF756FA80
:1074C00001218803FDF746FA01210820FDF74EFA55
:1074D0004FF4A040ADF8140010208DF817000320E1
:1074E000534C8DF8160005A92046FCF76DF84FF4B3
:1074F0002041ADF8141018218DF8171005A9204669
:10750000FCF762F80024ADF800404FF48270ADF84B
:107510000200ADF804400220ADF806000126ADF8E7
:1075200008600002ADF80A000820ADF80C00414DDB
:10753000ADF80E40ADF8104069462846FDF743FA15
:1075400001212846FDF72AFA3B4DC5F8B061C5F880
:10755000B841642005F5D875FEF7E2F9AE60002168
:10756000AE2000F013FA0021D52000F00FFA002120
:10757000802000F00BFA0021A82000F007FA00217B
:107580003F2000F003FA0021D32000F0FFF9002192
:10759000084600F0FBF90021402000F0F7F9002137
:1075A0008D2000F0F3F90021142000F0EFF9002104
:1075B000202000F0EBF90021022000F0E7F9002183
:1075C000A12000F0E3F90021C02000F0DFF9002144
:1075D000DA2000F0DBF90021122000F0D7F90021B9
:1075E000812000F0D3F90021EF2000F0CFF9002135
:1075F000D92000F0CBF90021F12000F0C7F90021DB
:10760000DB2000F0C3F90021302000F0BFF9002199
:10761000A42000F0BBF90021A62000F0B7F900215A
:10762000AF2000F0B3F900F009F806B070BD00001B
:10763000000C0140003800400080214230B400219D
:10764000084B0A46002003EBC0046254401CC0B241
:107650008028F8D3491CC9B20829F3D330BC00F004
:107660004FB80000D806002010B57F2816D83F2953
:1076700014D80723A3EBD10301F00701C1F10704DC
:107680000121A140064CDBB204EBC000002AC25C21
:10769000C9B201D00A4300E08A43C25410BD0000C1
:1076A000D80600202DE9F0431E4690460F460546B9
:1076B000DDF81C900CE03C4606E04A462146284690
:1076C000FFF7D2FF641CE4B2B442F6D96D1CEDB2F0
:1076D0004545F0D9BDE8F083C1F13F01C9B2CA0800
:1076E00001F0070101238B40D9B2044B03EBC0002A
:1076F000805C084000D0012070470000D8060020C0
:1077000070B5104E002505F1B000C0B2002100F0A8
:107710003DF90021084600F039F90021102000F061
:1077200035F9002406EBC400405D012100F02EF97C
:10773000641CE4B2802CF5D36D1CEDB2082DE2D3AD
:1077400070BD0000D80600202DE9FF4F81B09B4698
:107750000E9F0E468A46780700D0012000EBD70026
:1077600000FB0BF0203AC0B202F0FF0900250090A8
:1077700041E0BBF1060F10D0BBF10C0F3ED1182F2A
:107780003CD1204909EBC90001EB80004FF0000813
:10779000445D20060FD50F9A10E0082F05D00C2F5E
:1077A0002CD109EB49001849EEE7184909EB4900CB
:1077B00001EB4000EAE70F9890B1002231460198B2
:1077C000FFF752FF6006761C040EF6B2A6EB0A0025
:1077D000B84207D101985646401CC0B2019008E05B
:1077E0000122EBE708F1010000F0FF08B8F1080FF3
:1077F000CFD36D1CEDB200988542BAD305B0BDE879
:10780000F08F0000CAAB000856A700081CA50008AE
:107810002DE9FF4F82B00026DDE90F791D46934622
:10782000804634464FF0010A25E0281B401EC1B2B5
:107830000A20FFF705FDBBFBF0F00A21B0FBF1F2D7
:1078400001FB120026B9691E8C4201DA38B101260B
:107850003030C2B207FB0480C0B23B4604E007FBF5
:107860000480C0B23B462022CDE9009A0399FFF77D
:107870006BFF641CE4B2AC42D7D306B0BDE8F08F16
:107880002DE9FF4F83B083460C468A4610980BEBD8
:1078900003010093802903D9C3F18001C9B200918B
:1078A00021188146402903D9C0F1400101F0FF09A8
:1078B000410700D0012101EBD00002905FEA49703E
:1078C00000D0012000EBD900019000202BE0002720
:1078D00023E00299002508FB01F005993944465C34
:1078E000300601D5012200E0002221465846FFF76C
:1078F000BBFE641C7006E4B2060EA4EB0A01494507
:1079000005D10BF10100544600F0FF0B03E06D1CA4
:10791000EDB2082DE4D37F1CFFB201988742D8D383
:1079200008F10100C0B2009980468842CFD307B069
:10793000BDE8F08F2DE9FC5F98460C9F16460D467A
:107940000446C3F1800AC7F140094FF0010B16E06D
:10795000A24502DA0024E819C5B2A94503DA0024D9
:107960002546FFF76BFECDE9007B3278434629467A
:107970002046FFF7E9FE04EB0800C4B2761C30781D
:1079800020385E28E4D9BDE8FC9F000010B5054C06
:10799000C4F8B01104F5D874FDF746F80120206052
:1079A00010BD0000008021422DE9F041184E0F4625
:1079B0000446F5683068001D01F066F938B9306892
:1079C00090F82C1001208840316981433161601C9E
:1079D00007D137B13168BDE8F0410E48091D01F00B
:1079E00023BA30682C44AC424460316805D2B06B95
:1079F000BDE8F041091D01F0FFB9706B091D01F0F0
:107A0000FBF9B06A844200D2B462BDE8F0810000A4
:107A1000CC020020081000202DE9F041054601F0BD
:107A20000FFA2E4EB068401CB06030682C4F10B179
:107A3000706940B32DE03560B068012829D1002479
:107A400004EB840007EB800001F0C8F9641C082CEB
:107A5000F6D32348A03001F0C1F92148B43001F039
:107A6000BDF91F48C83001F0B9F91D48DC3001F0FC
:107A7000B5F91B48F03001F0B1F91948A030706336
:107A80001430B06305E03068E96AC06A884200D803
:107A90003560706A0121401C7062E86A3269814079
:107AA0001143316100EB800007EB8000291D01F0DC
:107AB000BBF901F015FA706900280CD03068E96A4A
:107AC000C06A884207D207494FF080500860BFF370
:107AD0004F8FBFF36F8FBDE8F0810000CC02002014
:107AE000180F002004ED00E010B501F0A9F90E4CCC
:107AF0002068A0B90D4801F071F90C48143001F06C
:107B00006DF90A48E0601430206100221021052040
:107B100001F0EAFE206010B105A101F067FBBDE8AD
:107B2000104001F0DDB90000080300201C10002007
:107B3000546D72510000000070B5124E124D1CE0E1
:107B400001F0E0FD306820B1002402F089FBA4B907
:107B500001E00124F9E701F073F9F068C468201D21
:107B600001F092F8A868401EA8606868401E68602E
:107B700001F0B6F9204600F052F868680028DFD11D
:107B800070BD0000F40F0020CC02002030B4026C65
:107B90000B46002A0BD0C1681144C1604468A14261
:107BA00001D30168C16030BC1846FAF707BD30BC8C
:107BB00070472DE9F041856B174604460026026C9C
:107BC00082B1C7B1E068FAF7F9FCE168206C091AE4
:107BD000E1602268914202D26168081AE060022FD7
:107BE00016D017E02068A8B9606802F081FA06464E
:107BF000002060600EE0A068FAF7E0FC216CA0684D
:107C00000844A0606168884204D32068A06001E055
:107C100005B16D1E6D1CA5633046BDE8F08110B541
:107C20000446006B01F090F92046BDE8104001F0D9
:107C30008BB900000A4900200A69012A00D90120F5
:107C40000A68D26A0AB100207047064A1268012AFF
:107C5000F9D80028F7D1886AC968401A704700002F
:107C6000CC020020180F002010484FF4205142078A
:107C700006D0C01D0D4920F00700411AC1F5205162
:107C80000B4A00230144C2E900030839103A21F0ED
:107C9000070111604B600B600B1AC0E90013936081
:107CA0004FF000405360D060704700004410002047
:107CB000440300200E4C40F68C45FFF73DFFFFF7D4
:107CC000B9FF0228F9D301F01DFDA06AE1688842DE
:107CD00004D22A4607A10CA0FDF74CFCFFF7AAFF2F
:107CE000022801D301F0C2F902F0BAFAE5E7000078
:107CF000CC0200202E2E5C4672656552544F535CB8
:107D00007461736B732E6300784E6578745461737D
:107D10006B556E626C6F636B54696D65203E3D20E0
:107D2000785469636B436F756E7400002DE9F047FA
:107D30000E46DDE9098482466FF00301206B01EBFA
:107D400082010844089D20F007079946780705D06E
:107D500040F22B3219A11E48FDF70CFC002022181E
:107D6000315C82F83410315C11B1401C1028F6D31C
:107D7000002684F84360082D00D30725E562C4E996
:107D80001156201D01F035F804F1180001F031F80A
:107D90002461C5F108006462A061E66484F8506063
:107DA0004A465146384600F02FFB2060B8F1000FDC
:107DB00001D0C8F80040BDE8F08700002E2E5C46D8
:107DC00072656552544F535C7461736B732E63001C
:107DD000E8D1000830B5114900E011460A68824236
:107DE000FBD34B685C18844203D140681844486058
:107DF000084643681C18944209D1084C103C24687A
:107E0000A24209D052681A4442600A6812680260AD
:107E1000814200D0086030BD0460F9E744030020CF
:107E200070B5002441600B4D0061914206D8D11A13
:107E30008269914206D2011D286907E09A4203D265
:107E4000994201D3012403E0011DE86800F0D4FF4A
:107E5000204670BD0803002010B5044600F0F0FF76
:107E6000A06B20B1002401F03BF8204610BD012496
:107E7000F9E700002DE9F3410F4600980026846CD5
:107E80002CB940F6CE1216A11AA0FDF773FBA06B19
:107E9000E16B884205D340F6CF1211A11A48FDF7D5
:107EA00069FBA06BE16B88420CD294F945503A46CD
:107EB00069462046FFF77DFE0646681C05D06D1C0E
:107EC00084F845503046BDE8FC81606A0028F9D04E
:107ED00004F1240002F076F90028F3D00126F1E73E
