:020000040800F2
:1000000060620020510300083B2E0008EB2A000824
:10001000112E0008B91E00085F3A00080000000019
:10002000000000000000000000000000B90200080D
:100030007F27000800000000FD0200086D34000862
:100040006B0300086B0300086B0300086B030008D8
:100050006B0300086B0300086B0300086B030008C8
:100060006B0300086B030008812700086B0300087E
:10007000612500086B0300086B0300086B03000890
:100080006B0300086B0300086B0300086B03000898
:100090006B0300086B0300086B030008FD270008D2
:1000A0006B0300086B0300086B0300086B03000878
:1000B0006B0300086B0300086B0300086B03000868
:1000C0006B0300086B0300086B0300086B03000858
:1000D0006B0300086B0300086D3600087D370008CD
:1000E0006B0300086B0300086B0300086B03000838
:1000F0006B0300086B0300086B0300086B03000828
:100100006B0300086B0300086B0300086B03000817
:100110006B0300086B0300086B030008DD34000864
:100120006B0300086B0300086B0300086B030008F7
:1001300000F002F800F0B0F80AA090E8000C824449
:100140008344AAF10107DA4501D100F0A5F8AFF226
:10015000090EBAE80F0013F0010F18BFFB1A43F0A5
:100160000103184720780000407800000A444FF04F
:10017000000C10F8013B13F0070408BF10F8014B06
:100180001D1108BF10F8015B641E05D010F8016B4B
:10019000641E01F8016BF9D113F0080F1EBF10F8AF
:1001A000014BAD1C0C1B09D16D1E58BF01F801CBD2
:1001B000FAD505E014F8016B01F8016B6D1EF9D555
:1001C0009142D6D37047000000230024002500266A
:1001D000103A28BF78C1FBD8520728BF30C148BFAA
:1001E0000B6070476E2900F08183702900F0C38195
:1001F000662907F04383652907F04083672907F0E4
:100200003D83612907F03C8303681B0A28BF41F046
:100210008001692900F03481642900F03181752959
:1002200000F02E816F2900F06684782900F08F811C
:10023000E92900F00184E42900F0FE83F52900F0AB
:10024000FB83EF2900F06384F82900F08E810368B6
:10025000DB0928BF41F08001632900F08283732904
:1002600000F08783E32901F08B80F32901F090806F
:10027000002070471FB501F003F9040000200021A1
:1002800006F076FF401C60600020002106F05AFF57
:10029000E0601FBD10B510BD01F0C5F81146FFF7B5
:1002A000E9FF03F01DFD01F09DF903B4FFF7F2FF34
:1002B00003BC01F0E5F90000224B19680868B0E8BA
:1002C000F00F80F30988BFF36F8F4FF0000080F3C9
:1002D00011884EF00D0E70470000000006480068BF
:1002E000006880F3088862B661B6BFF34F8FBFF332
:1002F0006F8F00DF00BF00BF08ED00E0EFF3098063
:10030000BFF36F8F0F4B1A6820E9F00F106008B52C
:100310004FF0500080F31188BFF34F8FBFF36F8F02
:1003200006F058F84FF0000080F31188BDE808404F
:1003300019680868B0E8F00F80F30988BFF36F8F81
:10034000704700BFC4000020EFF305807047000035
:100350000948804709480047FEE7FEE7FEE7FEE759
:10036000FEE7FEE7FEE7FEE7FEE7FEE70448054995
:10037000054A064B704700007D3400083101000833
:10038000605C002060620020605E0020605E0020F3
:100390001CB50C46064B7B4469460090204600F095
:1003A000BEFA04460020694600F0CCFA20461CBD87
:1003B000AB0500000FB41CB5084B06AA7B44694688
:1003C0000090059800F0ABFA04460020694600F062
:1003D000B9FA20461CBC5DF814FB0000850500003E
:1003E00070B5044685690068C10601D5302600E075
:1003F0002026C00707D070BDD4E9012130469047C0
:10040000206A401C20626D1EF6D570BD70B5044692
:1004100085690078C00707D170BDD4E9012120208B
:100420009047206A401C20626D1EF6D570BD70B5E5
:100430000C460546012A05D02878800600D5EA69D1
:10044000002302E0012305E05B1C934202D2E05C42
:100450000028F9D1A869E618C01AA861286A1844CA
:1004600028622846FFF7BCFF04E0D5E9012114F813
:10047000010B9047B442F8D32846FFF7C7FF70BD81
:100480002DE9F0410646002410687529314616A56D
:1004900010D000F0C0F9002802DA404213A507E0AE
:1004A00031688A0701D512A502E0490704D511A5D4
:1004B000012401E000F0B8F900210A2206F1240726
:1004C00009E0B0FBF2FCB0FBF2F302FB1C003030A1
:1004D00078541846491C0028F3D123462A46304652
:1004E000BDE8F04100F0A9B9000000002D000000B7
:1004F0002B00000020000000F0B40D460188090523
:1005000002D5214C7C4402E01F4C7C440E34002177
:1005100000F1240608E002F00F071209E75D42EA45
:1005200003721B097754491C52EA0307F3D102787E
:100530000023120704D5702D06D009B1022311340F
:100540002246F0BC00F079B901231034F8E770B509
:1005500004460D462146106800F066F90246294619
:100560002046BDE870400023C6E7D21D22F00703F5
:10057000D3E90023C0E70368126843F02003036057
:100580000823C3610023B7E77C7300002DE9F05F07
:10059000894604464FF0000ADFF874B1FB44C0F806
:1005A00020A02046E1688847002874D0252806D07E
:1005B000D4E901219047206A401C2062F1E700261F
:1005C0005F462046E16888472028054607DB312D35
:1005D00005D2781910F8200C08B10643F1E7B007EE
:1005E00001D526F00406C4F81CA00027C4F818A002
:1005F0002A2D09D0284603F048FA38B304EB8708BF
:10060000303DC8F8185019E059F8041B204604EB97
:1006100087029161E1688847012F054618D1E0699A
:10062000002820DA26F020061DE0D8F8180000EB9C
:10063000800005EB40003038C8F818002046E1681B
:100640008847054603F021FA0028EED1012F0AD091
:100650002E2D08D12046E16888477F1C0546022FD1
:1006600046F02006C4DBA069002803DA404246F0C9
:100670000106A061F00701D026F010066C2D0BD00A
:10068000682D09D04C2D39D06A2D35D0742D35D038
:100690007A2D33D016E038E0E1682F4620468847AF
:1006A000B842054609D16C2F26D04FF48060E1682E
:1006B000064320468847054604E06C2F1AD04FF4C5
:1006C000807006430DB3A5F14100192802D82035EA
:1006D00046F400664A462946204626604E46FFF705
:1006E00081FD80B101280BD0F61D26F0070000F136
:1006F000080956E74020E4E78020D8E70020D6E745
:1007000006F104094DE7284652E7206ABDE8F09F4C
:100710000C73000030B505460B462A4613F8014B12
:1007200012F8010B08B1A042F8D01CB1002802D089
:100730006D1CF1E7284630BD10B5431C02E010F8EF
:10074000011B71B18107FAD14FF0013202C88C1A36
:100750008C4314EAC211F9D0C01A0A0603D0C01E95
:1007600010BDC01A10BD0A0401D0801E10BD0902C0
:10077000FCD0401E10BD032A40F2308010F0030C64
:1007800000F0158011F8013BBCF1020F624498BFE4
:1007900011F801CB00F8013B38BF11F8013BA2F181
:1007A000040298BF00F801CB38BF00F8013B11F0FC
:1007B000030300F0B781083AC0F0088051F8043B09
:1007C000083A51F804CBA0E80810F5E7121D5CBF09
:1007D00051F8043B40F8043BAFF30080D20724BF3C
:1007E00011F8013B11F801CB48BF11F8012B24BFD0
:1007F00000F8013B00F801CB48BF00F8012B70471F
:1008000002F0FF0343EA032242EA024200F0BEB9CB
:1008100070477047704709684A0501D540B2704774
:10082000C905FCD500B2704709684A0501D5C0B2B8
:100830007047C905FCD580B270472DE9F0470D46D9
:1008400099469246044600F124080168880604D5BA
:10085000E06921F01001216000E00120A84201DDE3
:10086000471B00E00027A1697A1902EB0900081A6A
:10087000A0612078C00602D42046FFF7B1FD002613
:1008800008E0D4E901211AF806009047206A401CCC
:10089000761C20624E45F4DB2078C0060AD520463F
:1008A000FFF79EFD06E0D4E9012130209047206A41
:1008B000401C2062381EA7F10107F4DC07E0D4E9F0
:1008C000012118F805009047206A401C2062281E6C
:1008D000A5F10105F3DC2046FFF798FD207800061E
:1008E00002D50220BDE8F0870120FBE7116802680D
:1008F000006A530501D508700AE0D30501D50880C8
:1009000006E0130603D5C217C1E9000200E0086043
:100910000120704701694A1C02610878704700B5E0
:100920008FB0CDE901310021059105497944CDE928
:10093000031011466846FFF729FE0FB000BD000006
:10094000E5FFFFFF0A6802F8010B0A60704710B567
:10095000436913B1AFF3008001E0FFF768FD0120A8
:1009600010BD127800F124010A7000224A700122A1
:10097000EDE711684FF0FF32E9E700002DE9FF5F76
:1009800015468A460446DFF8AC80F8440027D8E9CB
:1009900000103E46CDE9001010E03AF816106A4605
:1009A00002A800F0F9FC411C07D02178890603D584
:1009B000E269391891420DD80744761C20788006E8
:1009C00002D5E069B84205DDAE42E6DB3AF8160032
:1009D0000028E2D1A069C01BA0612046FFF700FDFE
:1009E000D8E90010CDE90010002017E03AF81810FF
:1009F0006A4602A800F0D0FCB0F1FF3F81460BD060
:100A000000250DF1080B05E0D4E901211BF80500D4
:100A100090476D1C4D45F7D308F10100B042804668
:100A2000E4DB206A384420622046FFF7EFFCBDE893
:100A3000FF9F0000326F00002DE9F0418046D21D7B
:100A400022F007020025D2E90002F52915A614D0EC
:100A5000011E72F1000106DA0023D0EB030063EB04
:100A6000020211A608E0D8F800108B0701D50FA6E6
:100A700002E0490701D50EA601251146002408F120
:100A8000240704E000F0A2F830323A55641C50EA22
:100A90000102F7D12B46324621464046BDE8F041DF
:100AA000FFF7CBBE000000002D0000002B0000006F
:100AB0002000000030B4002100F1240408E002F01E
:100AC0000705D208303542EA4372DB086554491CF9
:100AD00052EA0305F3D10468002310A2250707D5C5
:100AE000A40600D421B1C46901230DA2641EC4610F
:100AF00030BCFFF7A2BE10B5044621461068FFF7D0
:100B000093FE02462046BDE810400023D2E7D21DE6
:100B100022F00701D1E90023CCE70000000000002B
:100B20003000000010B5203AC0F00B80B1E818503A
:100B3000203AA0E81850B1E81850A0E81850BFF4C7
:100B4000F5AF5FEA027C24BFB1E81850A0E8185066
:100B500044BF18C918C0BDE810405FEA827C24BFBA
:100B600051F8043B40F8043B08BF7047D20728BF48
:100B700031F8023B48BF11F8012B28BF20F8023B97
:100B800048BF00F8012B70474FF000020429C0F065
:100B9000128010F0030C00F02184CCF1040CBCF1A5
:100BA000020F18BF00F8012BA8BF20F8022BA1EB01
:100BB0000C0100F013BC5FEAC17C24BF00F8012BDC
:100BC00000F8012B48BF00F8012B704730B5B0F199
:100BD0000A024FEA900E71F100034EEA817EB0EBFB
:100BE0000E0061EB91014FEA101E4EEA017E10EB00
:100BF0000E0041EB11114FEA102E4EEA016E10EB80
:100C00000E0041EB11214FEA104E4EEA014E10EB5F
:100C10000E0041EB1141401841F100014FEAD000B4
:100C200040EA41704FEAD10110EB80054FEA8104A0
:100C300044EA907444EB01046D1944EB0404521B24
:100C4000A3414FF0000348BF0A3200D530BD401C1D
:100C500041F1000130BD70472DE9FF4F0C461E46A3
:100C60004FF0FF378BB0D2E90001DDF860800A90C9
:100C70008A46C1F30A5505B93D46002108464FF0A2
:100C80000000BAF1000F00F4400005DA00EB80002C
:100C90004FF4400101EA50004FEA9059B9F1010FB9
:100CA00000DDB9460A9850EA4A000ED044F61050CA
:100CB000A5F2FF3545432F14B8F1000F1ED0754241
:100CC000291E1EDDC9F100021CE0B8F1010F4FF032
:100CD000000001D0302103E0F24305E02154401C24
:100CE000B042FBDB30460022002121540B99C1F8B1
:100CF0000880C1E900200FB0BDE8F08FBD1B6D1C5E
:100D0000DEE74A4600DA694206A800F0FDFB06ABC2
:100D100093E8070003AB83E8070050460A9900F008
:100D2000B6FC8DE80700A0F500501F38009003982E
:100D3000002D09DD42F21F014A46084403A9039031
:100D4000684600F015FF08E0A0F500504A461F383D
:100D500003A90390684600F01FFF8DE80700000418
:100D6000000C03D04FF0FF30410800E01046B8F10E
:100D7000000F03D00022009215461EE0751E05D418
:100D8000FFF724FF303262556D1EF9D5B3460122BC
:100D9000084302D000227F1C04E02078302801D1D3
:100DA00000227F1E002A099786D01DE0112D07DA48
:100DB000FFF70CFF303262556D1C50EA0102F5D18D
:100DC000084302D00098C8B10EE00021681E05E07B
:100DD000235C625C63542254401E491C8142F7DB51
:100DE000AB46A81B401E0990002004F80B000B988E
:100DF000099AC0F80880C0E9002B7CE711264FF063
:100E0000000859E72DE9F04F88460446D21D22F02C
:100E1000070191B0D1E90001CDE90A0102F021FEFC
:100E200002460B98C00F01D02D2007E020688107F3
:100E300001D52B2002E0202101EAC000032A0990FD
:100E400001D0072A05DB03464146204600F01CFB83
:100E50000BE12078800601D5E06900E00620B8F1BA
:100E6000650F814606D0B8F1660F18D0B8F1670F4C
:100E700070D131E00020B9F1110F009001DB112396
:100E800001E009F101030AAA01A90CA8FFF7E4FE99
:100E9000DDE90C70002609F10105834647E00120D9
:100EA0004B4600904FF000470AAA01A90CA8FFF793
:100EB000D3FEDDE90DB00C995D46002610B909F1AD
:100EC00001000D18B9EB050003D4C0F1FF3609F19C
:100ED0000105A5EB09002BE0B9F1010F01DA4FF094
:100EE00001090020B9F1110F0090484601DD1123DE
:100EF00000E003460AAA01A90CA8FFF7ADFEDDE950
:100F00000C704D4600268346207800070AD4AB4576
:100F100000DA5D4601A8012D04DD411911F8011C1C
:100F2000302907D04F4502DA17F1040F04DA012007
:100F300082460FE06D1EEEE7002F02DCED1B3E4403
:100F400003E0781CA84200DD7D1CB81B00F1010AFB
:100F50004FF000472078000703D4AA4501DB4FF08B
:100F6000FF3A0021B7F1004F0DF143088DF843100F
:100F700024D002202B23002F01DA7F422D230A21C7
:100F8000021EA0F1010000DC5FB197FBF1FC97FBB2
:100F9000F1F201FB1C7C17460CF1300C08F801CD76
:100FA000EEE7A8F1010003702188090501D545216C
:100FB00000E06521A0F1010800F8011C09980FA9C3
:100FC000A1EB0807FF1D00B10120411901EBEA70F8
:100FD000A1693844081A401EA0612078C00602D4D6
:100FE0002046FFF7FDF9099828B1D4E9012190477F
:100FF000206A401C20622078C00622D52046FFF7D8
:10100000EFF91EE0002E04DBB34502DD01A8805D90
:1010100000E03020D4E901219047206A401C206282
:10102000761CAAF101005FEA000A0AD100F028FA52
:10103000C0680168405CD4E901219047206A401CE7
:101040002062281EA5F10105DCDC07E0D4E90121BE
:1010500018F8010B9047206A401C2062381EA7F147
:101060000107F3DC2046FFF7D1F9032011B043E676
:101070002DE9F04F04460D46D21D22F0070089B03D
:10108000D0E900974846394602F0EBFC0246F80FDB
:1010900001D02D2307E02068810701D52B2302E032
:1010A000202101EAC0038DF820300BB1012000E0BF
:1010B0000020032A824601D0072A04DB2946204665
:1010C00000F0E2F93FE12078800601D40D2500E030
:1010D000E569C7F30A560D2D49DA00214FEA175B7F
:1010E00008464FF00000002F00F4400007DA00EB44
:1010F00080004FF4400100EBD07001EA60008115E0
:10110000012901DD4FF0FF3100224FEA850CBCF1CF
:10111000180F06D31346ACF118004FF08052C240AE
:1011200003E04FF4801323FA0CF30CF10C0CBCF128
:10113000200F04D3ACF1200C09FA0CF001E007FAFF
:101140000CF000294FF0004801DD18B90FE00ED176
:1011500040450CD319EB02095F4121B9404502D14A
:101160009F4329EA0209BBEB175F00D0761C208859
:10117000000502D57B48784402E07A487844193863
:1011800008AA302302F80A30037C0AF10101002E7C
:101190000AF1020A53546A4602DC4FF0300101E0C2
:1011A0004FF031014FF001088DF8001002D0A6F287
:1011B000FF3603E059EA470100D06B4E002D02DCF8
:1011C0002178090704D54FF002082E218DF801106F
:1011D000C44600210BE0C7F303433F01C35C491C35
:1011E0006D1E02F80830052908F1010801DA002D0A
:1011F000F1DC00210CE000EB1973491C1B786D1E1B
:10120000082902F808304FEA091908F1010801DA43
:10121000002DF0DC21688B0602D516E0A8F101084C
:10122000E04505DD02EB080313F8013C302BF5D057
:10123000B8F1000F09DD02EB080313F8013C2E2B77
:1012400003D1090701D4A8F10108002D05DD3E21D5
:1012500002F808106D1E08F10108407C002E02F80B
:10126000080008F1010804DA2D20764202F808008F
:1012700002E02B2002F808000A214FF47A7086421F
:1012800008F101080BDB96FBF0F3303302F808306D
:1012900096FBF0F308F1010800FB136601E0642EF1
:1012A0000CDB642096FBF0F3303302F8083096FB39
:1012B000F0F308F1010800FB136601E00A2E06DBDB
:1012C00096FBF1F0303002F8080008F1010896FBB7
:1012D000F1F001FB1060303002F80800A16908F15C
:1012E000010808EB050202EB0A00081AA061207849
:1012F000C00602D42046FFF773F8216A08AE01EB5E
:101300000A00206204E0D4E9012116F8010B90479D
:10131000BAF1010AF7D22078C00602D52046FFF7BD
:101320005FF86E4609E016F8010B3E280FD0D4E9AD
:1013300001219047206A401C2062B8F10108F2D2D6
:101340002046FFF763F809B00320BDE8F08F206A5C
:101350002844206203E0D4E90121302090476D1E2B
:10136000EBD3F8E76167000002FCFFFF10B54369AB
:1013700013B1AFF3008001E0FFF700FB012010BDC7
:10138000128800F1240182840022C2840122EDE748
:1013900011684FF0FF32E9E770B516460C46054676
:1013A00000F066F8036893F80101012806D0FF2CCD
:1013B0000FD8185D68B101202C7070BDD3F80701FB
:1013C0003246214603F2071303442846BDE8704025
:1013D00018474FF0FF3070BD4FF0000200B51346C4
:1013E00094469646203922BFA0E80C50A0E80C5045
:1013F000B1F12001BFF4F7AF090728BFA0E80C50F6
:1014000048BF0CC05DF804EB890028BF40F8042BEE
:1014100008BF704748BF20F8022B11F0804F18BF5B
:1014200000F8012B7047754600F0E6F8AE4605005F
:101430006946534620F00700854618B020B5FEF7F0
:1014400095FFBDE820404FF000064FF000074FF039
:1014500000084FF0000B21F00701AC46ACE8C009D2
:10146000ACE8C009ACE8C009ACE8C0098D467047DB
:1014700010B500F005F8001D10BD00BFF55C0000C0
:1014800000487047205C00202DE9F0411F460446CB
:1014900003260168072A01F4006004DB08B116A5E1
:1014A00005E016A503E008B115A500E015A521F09B
:1014B00010002060A069C01EA0610FB1401EA06195
:1014C0002046FEF78DFF4FB1D4E901213846904701
:1014D000206A401C2062C01C206206E0206AFAE7F5
:1014E000D4E9012115F8010B9047761EF8D2204669
:1014F000FEF78CFFBDE8F0814E414E006E616E003C
:10150000494E4600696E66002DE9F0478146164651
:101510008AB0334878440DC88DE80D0030487844CF
:10152000801C03AC0DC884E80D0041F69B300844D4
:10153000372190FBF1F290FBF1F5A5F1800501FB5D
:1015400012041B3C02D56442012000E00020DFF8B9
:1015500090A080460027FA44AAF1BE0A0DE0E007F9
:1015600009D03246684607EB47010AEB810100F0DB
:1015700013FB8DE8070064107F1C002CEFD1184F7F
:101580007F44AC3F18E0E80714D007EB04100DF1DE
:10159000180A90E80E008AE80E00C068F04201D1F7
:1015A00098190890324606A903A800F0F5FA03AB93
:1015B00083E807006D10641C002DE4D132466946B3
:1015C000B8F1000F03A802D000F0D2FA01E000F059
:1015D000E3FAC9E90001C9F808200AB0BDE8F087BC
:1015E0005464000010B50446AFF300802046BDE807
:1015F0001040FEF75ABE000000487047005C002013
:101600004FF0013C50F8042B51F8043B9A4221D191
:10161000A2EB0C03934313EACC1317D150F8042B1D
:1016200051F8043B9A4215D1A2EB0C03934313EA01
:10163000CC130BD150F8042B51F8043B9A4209D13A
:10164000A2EB0C03934313EACC13DBD04FF0000062
:10165000704700BFD01A01BAB1FA81F101F0180148
:1016600022FA01F0CB40C1F12001DBB2C0B2C01AB6
:101670002CFA01F3D11A914311EAC311E6D1704754
:1016800001491820ABBEFEE72600020070475FEA62
:10169000400C08BF91F0000F4FEA8C234FEAC122A3
:1016A00043EA51514FEA1C5018BF00F5F0404FEA91
:1016B000300018BF41F000415FEA6C5C00F0298007
:1016C000BCF1FF3F08BF40F080407047130C06BFDD
:1016D00012044FF0100C4FF0000C130E04BF120256
:1016E0000CF1080C130F04BF12010CF1040C930F42
:1016F00004BF92000CF1020CD30F04BF52000CF196
:10170000010C11464FF00002A0F11F00A0EB0C00ED
:10171000704711F0004F08BF704731F000413FF4AF
:10172000D5AF0B0C06BF09044FF0100C4FF0000CA6
:101730000B0E04BF09020CF1080C0B0F04BF0901CA
:101740000CF1040C8B0F04BF89000CF1020CCB0FC1
:1017500004BF49000CF1010CCCF12003A0EB0C00FC
:1017600022FA03F302FA0CF241EA030100F101004C
:10177000704720F07F4C80EA030023F07F47ACEBFA
:10178000070303F57C5300F0004003F1FF032DE94C
:1017900080494FEA154B09B44FEA144325EA0B4E32
:1017A00024EA03480FF2042606EB132749083E7883
:1017B0005FEA320203FB0667C7F5000707FB06F680
:1017C0004FEA54374FEAD64606F1020607FB066C8D
:1017D000CCF1005C4FEA1C472CEA074C07FB06F4EF
:1017E0000CFB06F504EB15464FEA961634BF0020B5
:1017F0004FF000404FEAD13706FB07FC4FEA1C4C84
:101800000CFB0BF7D21B03FB0CF761EB07010CFB86
:101810000EF7B0EB074072EB17420CFB08F734BF32
:10182000A2EB0742B2EB074261EB17414FEA0C44CF
:101830004FEA910706FB07FC4FEA1C4C0CFB0BF729
:10184000B0EBC74072EB573203FB0CF734BFA2EB8F
:10185000C742B2EBC74261EB57310CFB0EF7B0EB5E
:10186000C70072EB57720CFB08F734BFA2EBC7023C
:10187000B2EBC70261EB5771039F4FEA816141EA06
:10188000921104EBCC044FEAD1374FEA826206FB97
:1018900007FC42EA90124FEA80604FEA1C4C0CFBB6
:1018A0000BF7D21B03FB0CF761EB07010CFB0EF7E8
:1018B000B0EB074072EB17420CFB08F734BFA2EB0A
:1018C0000742B2EB074261EB17414FEA8C554FEAF2
:1018D000910704EB9C2406FB07FC4FEA1C4C0CFB15
:1018E0000BF7B0EBC74072EB573203FB0CF734BF7A
:1018F000A2EBC742B2EBC74261EB57310CFB0EF7CC
:10190000B0EBC70072EB57720CFB08F734BFA2EBC9
:10191000C702B2EBC70261EB577115EB4C254FEADA
:10192000816141EA92114FEA82624FEAD13742EA7D
:10193000901206FB07FC44F100044FEA80604FEA76
:101940001C4C0CFB0BF7D21B03FB0CF761EB0701E4
:101950000CFB0EF7B0EB074072EB17420CFB08F7DD
:1019600034BFA2EB0742B2EB074261EB174115EB24
:101970001C154FEA813141EA92414FEA823242EA34
:1019800090424FEA80304FEA0C7644F1000448EA76
:1019900003434EEA0B484FF0000EB2EB080C71EB1C
:1019A000030724BF624639464EEB0E0E4FF0000B84
:1019B0000018524149414BEB0B0BB2EB080C71EB99
:1019C00003077BF1000B24BF624639464EEB0E0E37
:1019D0004FF0000B0018524149414BEB0B0BB2EB9F
:1019E000080C71EB03077BF1000B24BF62463946FC
:1019F0004EEB0E0E51EA020718BF46F0010616EB39
:101A00000E7655F1000254F1000103D5BDE88901BD
:101A1000BDE80088BDE88901BDE80048B61952411B
:101A200041EB0101A3F10103704780807F7E7D7C43
:101A30007B7A7978777676757473727171706F6E60
:101A40006E6D6C6C6B6A6A6968686766666564640B
:101A5000636362616160605F5F5E5E5D5D5C5C5B95
:101A60005B5A5A5959585857575656555555545404
:101A7000535352525251515050504F4F4F4E4E4D62
:101A80004D4D4C4C4C4B4B4B4A4A4A4949494848AE
:101A900048474747474646464545454444444443EE
:101AA00043434342424242414141002B26D4770006
:101AB00021D01CB54FEA370703B44FF010004FF0A8
:101AC00010014FF000000FBCBDE810400BF1010BFE
:101AD000BBF1010F08BF5FEA170722BF12F1010235
:101AE00011F101014FF0004143F1000300F000400B
:101AF00043EA00007047F9D35708DAE746EA06469A
:101B000013F1400F4FEA16461FDD13F1200FDFBF20
:101B100016430A46002120335B42C8D0C3F1200798
:101B200046EA064602FA07F74FEA164646EA07066D
:101B3000C3F1200722FA03F201FA07F721FA03F1B1
:101B40004FF0000342EA0702B1E746EA020646EA1E
:101B500006464FEA164646EA0106BCBF46EA064676
:101B6000360C4FF000034FF000024FF000019EE7EB
:101B70002DE9C048934630B491E8380007C831EAEF
:101B8000400C48BF34EA430C03D5FFF7F2FDFFF7E2
:101B90008CFFF0BCBDE800882DE9C048934630B406
:101BA00091E8380007C810F0804F08BF13F0804F4D
:101BB00003D100F005F8FFF778FFF0BCBDE800881E
:101BC00020F07F4780EA030023F07F4C07EB0C03F3
:101BD000A3F57C5300F00040A3F1FE0392F0000F48
:101BE00000F0B38095F0000F00F077802DE90149F7
:101BF0004FEA11404FEA144621EA004800FB06FC78
:101C000024EA064708FB06F607FB08F800FB07F77F
:101C100018EB06484CEB164C4FEA124B18EB0748F2
:101C20004FEA15464CEB174022EA0B4E0BFB06FC25
:101C300025EA06470EFB06F607FB0EFE0BFB07F731
:101C40001EEB064E4CEB164C4FF000061EEB074EFB
:101C50004CEB174B18EB0B0840F1000018EB0E0B88
:101C600058EB000840F100008F1A4FF000013CBF14
:101C7000C943661B14BFB5EB040C00213CBFC9432C
:101C8000F61B4FEA17444EEA8E0E27EA04454FEA48
:101C90001C4704FB07622CEA074C05FB07F70CFB0B
:101CA00005F604FB0CFC16EB074642EB174216EB5D
:101CB0000C4642EB1C421BEB060658EB020241416C
:101CC00046EA9E0601D5BDE80189B619524141EBAD
:101CD0000101A3F10103BDE801894FEA14454FEA70
:101CE000114724EA054621EA074C05FB07F406FBE9
:101CF00007F70CFB06F105FB0CFC11EB074144EB6D
:101D000017444FEA124711EB0C4144EB1C4422EA02
:101D1000074C05FB07F206FB07F70CFB06F605FB75
:101D20000CFC16EB074642EB174216EB0C4642EB57
:101D30001C456A1854F1000148BF7047B61952415A
:101D400041EB0101A3F10103704795F0000F37D07B
:101D50004FEA11424FEA144721EA024624EA074CAF
:101D600002FB07F106FB07F70CFB06F402FB0CFC79
:101D700014EB074441EB17414FEA154714EB0C44B1
:101D800041EB1C4125EA074C02FB07F506FB07F770
:101D90000CFB06F602FB0CFC16EB074645EB174561
:101DA00016EB0C4645EB1C42121951F1000148BFDD
:101DB0007047B619524141EB0101A3F1010370478D
:101DC0004FEA14454FEA114724EA054621EA074C39
:101DD00005FB07F106FB07F70CFB06F24FF00006C8
:101DE00005FB0CFC12EB074241EB174112EB0C42D6
:101DF00051EB1C4148BF7047921841EB0101A3F120
:101E00000103704710B504462CB900200E498871B3
:101E10000E49C8700FE0012C03D108200A4948710F
:101E200004E0022C02D10C20074948710120064928
:101E300088710649C87006480470034800F00AFD1E
:101E4000024801F085F810BD640100206C010020FB
:101E50007101002008B50121082001F0EBF84FF4D2
:101E60008070ADF8000010208DF8030003208DF87D
:101E700002006946044800F057FD4FF480710248A3
:101E800000F02FFE08BD0000000C014010B5032239
:101E90000021012004F0F2FB02490860024800F032
:101EA00005F810BDA4000020354C00080149086069
:101EB00070470000B400002000BFFEE710B500210D
:101EC000837A012202FA03F13D4A126842F00102CC
:101ED0003B4B1A603A4A1C3212688A43384B1C3317
:101EE0001A60027BCAB9364A0C3212688A43344BF4
:101EF0000C331A604288C38842EA0343304A4032B6
:101F0000847A42F834300288838842EA03432C4AB8
:101F10004032847A02EBC4025360027B012A19D159
:101F2000274A0C3212680A43254B0C331A60428848
:101F3000038842EA0343224A4032847A42F834302A
:101F4000C288838842EA03431D4A4032847A02EB06
:101F5000C4025360C27A3AB9194A121D12688A4300
:101F6000174B1B1D1A6006E0154A121D12680A4322
:101F7000134B1B1D1A60028932B9114A14321268C0
:101F80008A430F4B14331A600289012A06D10C4A86
:101F9000143212680A430A4B14331A60427B012A36
:101FA00006D1074A1C3212680A43054B1C331A60DB
:101FB000034A126822F00102014B1A6010BD0000B2
:101FC0000066004030B5024600200023146824F06B
:101FD00002041460146844F00104146000E05B1C07
:101FE000546804F001041CB94FF6FF74A342F6D103
:101FF000546804F001040CB900206CE08C79012CC9
:1020000004D1146844F08004146003E0146824F0E0
:1020100080041460CC79012C04D1146844F040048D
:10202000146003E0146824F0400414600C7A012C5E
:1020300004D1146844F02004146003E0146824F010
:10204000200414604C7A012C04D1146844F010046C
:10205000146003E0146824F0100414608C7A012CDE
:1020600004D1146844F00804146003E0146824F0F8
:1020700008041460CC7A012C04D1146844F00404E0
:10208000146003E0146824F0040414608C78A4073E
:10209000CD7844EA05640D7944EA05444D7944EA73
:1020A00005540D886D1E2C43D461146824F001047E
:1020B0001460002300E05B1C546804F001041CB1B0
:1020C0004FF6FF74A342F6D1546804F001040CB13A
:1020D000002000E0012030BD0246002019B9D3687D
:1020E00003F0030006E0012903D1136903F00300A4
:1020F00000E00020704700002DE9F04788B0064658
:102100000F4690469946DDF840A0364D6FF060448A
:102110000121042000F08EFF0121480600F06AFF33
:102120004FF48050ADF81C0003208DF81E001820DD
:102130008DF81F0007A92C4800F0F6FB4FF4006053
:10214000ADF81C0048208DF81F0007A9264800F0B4
:10215000EBFB00208DF816008DF817008DF81800A5
:1021600001208DF8190000208DF81A008DF81B0051
:102170008DF812A08DF813608DF814808DF815700D
:10218000ADF8109004A91948FFF71CFF00208DF846
:102190000A008DF80B0001208DF80C00680BADF8DB
:1021A0000000601300EAC500001DADF802002C40DD
:1021B000E4004FF6FF7000EA1440ADF80400A0B24E
:1021C00040F00200ADF806000020ADF80800012044
:1021D0008DF80D006846FFF771FE002008B0BDE8DD
:1021E000F08700000010F810000801400064004073
:1021F00010B500F5D87303EB01131B6803F004035B
:102200001372137A53B900F5D87303EB01131B68EB
:1022100040F2FF7404EA5353136009E000F5D873E9
:1022200003EB01131B686FF0604404EAD3035360AF
:1022300000F5D87303EB01131B6803F0020353721C
:1022400000F5D87303EB01135B6803F00F0393727F
:1022500000F5D87303EB01135B681B0AD37400F518
:10226000D87303EB01139B68D37200F5D87303EBAB
:1022700001139B681C0A147300F5D87303EB011358
:102280009B681C0C547300F5D87303EB01139B6817
:102290001B0E937300F5D87303EB0113DB68D37344
:1022A00000F5D87303EB0113DB681C0A147400F506
:1022B000D87303EB0113DB681C0C547400F5D8735E
:1022C00003EB0113DB681B0E937421B9C36843F061
:1022D0002003C36003E0036943F02003036110BDE2
:1022E00010B502460020936803F08063B3F1806F5D
:1022F00000D110E0936803F00063B3F1006F01D1E7
:10230000012008E0936803F08053B3F1805F01D1AE
:10231000022000E00420042874D002F5C07303EB0F
:1023200000131B6803F0010402F5C07303EB0013F4
:102330001C600B7A7BB94B7A0C8843EA445302F554
:10234000C07404EB00142468234302F5C07404EB4A
:102350000014236010E00B7A4C6843EAC4034C7A03
:10236000234302F5C07404EB00142468234302F5F0
:10237000C07404EB001423608B7A03F00F038B729C
:1023800002F5C07303EB00135B6823F00F0402F542
:10239000C07303EB00135C6002F5C07303EB001322
:1023A0005B688C7A234302F5C07404EB001463600D
:1023B0008B7B1C064B7B44EA03440B7B44EA0323E0
:1023C000CC7A234302F5C07404EB0014A3608B7C29
:1023D0001C064B7C44EA03440B7C44EA0323CC7B7D
:1023E000234302F5C07404EB0014E36002F5C073EC
:1023F00003EB00131B6843F0010402F5C07303EB09
:1024000000131C6010BD000010B50246002321B16E
:10241000012907D002290FD109E090681D4C00EA7C
:1024200004030BE090681C4C00EA040306E090688B
:102430001A4C00EA040301E0002300BF00BF184C5F
:10244000181BA34216D007DC83B16FF080601844DC
:1024500070B1022818D111E0B0F5007F10D0114CF6
:10246000204448B1B0F5003F0ED10BE002230DE04F
:1024700000230BE0002309E0002307E0012305E02F
:10248000012303E0012301E0002300BF00BFD8B215
:1024900010BD00000300000400030008000003104A
:1024A000000100080001FFF770B586B005460E4632
:1024B00000210D48FFF710FE10B9002006B070BDD6
:1024C00001AA00210848FFF793FE0298306000241B
:1024D00004E00DF10F00005D2855641C082CF8D3B2
:1024E0009DF80E00EAE70000006400402DE9F0418D
:1024F00086B00746884615460024029704208DF8CA
:102500000C0000208DF80D008DF80E5000BF06E085
:1025100018F804100DF10F000155601C84B2AC4294
:10252000F6DB01A90D48FFF7DBFE0646002401E0BB
:10253000601C84B231460948FFF766FF18B940F6BF
:10254000FF708442F4DB40F6FF70844203DB01201D
:1025500006B0BDE8F0810020FAE70000006400400A
:1025600010B5202000F0CCF8012806D10021034846
:1025700000F014F8202000F003F810BD1C00024009
:1025800000F0805111B10349086001E00249486040
:1025900070470000040402400000024021B10268BC
:1025A00042F00102026004E002684FF6FE731A4036
:1025B0000260704701684FF6FE7211400160002111
:1025C000016041608160C1604B49884208D14A493D
:1025D0000839496841F00F01474A083A51608AE0DA
:1025E00045491431884208D143490839496841F0C6
:1025F000F001414A083A51607DE03F492831884264
:1026000008D13D490839496841F470613A4A083AAD
:10261000516070E038493C31884208D13649083968
:10262000496841F47041344A083A516063E03249E4
:102630005031884208D130490839496841F4702145
:102640002D4A083A516056E02B496431884208D13E
:1026500029490839496841F47001274A083A51600C
:1026600049E025497831884208D123490839496829
:1026700041F07061204A083A51603CE01F498842AD
:1026800006D1011F096841F00F01021F116032E0FD
:102690001A491431884208D11849091F096841F0C4
:1026A000F001164A121F116025E0144928318842B2
:1026B00008D11249091F096841F470610F4A121FBD
:1026C000116018E00D493C31884208D10B49091FBF
:1026D000096841F47041094A121F11600BE0074973
:1026E0005031884207D10549091F096841F470211A
:1026F000024A121F1160704708000240080402409D
:1027000001460020002201F0805313B1054B1A68E6
:1027100001E0054B1A6802EA01030BB1012000E059
:102720000020704700040240000002401AB1036814
:102730000B43036002E003688B430360704710B5EE
:102740000022026847F6F0739A430C6A8B682343B1
:102750000C6923434C6923438C692343CC6923438D
:102760004C6A23438C6A23431A430260CB6843605C
:102770000B6883604B68C36010BD41607047704751
:1027800010B5102000F052F880B3194800780128E5
:102790000CD118480078012803D100201649088080
:1027A00000E000BF02201249087018E010480078CD
:1027B000022814D10F480078012806D10E4800885D
:1027C00040F400400C49088006E00A4800780228DE
:1027D00002D101200749087001200549087004480A
:1027E0000078FFF70FFB102000F01AF810BD000072
:1027F00071010020700100207401002010B54020FC
:1028000000F014F8012808D10448006810B103480A
:1028100000688047402000F003F810BDB0000020A1
:10282000014908607047000014040140014600207F
:102830000022074B1B6803EA0102054B14331B6897
:102840000B4013B10AB1012000E0002070470000E6
:1028500000040140002123498279002A3AD00A4627
:10286000126803689A430B461A600A1D12680368CF
:102870009A430B1D1A60027911440A6803681A43CF
:102880000A60184A0832126803689A43154B0833E5
:102890001A601A1D126803689A43124B0C331A60AF
:1028A0004279102A0ED11A1F126803681A430D4B81
:1028B00008331A601A1D126803681A43094B0C3357
:1028C0001A600DE00749427911440A6803681A4307
:1028D0000A6005E0027911440A6803689A430A60B5
:1028E000704700000004014030B500228B071C0F28
:1028F0000F2303FA04F20B4B8C1053F8243093434C
:10290000084C8D1044F8253023468C1053F82430A1
:102910008C07240F00FA04F42343024C8D1044F872
:10292000253030BD080001402DE9F0410246002568
:102930000026002000230024002791F803C00CF09B
:102940000F0591F803C00CF0100CBCF1000F03D080
:1029500091F802C04CEA050591F800C0BCF1000FE7
:1029600031D0146800202BE04FF0010C0CFA00F37A
:10297000B1F800C00CEA03069E4220D183004FF05C
:102980000F0C0CFA03F7BC4305FA03FC4CEA0404F1
:1029900091F803C0BCF1280F06D14FF0010C0CFADE
:1029A00000FCC2F814C00AE091F803C0BCF1480F63
:1029B00005D14FF0010C0CFA00FCC2F810C0401C0D
:1029C0000828D1D31460B1F800C0BCF1FF0F34DD8A
:1029D000546800202EE000F1080C4FF0010808FABE
:1029E0000CF3B1F800C00CEA03069E4221D183002B
:1029F0004FF00F0C0CFA03F7BC4305FA03FC4CEA4A
:102A0000040491F803C0BCF1280F05D100F1080CB3
:102A100008FA0CF8C2F8148091F803C0BCF1480F12
:102A200007D100F1080C4FF0010808FA0CF8C2F8C1
:102A30001080401C0828CED35460BDE8F08100000F
:102A4000F0B50A46002300240021002500F00046CE
:102A5000B6F1004F02D11D4EF16901E01B4E7168C5
:102A6000C0F3034583B200F44016B6F5401F08D109
:102A700021F07061154E766826F07066134F7E6007
:102A800012E000F48016B6F5801F06D1032606FA80
:102A900005F4A14341F0706106E0460D360103FAEA
:102AA00006F6B14341F0706122B1460D360103FADA
:102AB00006F6314300F00046B6F1004F02D1034E56
:102AC000F16101E0014E7160F0BD000000000140C5
:102AD0000246002093680B400BB1012000E000206B
:102AE0007047416170470161704700BFFEE7000019
:102AF00008B50121442000F09DFA1820ADF800002F
:102B000048208DF8030069460648FFF70DFF0120B5
:102B1000ADF8000028208DF8030069460248FFF751
:102B200003FF08BD001801400008014008B501215D
:102B3000482000F07FFA2020ADF8000010208DF82A
:102B4000030003208DF8020069460948FFF7ECFEF8
:102B500020210748FFF7C7FF2020ADF80000694695
:102B60000448FFF7E1FE20210248FFF7BCFF08BD43
:102B7000000C01400018014038B500240125012156
:102B8000042000F057FA0121084600F053FA012111
:102B90003148FFF755FFE803ADF8000010208DF82D
:102BA000030003208DF8020069462C48FFF7BCFEA5
:102BB0001020ADF8000028208DF8030003208DF8C8
:102BC000020069462548FFF7AFFE04210020FFF709
:102BD0008BFE1020224908600020087108204871EF
:102BE000002088710846FFF735FE0A201D4908704D
:102BF00002204870032088700020C870084600F04A
:102C0000A7F90020184908601849C1F8100100BF51
:102C10001548AC3800680028FAD14FF4E13002F0D2
:102C2000F3F8012010490860282000F081FF0324F8
:102C300007E046220EA10FA001F012F808B9002506
:102C400004E0201EA4F10101CCB2F2D100BF04B90E
:102C50000125284638BD0000000230000008014070
:102C6000640100206C010020BC01214200002142CF
:102C70004F4B00004154000030B585B000250021C5
:102C8000072002F045F9012002F026F900BF3E4876
:102C900000680028FBD101203B49AC3108602820A6
:102CA00000F046FF00203949087039480088040ABE
:102CB000374805782B46224636A16846FDF77AFB51
:102CC000322239A1684600F0CBFF3148037982787F
:102CD00036A16846FDF76EFB322233A1684600F04C
:102CE000BFFF2B48C27835A16846FDF763FB32224F
:102CF0002DA1684600F0B4FF2548827933A16846CB
:102D0000FDF758FB322228A1684600F0A9FF2048B1
:102D1000C27932A16846FDF74DFB322222A16846F6
:102D200000F09EFF1A4842792FA16846FDF742FB4A
:102D300032221DA1684600F093FF1548437A027ABB
:102D40002DA16846FDF736FB322217A1684600F038
:102D500087FF00202C49C1F8BC01282000F0E8FEC4
:102D600000BF094800680028FBD1284908800120DD
:102D700006490870064A517A107A02F0C9F8012013
:102D8000FFF740F805B030BD10012142700100206E
:102D90005801002041542B414444523D25303278A3
:102DA0002C253032780000004F4B000041542B5747
:102DB0004C524154453D25642C25640041542B540C
:102DC000504F5745523D25640000000041542B43AD
:102DD000574D4F44453D25640000000041542B549D
:102DE0004D4F44453D25640041542B574C54494DAB
:102DF000453D25640000000041542B554152543D8F
:102E000025642C256400000000002142740100208C
:102E100000BFFEE770B505460C46A01EC1B22846AD
:102E200000F03AFE0646A01E2E543112601E2954B0
:102E30002146284600F000FA70BD704700B589B001
:102E400001214FF4847000F0F5F80121880300F0AF
:102E5000D1F80121084600F0EDF84FF46040ADF8DC
:102E6000000003208DF8020018208DF80300694649
:102E70003248FFF759FD4FF4C070ADF80000102044
:102E80008DF8030069462E48FFF74EFD4020ADF84F
:102E9000000048208DF8030069462948FFF744FDEB
:102EA00006210846FFF720FD4020019000208DF804
:102EB00008000C208DF8090001208DF80A0001A8F7
:102EC000FFF7C8FC17208DF8200006208DF82100A0
:102ED00000208DF8220001208DF8230008A800F0C2
:102EE00037F80020ADF80C004FF48270ADF80E00FA
:102EF0000020ADF81000ADF81200ADF814004FF44A
:102F00000070ADF816001020ADF818000020ADF8E4
:102F10001A000720ADF81C0003A90A4800F0E6F9E2
:102F20000121084800F0C8F9012007490860002085
:102F30000649C1F8A00109B000BD0000000C014025
:102F400000200140003800409C012442000024423F
:102F500070B5002100230F22C47804B3154C2468F7
:102F600004F4E064C4F5E064210AC1F10403CA403A
:102F7000447804FA03F184781440214309010E4C8B
:102F80000678A155047804F01F050124AC400578AB
:102F90006D11AD0005F1E025C5F8004109E00478A8
:102FA00004F01F050124AC40044D0678761145F865
:102FB000264070BD0CED00E000E400E080E100E0A0
:102FC00002490143024A1160704700000000FA05FF
:102FD0000CED00E029B1064A52690243044B5A61E4
:102FE00004E0034A52698243014B5A617047000072
:102FF0000010024029B1064AD2690243044BDA614B
:1030000004E0034AD2698243014BDA617047000051
:103010000010024029B1064A12690243044B1A61AA
:1030200004E0034A12698243014B1A6170470000B1
:103030000010024029B1064A92690243044B9A618A
:1030400004E0034A92698243014B9A617047000091
:103050000010024029B1064AD2680243044BDA60EC
:1030600004E0034AD2688243014BDA6070470000F3
:103070000010024030B500210022002400232D4D15
:103080006D6805F00C0121B1042905D0082923D170
:1030900005E0294D056022E0274D05601FE0254D24
:1030A0006D6805F47012234D6D6805F480340225B7
:1030B00005EB92421CB9214D554305600BE01D4DB7
:1030C0006D6805F400351DB11C4D5543056002E0E7
:1030D000194D5543056002E0174D056000BF00BF64
:1030E000144D6D6805F0F0010909154D6B5C05681C
:1030F000DD4045600F4D6D6805F4E061090A104D33
:103100006B5C4568DD4085600A4D6D6805F4605173
:10311000C90A0B4D6B5C4568DD40C560054D6D68A7
:1031200005F44041890B074D6B5CC568B5FBF3F5B1
:10313000056130BD0010024000127A0000093D0018
:10314000300100204001002010B586B00446012166
:103150002420FFF76FFF01214804FFF74BFF802079
:10316000ADF8140010208DF8170003208DF816001C
:1031700005A92D48FFF7D8FB0420ADF8140018204E
:103180008DF8170005A92948FFF7CEFB0820ADF8F8
:10319000140004208DF8170005A92448FFF7C4FB8C
:1031A00001214804FFF736FF00214FF40030FFF7FC
:1031B00031FF01944FF48050ADF808000020ADF8C5
:1031C0000A004FF4C060ADF80C000020ADF810000C
:1031D0000C20ADF80E0001A9154800F0CBFB26200D
:1031E0008DF8000007208DF8010000208DF8020006
:1031F00001208DF803006846FFF7AAFE012240F285
:1032000025510B4800F091FB012240F2244108486F
:1032100000F08BFB0121064800F0ECFA0020054984
:10322000086006B010BD0000001401400008014015
:10323000004400409C81224270B505460E460120A4
:103240000F49086000240CE000BF40210D4800F049
:1032500035FB0028F9D0295D0A4800F0FCFB601C12
:10326000C4B2B442F0DB00BF4021064800F026FBA8
:103270000028F9D00020044908700149086070BD99
:103280009C81224200440040BC00002010B5032273
:103290000021012003F0F2F902490860024800F021
:1032A00005F810BD680000201D4C000801490860A9
:1032B00070470000B800002021B1028842F04002AF
:1032C000028004E002884FF6BF731A400280704704
:1032D0000246002013890B400BB1012000E00020C2
:1032E00070470146888970478181704710B5002278
:1032F000028802F441520B884C8823438C88234374
:10330000CC8823430C8923434C8923438C89234352
:10331000CC8923431A430280838B4FF2FF742340EE
:1033200083830B8A038210BD70B504460D4629467F
:103330002046FFF7D9FF00BF02212046FFF7C8FF54
:103340000028F9D000BF01212046FFF7C1FF002867
:10335000F9D02046FFF7C5FFC0B270BD10B500F030
:1033600001F810BD0CB500200190009033480068B2
:1033700040F480303149086000BF3048006800F4F4
:10338000003000900198401C0190009818B90198F5
:10339000B0F5A06FF1D12948006800F4003010B1F9
:1033A0000120009001E0002000900098012843D106
:1033B0002348006840F01000214908600846006872
:1033C00020F0030008600846006840F00200086032
:1033D0001A484068194948600846406848600846ED
:1033E000406840F4806048600846406820F47C10E3
:1033F00048600846406840F4E810486008460068A5
:1034000040F08070086000BF0C48006800F0007059
:103410000028F9D00948406820F0030007494860B7
:103420000846406840F00200486000BF034840681A
:1034300000F00C000828F9D10CBD0000001002407B
:1034400000200240042808D14FF0E021096941F032
:1034500004014FF0E022116107E04FF0E02109691B
:1034600021F004014FF0E0221161704710B503F024
:1034700015FC012801D003F0E7F810BD10B5134882
:10348000006840F001001149086008464068104992
:1034900008400E494860084600680E4908400B493C
:1034A00008600846006820F48020086008464068EC
:1034B00020F4FE0048604FF41F008860FFF74EFFC5
:1034C0004FF000600449086010BD00000010024089
:1034D0000000FFF8FFFFF6FE08ED00E010B5012147
:1034E000094800F054F868B10121074800F040F89D
:1034F0000648008840F40040044908800021024842
:1035000000F039F810BD00000014004074010020E4
:103510007FB505460C4601212020FFF76BFDADF875
:103520000450ADF800400020ADF80600ADF80200F0
:1035300069460E4800F048F8012211460B4800F099
:1035400037F80121094800F016F837208DF80C00F3
:1035500000208DF80D0002208DF80E0001208DF85E
:103560000F0003A8FFF7F4FC7FBD0000001400402B
:10357000CA430282704721B1028842F001020280F0
:1035800004E002884FF6FE731A400280704730B59F
:103590000246002000230024158A05EA01039589CC
:1035A00005EA010413B10CB1012000E0002030BD98
:1035B0001AB183890B43838102E083898B43838122
:1035C0007047818470470000002202881D4B98429A
:1035D0000ED01D4B98420BD0B0F1804F08D01B4B42
:1035E000984205D01A4B984202D01A4B984204D107
:1035F0004FF68F731A404B881A43174B984207D0E7
:10360000164B984204D04FF6FF431A40CB881A431A
:1036100002808B8883850B8803850A4B98420BD0E8
:10362000094B984208D00E4B984205D00D4B98425A
:1036300002D00D4B984201D10B7A0386012383827D
:1036400070470000002C014000340140000400409D
:1036500000080040000C0040001000400014004032
:1036600000400140004401400048014010B540F2D4
:1036700025511F4800F02FF988B11D4800F0E6F9E8
:10368000C4B21C480078402830DA1B481949097830
:10369000445418480078401C1649087026E040F24F
:1036A0002441134800F017F900B31021104800F02E
:1036B00005F930B10E480088C4B20D48001D0088DD
:1036C000C4B20D480078012806D10C48006868B1E2
:1036D0000A480068804709E007480078022805D1B9
:1036E0000748006810B106480068804710BD000018
:1036F00000440040BC0000200C020020B400002068
:10370000B800002010B58CB0044601210846FFF730
:1037100061FC0C208DF8000003208DF801000220D0
:103720008DF8020001208DF803006846FFF710FCB9
:103730001048FEF73FFF10480190029410200390BC
:1037400064200490002005908020069000200790BF
:10375000089009904FF400500A9000200B9001A9A6
:103760000448FEF7ECFF012202210248FEF7DEFFCB
:103770000CB010BD1C0002400448004010B540F2DF
:103780002551174800F0A7F810B3154800F05EF96E
:10379000C4B21448008800F40040C8B91148008839
:1037A000B0F5806F15DA1048007850B900210F4845
:1037B000FFF707FF0B48008818B901210B48FFF7F6
:1037C000DAFE08490888411C064A118008490C5451
:1037D00005E00448008840F400400249088010BD1C
:1037E00000480040740100207001002000140040D7
:1037F0009855002021B1828942F40052828104E070
:1038000082894DF6FF731A40828170471AB1838A0C
:103810000B43838202E0838A8B43838270470000DC
:1038200010B504462048844209D101218803FFF7DE
:1038300011FC00214FF48040FFF70CFC32E01B48E4
:10384000844209D101214804FFF7E4FB00214FF431
:103850000030FFF7DFFB25E01548844209D1012144
:103860008804FFF7D7FB00214FF48020FFF7D2FB3D
:1038700018E01048844209D10121C804FFF7CAFBAF
:1038800000214FF40020FFF7C5FB0BE00A488442FB
:1038900008D101210805FFF7BDFB00214FF480107E
:1038A000FFF7B8FB10BD00000038014000440040A5
:1038B00000480040004C00400050004002460020FC
:1038C000B1F5007F00D100BF13880B400BB1012080
:1038D00000E00020704770B5024600240023002558
:1038E000002040F66A16B14200D100BFC1F3421574
:1038F00001F01F03012606FA03F3012D02D1968978
:10390000334006E0022D02D1168A334001E0968A48
:1039100033400C12012606FA04F41688344013B121
:103920000CB1012000E0002070BDF0B5034600247A
:1039300000260025002040F66A17B94200D100BFDA
:103940001846C1F3421401F01F06012707FA06F5D5
:10395000012C01D10C3004E0022C01D1103000E028
:1039600014301AB107682F43076002E00768AF43BD
:103970000760F0BD2DE9F04786B005460E460024ED
:10398000A24600BFA1460027B08900B100BF2F4664
:103990002C8A4CF6FF700440F08804432C82AC89DA
:1039A0004EF6F3100440B08831890843718908430A
:1039B0000443AC81AC8A4FF6FF400440B089044315
:1039C000AC8201A8FFF756FB1F48874202D1DDF801
:1039D00010A001E0DDF80CA0A88900F4004040B17F
:1039E0000AEBCA0000EB0A1031684900B0FBF1F89D
:1039F00007E00AEBCA0000EB0A1031688900B0FB4F
:103A0000F1F86420B8FBF0F004012009642101FB07
:103A10001089A88900F4004040B1322000EBC900B1
:103A2000B0FBF1F000F00700044308E0322000EBA7
:103A300009106421B0FBF1F000F00F0004432C8169
:103A400006B0BDE8F08700000038014001468888D4
:103A5000C0F308007047C1F308028280704700BFBE
:103A6000FEE7490050EAC12018BF04204A0D18BFE4
:103A700040F0010040F2FF72B2EB515F08BF40F02E
:103A80000200012808BF0520704730380A2801D2FB
:103A9000012070470020704730B502460B464FF6B4
:103AA000FF7011E012F8014B604000210AE000F0C5
:103AB000010424B14AF2010484EA600000E04010ED
:103AC0004C1CE1B20829F2DB1C1EA3F10105EBB28C
:103AD000E8D130BD10B50420FFF7B4FC10480068F1
:103AE0001049B0FBF1F0104908700D4800680D490D
:103AF000B0FBF1F44FF47A70444301200B49088085
:103B00004FF0E020006940F002004FF0E021086132
:103B100008464461006940F00100086110BD0000E2
:103B20004401002040420F00BE000020C0000020E1
:103B300030B50446002504E04FF47A7000F004F834
:103B40006D1CA542F8D330BD70B5034600224FF07E
:103B5000E02675690D4E367803FB06F44FF0E0263B
:103B6000B16910E04FF0E026B06988420BD088427E
:103B700002D20E1A324402E02E1A0E44324401469A
:103B8000A24200D300E0EDE700BF70BDBE00002000
:103B90000148407970470000470000200148006854
:103BA0007047000088000020024908780021014A7F
:103BB000117070471F0000201649097839B916495D
:103BC000097B154A527B01EB022188B220E01149A2
:103BD0000978012907D11149097B104A527B01EB71
:103BE000022188B214E00B490978022910D10A4A4F
:103BF000127B094B5B7B02EB0322084B5B7B02EBE6
:103C00000322064B1B7BD11801EBD172C2F34F008C
:103C100070470000470000209C010020BC010020EC
:103C200001480079704700004700002070B5044645
:103C300000250948008800F4004058B100200649DA
:103C40000988C1F30E01054A505421461046FCF77D
:103C500061FD0546284670BD74010020985500207E
:103C60002DE9F04104460E4615460027002018496C
:103C70000880FF2C0AD800BF1648008800F04000DA
:103C80000028F9D01349091D0C8003E0214612A039
:103C900001F092F8C6B1BDB10FE00A20FFF748FF6E
:103CA0000B48008800F4004038B13046FFF7BEFFF3
:103CB00000B106E0002006490880681E80B2051E9B
:103CC000EBD100BF05B901273846BDE8F0810000FF
:103CD000740100200048004025730D0A0000000018
:103CE0001CB54FF44070FFF76BF9FFF7F3FE40F699
:103CF000B830FFF71DFFFEF7FBFEFEF717FFFEF7DC
:103D0000A9F84FF4E130FFF71FFAFEF7BFF8FFF70D
:103D1000BDFA002008231A4607210090FEF7ECF9AF
:103D200000F012FF0020104908601049C1F894010A
:103D300000BFFEF721FF0028FBD1FEF79DFF012009
:103D4000094908600949C1F8940109480221002382
:103D50006422CDE9001007A1094802F06FFF02F0CC
:103D6000F9FA00BFFEE700009481214200002342DF
:103D70000000002053544152545F5441534B000003
:103D80004D4C000810B50446FFF758F8204903C908
:103D900000F0C8F8282000F0F7F8022000F0FDF845
:103DA000032000F01DF900F0D9F8032000F0C6F858
:103DB000012C18D10F21002002F010FC03211C203F
:103DC00002F00CFC06211D2002F008FC032101205A
:103DD00002F004FCFF21E12002F000FCFF21E220C0
:103DE00002F0FCFB13E00E21002002F0F7FB0121A2
:103DF0001C2002F0F3FB07211D2002F0EFFBFF2146
:103E0000E12002F0EBFBFF21E22002F0E7FB10BD16
:103E1000A80000201CB5002100910191FFF70EF8C9
:103E200005220B49302002F0B7FB0522694610201D
:103E300000F0B8FE0648D0E90010DDE9002351404B
:103E40005840014301D101201CBD0020FCE70000C7
:103E5000A80000202DE9F04106460C46002700206E
:103E60002070072000F0C0FE05467021072002F0F8
:103E7000B5FB072000F0B8FE804600BF05F010003B
:103E800028B1FF21E12002F0A9FB01270CE005F099
:103E9000400028B1304600F023F82070032703E0EB
:103EA00005F0200000B102273846BDE8F08100008F
:103EB00008B50020009069460748006802F02EFD12
:103EC000009838B14FF0805004490860BFF34F8F1D
:103ED000BFF36F8F08BD00003000002004ED00E04C
:103EE00070B50546602000F07FFE0446002C0EDD14
:103EF000212C0CDA0020094908602246294661205D
:103F000000F050FE01200649C1F8A00100E00024A5
:103F1000FF21E22002F062FB204670BDA001244296
:103F20000000244213B5052269462A2002F034FB22
:103F300005226946302002F02FFB1CBD70B50446F7
:103F40000F2C00DD70BD042000F04EFE0546254319
:103F50002946042002F042FB00BFF3E770B50620BB
:103F600000F042FE0546042000F03EFE044605F047
:103F7000200010B944F0100401E044F05004214640
:103F8000042002F02BFB70BD10B504467D2C03DC31
:103F90002146052002F022FB10BD70B50546062023
:103FA00000F022FE044624F0280425B1012D05D09E
:103FB000022D08D104E044F0200404E000BF02E038
:103FC00044F0080400BF00BF2146062002F006FBB3
:103FD00070BD00000149086070470000B00000207B
:103FE00070B50546062000F0FFFD044604F0F80415
:103FF00035B1012D06D0022D07D0032D0BD107E0DE
:1040000000BF08E044F0020405E044F0040402E0CC
:1040100044F0070400BF00BF2146062002F0DEFA8C
:1040200070BD000070B504460D46002005490860CB
:104030002A462146A82002F0AFFA01200249C1F821
:10404000A00170BDA0012442000024422DE9F041EE
:1040500005460E461C4807681C480068001D00F015
:10406000B9FF50B91948006890F82C100120884019
:1040700017490968814316480160681C38B936B190
:1040800012480168091D134801F0FCFE1AE07C1972
:104090000E4800684460BC4207D20C480168091D04
:1040A0000D48006801F0D4FE0CE008480168091DC5
:1040B0000A48006801F0CCFE09480068844201D239
:1040C00007480460BDE8F081D8000020C40000204B
:1040D000DC00002034050020CC000020C8000020B7
:1040E000F400002010B5044601F0D8FE2448006812
:1040F000401C234908602348006840B921480460F7
:104100000846006801280DD100F0CCF90AE01E48ED
:10411000006838B91B480068C06AE16A884201D863
:104120001848046019480068401C1849086008468F
:104130000068606494F82C100120884014490968D4
:10414000084313490860E16A01EB8101114A02EB5F
:104150008100211D01F096FE01F0B2FE0A480068C0
:1041600068B108480068C06AE16A884207D24FF027
:10417000805009490860BFF34F8FBFF36F8F10BDA8
:10418000D4000020C4000020E0000020F000002047
:10419000DC0000208C02002004ED00E010B501F0EE
:1041A0007DFE10480068D0B90F4801F041FE0F486D
:1041B00001F03EFE0C480E4908600C480D490860AD
:1041C00000221021052002F059FA0649086008462D
:1041D000006820B108A10348006801F0B9FE01F0B1
:1041E0006FFE10BD24010020705500208455002072
:1041F0001C01002020010020546D725100000000BD
:1042000010B516E001F04AFE0C48C068C468201DD5
:1042100000F0E0FE0A480068401E094908600948AD
:104220000068401E0749086001F04AFE204600F081
:104230005FF8044800680028E4D110BD2005002084
:10424000D4000020D000002070B504460D46206C3C
:1042500070B1216CE0680144E160D4E90210884249
:1042600001D32168E1602846226CE168FCF783FAFB
:1042700070BD2DE9F04104460F4615464FF0000889
:10428000A66B206C48B9206800282CD1A06802F0E9
:10429000A9FD80460020A06025E07DB93946226C4A
:1042A0006068FCF768FA216C606808446060D4E9D3
:1042B0000101884217D32068606014E03946226CFF
:1042C000E068FCF758FA216CE068411AE160216867
:1042D000E068884203D2216CA068411AE160022D97
:1042E00001D106B1761E701CA0634046BDE8F08186
:1042F00010B50446206B01F0F3FD204601F0F0FDFF
:1043000010BD01464A6A22B10A6B1268C2F1200050
:1043100000E00020704700000146084A1268126859
:104320000AB9012200E000220A600A6822B9034AA1
:104330001268D268106800E0002070471C0100205D
:1043400030B54FF4A043174800F007042CB1C01D4E
:1043500020F00700134C041B1B1B0246124C22606A
:104360000024114D6C60D018083820F007000F4C65
:10437000206000240D4D2D686C600C4D2D682C6064
:104380001146441A4C60094C24680C60084D4C6876
:104390002C60084D4C682C604FF00044064D2C609A
:1043A00030BD000070050020040100200C01002039
:1043B00014010020100100201801002000BFFFF7A9
:1043C0001FFF064800680128F9D94FF080500449C2
:1043D0000860BFF34F8FBFF36F8FF0E78C020020B0
:1043E00004ED00E02DE9F04106460D4617469846DB
:1043F000069C0DB9246000E02760E6632564012176
:10440000204602F059F984F850800020A064BDE8ED
:10441000F0812DE9F05F81460F4690469A460A9E4C
:104420000C9C4FEA8801A522206BFCF7E9F9A8F162
:104430000100216B01EB800B2BF0070B002507E03F
:10444000795D04F134004155785D00B902E06D1CDE
:10445000102DF5D300BF002143200155202E00D39D
:104460001F26E662E66400202065201D01F0EDFCB9
:1044700004F1180001F0E9FC2461C6F12000A061FC
:1044800064620020606584F85800524649465846E8
:1044900000F0F4FA20600B9808B10B980460BDE8B6
:1044A000F09F000010B5002407E004EB84010F4AE0
:1044B00002EB810001F0BCFC641C202CF5D30C48FD
:1044C00001F0B6FC0B4801F0B3FC0B4801F0B0FC66
:1044D0000A4801F0ADFC0A4801F0AAFC0448094969
:1044E000086004480849086010BD00008C020020E4
:1044F000480500205C0500200C0500202005002058
:1045000034050020C8000020CC00002010B5014672
:10451000164800E0006803688B42FBD302464368FC
:1045200013448B4204D143684C68234443600146E2
:104530000A464B6813440468A34211D10C4C03682B
:104540002468A34208D04B680468646823444B6025
:1045500003681B680B6005E0054B1B680B6001E0FE
:1045600003680B60884200D0016010BD0401002088
:104570000C0100202DE9F04104460D4616461F4669
:104580004FF0000865602461B5420CD8F01BA169AA
:10459000884202D34FF0010811E0211D094800684C
:1045A00001F056FC0BE0BE4204D2BD4202D34FF0F4
:1045B000010804E0211D0448006801F049FC404660
:1045C000BDE8F081200100201C01002070B50546E7
:1045D00001F064FCA86B08B9012400E0002401F09C
:1045E0006FFC204670BD70B5054601F057FCA86B06
:1045F000E96B884201D1012400E0002401F060FC55
:10460000204670BD2DE9F3410D460098846C0027CB
:10461000A06BE16B88421BD294F945602A4669463B
:104620002046FFF726FE0746701C60B9606A08B98D
:10463000012000E0002050B904F1240002F078FCD1
:1046400028B1012703E0701C40B284F8450000BF88
:104650003846BDE8FC810000F8B505460E46104816
:104660000068C068C468201D00F0B4FCE06901283F
:1046700011D1A06941192B4632462046FFF77AFF37
:1046800048B1002003462A4601460090204602F029
:1046900023FD074600BF2046616A8847F8BD000039
:1046A0001C010020F0B587B056E00398002805DA19
:1046B00004AED6E90020B168904700BF03980028F7
:1046C0004ADB059C606908B9012000E0002010B9B0
:1046D000201D00F07FFC02A800F09EF8054603981C
:1046E0000A2837D2DFE800F0090507252732060837
:1046F000262800BF00BF00BF00BF0498A269811830
:1047000003462A462046FFF735FF88B12046616AF6
:104710008847E06901280BD1002000900498A16926
:10472000421800231946204602F0D6FC074600BF77
:1047300011E000BF0FE000BF0498A061A06941191B
:104740002B462A462046FFF715FF04E0204601F0DD
:10475000C7FB00E000BF00BF002203A903480068B8
:1047600002F024F90028A0D107B0F0BD24010020F8
:10477000F8B505460C4601F025FE684600F04CF8F9
:104780000646009820BB44B9B54206D802F010FC9A
:1047900031462846FFF760FF1CE03CB10E48006838
:1047A000006808B9012000E000200446A91B224649
:1047B0000A48006801F0E2FB02F0FAFB50B94FF042
:1047C000805007490860BFF34F8FBFF36F8F01E040
:1047D00002F0EEFBF8BD00002001002024010020C3
:1047E00004ED00E00A490968096809B9012100E0FF
:1047F000002121B14FF0FF31064A116006E0044963
:104800000968C968C868034A4168116070470000B8
:10481000C8000020F400002070B5044602F04EFAF3
:10482000054607480068854204D200F00BF80120D5
:10483000206001E00020206001480560284670BD2E
:104840002C0100202DE9F84326E01D480068C068CF
:1048500005681B480068C068C468201D00F0BAFBEA
:104860002046616A8847E069012815D1A069461988
:10487000AE4207D966602461211D1148006801F02D
:10488000E7FA09E0002003462A4601460090204648
:1048900002F022FC804600BF09480068006808B9A1
:1048A000012000E000200028CFD005480768054817
:1048B00000680349086003480760BDE8F88300000A
:1048C0001C0100202001002000BF502080F311882F
:1048D000BFF34F8FBFF36F8F00BF00BFFEE708B578
:1048E00000BF6846FFF718FD044620460099FFF711
:1048F0003FFFFFF7D7FEF4E770B5044601F0CEFAAC
:1049000094F945501AE0A06C38B100212046FFF719
:1049100079FE88B101F09CFC0EE0606A08B90120C4
:1049200000E0002038B904F1240002F001FB18B1C6
:1049300001F08EFC00E003E0681E45B2002DE2DCD1
:1049400000BFFF2084F8450001F0BAFA01F0A6FA92
:1049500094F9445010E0206908B9012000E00020DB
:1049600048B904F1100002F0E3FA08B101F070FC5C
:10497000681E45B200E001E0002DECDC00BFFF2026
:1049800084F8440001F09CFA70BD00002DE9F0416C
:1049900005464FF0000801F015FD2B48006808B9E6
:1049A000FFF7CEFC294800682840002847D145B1D0
:1049B000083505F0070020B105F00700C0F1080038
:1049C0000544002D3BD022480068854237D8214E4F
:1049D0003046046801E0264624686068A84202D296
:1049E00020680028F7D118480068844227D0306832
:1049F00000F10808206830606068401B102807D963
:104A000067196068401B786065603846FFF77EFD77
:104A10000F4960680968081A0D490860084600686F
:104A20000D490968884203D2094800680A490860AC
:104A3000064960680968084360600020206002F051
:104A4000B7FA4046BDE8F0810C01002018010020B3
:104A50001001002004010020140100200648006815
:104A600030B10549096801F15000096D491C016028
:104A70000148006870470000C4000020001F4FF08C
:104A800080730360001F21F001030360001F034BCC
:104A9000036014380260203870470000C9480008DD
:104AA00001480078704700003500002070B5124CB6
:104AB0000125FFF7AFF9012805D1FFF763F90F488A
:104AC000FFF788FA07E000200D4908600D49C1F89A
:104AD000940100BFFEE70120094908600949C1F8B7
:104AE000940120462946FFF71DFA2820FFF74CFACB
:104AF0000220FFF752FA70BD34431010B13E000897
:104B0000948121420000234210B504464FF0FF3249
:104B100021460448006801F049FF08B1012010BD9A
:104B20000020FCE72C00002010B5044600231A46A4
:104B300021460448006801F0FFFD08B1012010BDC6
:104B40000020FCE72800002010B51148007800B1D3
:104B500010BDFFF7ABFF002220210A2001F08EFDDF
:104B60000C490860002206210A2001F087FD0A494D
:104B7000086003220021012001F080FD0749086040
:104B800000200749087001200149087000BFDFE7D5
:104B900034000020280000202C00002030000020DD
:104BA000350000202DE9F04105460E46174600204D
:104BB0000B49086029460B48FEF7B6FB80460024E7
:104BC00006E0FF210748FEF7AFFB3055601CC4B27A
:104BD000BC42F6DB0120024908604046BDE8F08196
:104BE0009C0124420038004070B50446002008496A
:104BF000086021460748FEF797FBA5210548FEF708
:104C000093FB054601200449C1F89C01284670BD6C
:104C10009C012442003800400000244208B50020D6
:104C2000009069460248006801F078FE08BD000067
:104C30006800002008B5002000906946024800681E
:104C400001F06CFE08BD0000A40000201CB5044665
:104C500001F024F90020082103466422CDE9001068
:104C600032A1354801F0EAFF002007210346642203
:104C7000CDE9001031A1344801F0E0FF0020062109
:104C800003466422CDE9001030A1324801F0D6FF7E
:104C90000020052103466422CDE900102EA13148F1
:104CA00001F0CCFF0020042103466422CDE900106E
:104CB0002DA12F4801F0C2FF0020032103466422EA
:104CC000CDE900102BA12E4801F0B8FF00200321F0
:104CD00003466422CDE900102AA12D4801F0AEFF61
:104CE0000020022103466422CDE9001029A12A48B0
:104CF00001F0A4FF0020022103466422CDE9001048
:104D000026A1284801F09AFF0020012103466422D1
:104D1000CDE9001024A1264801F090FF2548006845
:104D200001F024FA01F0CCF81CBD00004272616B66
:104D30006553657276657200355000085261696C82
:104D40004368616E67650000D155000843616E538A
:104D5000656E64004555000843616E526563656980
:104D6000766500005D530008526164696F000000C1
:104D7000C95F00084374726C4461746100000000F4
:104D8000B15C00084664626B44617461000000001D
:104D9000C55C00084B657900E95C000855706C6FD4
:104DA0006164000035640008426565700000000021
:104DB000FD4F0008000000200FB438B505A8009092
:104DC0000F48009A0499FBF7E3FA002000900C4882
:104DD000FBF7B2FC85B200240DE000BF402109487A
:104DE000FEF76CFD0028F9D00548015D0548FEF787
:104DF00032FE601C84B2AC42EFDB38BC5DF814FBC1
:104E000098590020004800401CB5044601210820A4
:104E1000FEF710F901218804FEF7ECF82948FEF7A7
:104E2000FFFC4FF48060ADF8000003208DF8020015
:104E300018208DF8030069462348FDF775FD4FF4EF
:104E40000060ADF8000004208DF8030069461E489C
:104E5000FDF76AFD1D48046000201C498880C88059
:104E6000088188810C2048811648FEF783FD0122C5
:104E700080211448FEF7CAFC01211248FEF7BAFC53
:104E8000012240F225510F48FEF74FFD27208DF8F3
:104E9000040003208DF805008DF8060001208DF830
:104EA000070001A8FEF754F841F61F416320FEF702
:104EB0002FFB00200649088000210648FEF75BFB17
:104EC0001CBD000000480040000C0140F05B0020C9
:104ED000740100200014004010B5044600210A4867
:104EE000FEF788FC1CB10C200849488102E008202C
:104EF0000649488105490448FEF73CFD0121024866
:104F0000FEF778FC10BD000000480040F05B002078
:104F100070B505460C46082D2DD2DFE805F00409D2
:104F20000E13181D22274FF496602749086022E0CF
:104F30004FF41660244908601DE04FF49650224952
:104F4000086018E04FF416501F49086013E04FF452
:104F500096401D4908600EE04FF416401A4908605B
:104F600009E04FF461401849086004E04FF4E13073
:104F70001549086000BF00BF00211448FEF73AFC45
:104F800011480068124908600020C88014B9888060
:104F900008810FE0012C05D120030D498880801085
:104FA000088107E0022C05D1E002094988804FF40E
:104FB000C060088106490548FEF7DCFC0121034872
:104FC000FEF718FC70BD000078010020004800408A
:104FD000F05B002001460A69D1E901309860D1E90F
:104FE000010358605068884201D1886850600020F1
:104FF00008611068401E10601068704714E04FF49C
:10500000967001F05FF80020084908604FF4967030
:1050100001F058F8FFF744FD05490870084600788C
:1050200010B9012001490860E9E70000A081214290
:105030004600002086B00120B6490870062048705E
:10504000002088700220C870002008710520487177
:105050000821B048FDF7DEFE6421AF48006801F08A
:1050600027FD05900120AB490870062048700020FC
:105070008870A820C870002008710120487108219C
:10508000A448FDF7C7FE6421A348006801F010FDA5
:10509000059001209F490870062048700020887004
:1050A000A920C87003200871E82048710821994898
:1050B000FDF7B0FE64219848006801F0F9FC059006
:1050C0000120944908700620487000208870CC2088
:1050D000C870002008710120487108218D48FDF733
:1050E00099FE64218C48006801F0E2FC05900120E3
:1050F000884908700620487000208870C820C87051
:1051000000200871487108218248FDF783FE642160
:105110008148006801F0CCFC059001207D490870B1
:1051200006204870002088704420C8703F20087115
:105130000120487108217748FDF76CFE642176480C
:10514000006801F0B5FC0590012072490870062046
:105150004870002088704620C8707F200871B220F7
:10516000487108216B48FDF755FE64216A480068C4
:1051700001F09EFC0590CBE00A2000F0A3FFFEF7B3
:1051800007FD6649087001F099FD0446FEF714FD1D
:10519000634908800498A4EB0009484602F0ABF983
:1051A0000746604A604B02F0F5F9054600225F4B66
:1051B00002F032F8CDE90201594909885C4A1288A7
:1051C000881A02F081F905465A4A5B4B02F0E2F96F
:1051D000CDE90001DDE9022302F01EF8824601F06C
:1051E000DDFF5649086004944D4800885049088006
:1051F0005248006802F0CCFA05460022504B02F0FB
:105200008DF902D2002045490870444800784000DA
:1052100040424C490880414800784B49097888420F
:1052200002DB3E480078D0B901203A4908700620D8
:105230004870002088704620C8707F200871B22016
:10524000487108213348FDF7E5FD642132480068C4
:1052500001F02EFC0590142000F034FF54E051E0E2
:1052600001202C4908700620487000208870C82052
:10527000C87034480088000A0871324800784871C4
:1052800008212448FDF7C6FD64212348006801F089
:105290000FFC059001201F4908700620487000206F
:1052A00088704620C8705F200871B22048710821BC
:1052B0001848FDF7AFFD64211748006801F0F8FBBE
:1052C0000590059801281DD120480078801EC1B2A4
:1052D0001F48FEF7E1FB1F4908801C480078801E2C
:1052E0001B49095C19480078401E194A105C01EB03
:1052F000002019490880174800880988884200D191
:1053000001E000E0ACE700BF044800780E490870F7
:1053100032E700008C000020A40000207400002070
:105320007A000020F111312592A4684000408F409E
:105330007C000020FCB33D7F7CD9F23F8800002038
:10534000000004C07600002075000020BC00002092
:105350000C020020960000209400002000207049DC
:10536000887001206F498870D9E0052000F0AAFEFE
:105370006D496E48FDF798F80028F5D001206C497A
:1053800008706C480078401C6A490870084600782C
:105390003C280AD16848006808B9012000E00020D4
:1053A000654908600020634908705F480068634AE7
:1053B000811A90427AD008DC6149084400283FD025
:1053C000122823D01F2872D104E0122971D01F297E
:1053D000F9D14FE055480078514908725348407858
:1053E00048725248807888725048C078C8724F48D6
:1053F000007908734D48407948734C4880792838C3
:1054000088734A48C0792838C87387E047480078CD
:105410004349087445484078487444488078887403
:105420004248C078C8744148007908753F484079BF
:1054300048753E48807988753C48C079C8756DE0EC
:105440003A480078364908763848407848763748F0
:10545000807888763548C078C876344800790877EF
:105460003248407948773148807988772F48C07929
:10547000C87753E02D4800782A4908722B484078B5
:1054800048722A48807888722848C078C8722748AD
:105490000079087325484079487324488079283872
:1054A00088732248C0792838C87337E01BE034E09D
:1054B000FFE71E4800781B4908741C484078487470
:1054C0001A48807888741948C078C87417480079D9
:1054D00008751648407948751448807988751348CE
:1054E000C079C8751AE0114800780E4908760F484F
:1054F000407848760D48807888760C48C078C87621
:105500000A48007908770948407948770748807940
:1055100088770648C079C87700E000BF00BF24E75D
:105520009C010020BC010020040000200800002095
:10553000100000201A000020948121427B14F810F2
:1055400085EC07EF08B501F0B9FB009035E0FFF7F7
:10555000A7FA1A4908701A4880781A49087017483B
:10556000007828B11648C07848700020887003E0A1
:1055700000201449487088701148007818B110480C
:105580000078022806D128200E49C87008220E484B
:10559000FCF7ACFF0A480078012803D008480078DF
:1055A000022806D120200749C87008220748FCF7C6
:1055B0009DFF3221684600F09FFDC8E719000020DA
:1055C0004700002011000020F3E3F810F3E4F81086
:1055D00053E3322000F076FDFEF7E6FAF949087051
:1055E00008460078012802D1F749087006E0F5481E
:1055F0000078032802D10220F3490870FEF710FB5F
:10560000F24908700020F2490870F24908707EE102
:10561000F1480078052847D2DFE800F003478BD334
:10562000FE000220ED4908700620487000208870B6
:105630004720C8707F200871FF2048710821E74883
:10564000FDF7E8FB6421E648006801F031FA044602
:10565000012C24D1E3480078801EC1B2E248FEF755
:105660001BFAE2490880DF480078801EDE49095CA9
:10567000DC480078401EDC4A105C01EB0020DC496D
:105680000880DA480088098888420DD1D24800781D
:10569000401CD14908700020D649087004E0D54864
:1056A0000078401CD349087030E10220CB490870D3
:1056B00006204870002088704620C8707F2008713E
:1056C000FE2048710821C548FDF7A4FB6421C448A9
:1056D000006801F0EDF90446012C24D1C14800789E
:1056E000801EC1B2C048FEF7D7F9C0490880BD4846
:1056F0000078801EBC49095CBA480078401EBA4A4E
:10570000105C01EB0020BA490880B848008809887D
:1057100088420DD1B0480078401CAF490870002085
:10572000B449087004E0B3480078401CB1490870DF
:10573000ECE00220A949087006204870002088701B
:105740004720C8707B200871FF2048710821A348BA
:10575000FDF760FB6421A248006801F0A9F9044646
:10576000012C28D19F480078801EC1B29E48FEF7C8
:1057700093F99E4908809B480078801E9A49095CED
:1057800098480078401E984A105C01EB0020984928
:105790000880964800880988884211D18E48007890
:1057A000401C8D4908700020924908704FF4FA702F
:1057B00000F088FC04E08F480078401C8D49087098
:1057C000A4E00220854908700320487001208870F9
:1057D0008220C870002008710120487108217F488C
:1057E000FDF718FB64217E48006801F061F904466A
:1057F000012C37D177480078401C764908707948E9
:105800000078801EC1B27848FEF746F977490880D3
:1058100074480078801E00E02AE07349095C7148F2
:105820000078401E704A105C01EB0020704908802F
:105830006E4800880988884219D11046007900F026
:10584000080018B100206249087010E0012060498A
:10585000087061480078401C5F4908700020654965
:10586000087004E063480078401C624908704DE00D
:1058700002205A490870062048700020887046208F
:10588000C8707F200871FF20487108215348FDF738
:10589000C1FA64215248006801F00AF90446012C5B
:1058A0002ED150480078801EC1B24F48FEF7F4F860
:1058B0004E4908804B480078801E4B49095C494896
:1058C0000078401E484A105C01EB002048490880DF
:1058D000464800880988884217D13D48007830B191
:1058E00001203949087000203949087002E0002081
:1058F000414908700020384908703E49087004E0AA
:105900003C480078401C3B49087000BF00BF2F484E
:105910000078012808D12C480078022804D13648A4
:10592000007800287FF474AE9AE12B4800780528AF
:1059300047D2DFE800F00363A7F1EF000220274918
:10594000087006204870002088704720C8707E20AC
:105950000871FF20487108212048FDF75BFA642197
:105960001F48006801F0A4F80446012C24D11D480A
:105970000078801EC1B21C48FEF78EF81B490880D3
:1059800018480078801E1849095C16480078401EA7
:10599000154A105C01EB0020154908801348008867
:1059A000098888420DD10C480078401C0A490870CB
:1059B00000201049087004E00E480078401C0D4992
:1059C00008704CE1670000206600002065000020A0
:1059D0006D0000206F0000206C00002050000020AF
:1059E00068000020BC0000200C02002062000020A3
:1059F00060000020700000206E00002002209F49FF
:105A0000087006204870002088704620C8707F20EB
:105A10000871FE20487108219848FDF7FBF96421C0
:105A20009748006801F044F80446012C24D19548B9
:105A30000078801EC1B29448FEF72EF89349088082
:105A400090480078801E9049095C8E480078401E7E
:105A50008D4A105C01EB00208D4908808B4800883E
:105A6000098888420DD18B480078401C894908700C
:105A700000208949087004E087480078401C864966
:105A80000870ECE002207D49087006204870002074
:105A900088704720C8707A200871FF20487108215B
:105AA0007648FDF7B7F964217548006801F000F801
:105AB0000446012C28D173480078801EC1B2724878
:105AC000FDF7EAFF714908806E480078801E6E4934
:105AD000095C6C480078401E6B4A105C01EB0020AA
