:020000040800F2
:1000000098610020110300084D28000843240008CF
:10001000492800084D1E00084B3000080000000071
:10002000000000000000000000000000790200084D
:10003000EB20000800000000BD020008592B00085A
:100040002B0300082B0300082B0300082B030008D8
:100050002B0300082B0300082B0300082B030008C8
:100060002B0300082B030008ED2000082B030008D9
:100070002B0300082B030008C91E00082B030008EF
:100080002B0300082B0300082B0300082B03000898
:100090002B0300082B0300082B0300082B03000888
:1000A0002B0300082B0300082B0300082B03000878
:1000B0002B0300082B0300082B0300082B03000868
:1000C0002B0300082B0300082B0300082B03000858
:1000D0002B0300082B0300082B030008592D0008F0
:1000E0002B0300082B0300082B0300082B03000838
:1000F0002B0300082B0300082B0300082B03000828
:100100002B0300082B0300082B0300082B03000817
:100110002B0300082B0300082B030008C92B000841
:100120002B0300082B0300082B0300082B030008F7
:1001300000F002F800F090F80AA090E8000C824469
:100140008344AAF10107DA4501D100F085F8AFF246
:10015000090EBAE80F0013F0010F18BFFB1A43F0A5
:1001600001031847B4530000D4530000103A24BFD1
:1001700078C878C1FAD8520724BF30C830C144BF0C
:1001800004680C607047000000230024002500264E
:10019000103A28BF78C1FBD8520728BF30C148BFEA
:1001A0000B6070476E2900F08183702900F0C381D5
:1001B000662905F02D81652905F02A81672905F05A
:1001C0002781612905F0268103681B0A28BF41F0B9
:1001D0008001692900F03481642900F0318175299A
:1001E00000F02E816F2900F06684782900F08F815D
:1001F000E92900F00184E42900F0FE83F52900F0EC
:10020000FB83EF2900F06384F82900F08E810368F6
:10021000DB0928BF41F08001632900F08283732944
:1002200000F08783E32901F08B80F32901F09080AF
:10023000002070471FB501F003F9040000200021E1
:1002400005F0D0F8401C60600020002105F0B4F8F3
:10025000E0601FBD10B510BD01F0C5F81146FFF7F5
:10026000E9FF03F009F801F09DF903B4FFF7F2FF8D
:1002700003BC01F0E5F90000224B19680868B0E8FA
:10028000F00F80F30988BFF36F8F4FF0000080F309
:1002900011884EF00D0E70470000000006480068FF
:1002A000006880F3088862B661B6BFF34F8FBFF372
:1002B0006F8F00DF00BF00BF08ED00E0EFF30980A3
:1002C000BFF36F8F0F4B1A6820E9F00F106008B56D
:1002D0004FF0500080F31188BFF34F8FBFF36F8F43
:1002E00004F07CFA4FF0000080F31188BDE808406C
:1002F00019680868B0E8F00F80F30988BFF36F8FC2
:10030000704700BF20000020EFF305807047000019
:100310000948804709480047FEE7FEE7FEE7FEE799
:10032000FEE7FEE7FEE7FEE7FEE7FEE704480549D5
:10033000054A064B70470000692B00083101000890
:10034000985B002098610020985D0020985D002057
:100350001CB50C46064B7B4469460090204600F0D5
:10036000BEFA04460020694600F0CCFA20461CBDC7
:10037000AB0500000FB41CB5084B06AA7B446946C8
:100380000090059800F0ABFA04460020694600F0A2
:10039000B9FA20461CBC5DF814FB0000850500007E
:1003A00070B5044685690068C10601D5302600E0B5
:1003B0002026C00707D070BDD4E901213046904700
:1003C000206A401C20626D1EF6D570BD70B50446D3
:1003D00085690078C00707D170BDD4E901212020CC
:1003E0009047206A401C20626D1EF6D570BD70B526
:1003F0000C460546012A05D02878800600D5EA6912
:10040000002302E0012305E05B1C934202D2E05C82
:100410000028F9D1A869E618C01AA861286A18440A
:1004200028622846FFF7BCFF04E0D5E9012114F853
:10043000010B9047B442F8D32846FFF7C7FF70BDC1
:100440002DE9F0410646002410687529314616A5AD
:1004500010D000F0C0F9002802DA404213A507E0EE
:1004600031688A0701D512A502E0490704D511A514
:10047000012401E000F0B8F900210A2206F1240766
:1004800009E0B0FBF2FCB0FBF2F302FB1C003030E1
:1004900078541846491C0028F3D123462A46304692
:1004A000BDE8F04100F0A9B9000000002D000000F7
:1004B0002B00000020000000F0B40D460188090563
:1004C00002D5214C7C4402E01F4C7C440E340021B8
:1004D00000F1240608E002F00F071209E75D42EA86
:1004E00003721B097754491C52EA0307F3D10278BF
:1004F0000023120704D5702D06D009B10223113450
:100500002246F0BC00F079B901231034F8E770B549
:1005100004460D462146106800F066F90246294659
:100520002046BDE870400023C6E7D21D22F0070335
:10053000D3E90023C0E70368126843F02003036097
:100540000823C3610023B7E7504F00002DE9F05F97
:10055000894604464FF0000ADFF874B1FB44C0F846
:1005600020A02046E1688847002874D0252806D0BE
:10057000D4E901219047206A401C2062F1E700265F
:100580005F462046E16888472028054607DB312D75
:1005900005D2781910F8200C08B10643F1E7B0072E
:1005A00001D526F00406C4F81CA00027C4F818A042
:1005B0002A2D09D0284602F05EFD38B304EB8708E7
:1005C000303DC8F8185019E059F8041B204604EBD8
:1005D00087029161E1688847012F054618D1E069DB
:1005E000002820DA26F020061DE0D8F8180000EBDD
:1005F000800005EB40003038C8F818002046E1685C
:100600008847054602F037FD0028EED1012F0AD0B9
:100610002E2D08D12046E16888477F1C0546022F11
:1006200046F02006C4DBA069002803DA404246F009
:100630000106A061F00701D026F010066C2D0BD04A
:10064000682D09D04C2D39D06A2D35D0742D35D078
:100650007A2D33D016E038E0E1682F4620468847EF
:10066000B842054609D16C2F26D04FF48060E1686E
:10067000064320468847054604E06C2F1AD04FF405
:10068000807006430DB3A5F14100192802D820352A
:1006900046F400664A462946204626604E46FFF745
:1006A00081FD80B101280BD0F61D26F0070000F176
:1006B000080956E74020E4E78020D8E70020D6E785
:1006C00006F104094DE7284652E7206ABDE8F09F8D
:1006D000E04E000030B505460B462A4613F8014BA4
:1006E00012F8010B08B1A042F8D01CB1002802D0CA
:1006F0006D1CF1E7284630BD10B5431C02E010F830
:10070000011B71B18107FAD14FF0013202C88C1A76
:100710008C4314EAC211F9D0C01A0A0603D0C01ED5
:1007200010BDC01A10BD0A0401D0801E10BD090200
:10073000FCD0401E10BD032A40F2308010F0030CA4
:1007400000F0158011F8013BBCF1020F624498BF24
:1007500011F801CB00F8013B38BF11F8013BA2F1C1
:10076000040298BF00F801CB38BF00F8013B11F03C
:10077000030300F0B781083AC0F0088051F8043B49
:10078000083A51F804CBA0E80810F5E7121D5CBF49
:1007900051F8043B40F8043BAFF30080D20724BF7C
:1007A00011F8013B11F801CB48BF11F8012B24BF10
:1007B00000F8013B00F801CB48BF00F8012B70475F
:1007C00002F0FF0343EA032242EA024200F0BEB90C
:1007D00070477047704709684A0501D540B27047B5
:1007E000C905FCD500B2704709684A0501D5C0B2F9
:1007F0007047C905FCD580B270472DE9F0470D461A
:1008000099469246044600F124080168880604D5FA
:10081000E06921F01001216000E00120A84201DD23
:10082000471B00E00027A1697A1902EB0900081AAA
:10083000A0612078C00602D42046FFF7B1FD002653
:1008400008E0D4E901211AF806009047206A401C0C
:10085000761C20624E45F4DB2078C0060AD520467F
:10086000FFF79EFD06E0D4E9012130209047206A81
:10087000401C2062381EA7F10107F4DC07E0D4E930
:10088000012118F805009047206A401C2062281EAC
:10089000A5F10105F3DC2046FFF798FD207800065E
:1008A00002D50220BDE8F0870120FBE7116802684D
:1008B000006A530501D508700AE0D30501D5088008
:1008C00006E0130603D5C217C1E9000200E0086084
:1008D0000120704701694A1C02610878704700B521
:1008E0008FB0CDE901310021059105497944CDE969
:1008F000031011466846FFF729FE0FB000BD000047
:10090000E5FFFFFF0A6802F8010B0A60704710B5A7
:10091000436913B1AFF3008001E0FFF768FD0120E8
:1009200010BD127800F124010A7000224A700122E1
:10093000EDE711684FF0FF32E9E700002DE9FF5FB6
:1009400015468A460446DFF8AC80F8440027D8E90B
:1009500000103E46CDE9001010E03AF816106A4645
:1009600002A800F0F9FC411C07D02178890603D5C4
:10097000E269391891420DD80744761C2078800628
:1009800002D5E069B84205DDAE42E6DB3AF8160072
:100990000028E2D1A069C01BA0612046FFF700FD3E
:1009A000D8E90010CDE90010002017E03AF818103F
:1009B0006A4602A800F0D0FCB0F1FF3F81460BD0A0
:1009C00000250DF1080B05E0D4E901211BF8050015
:1009D00090476D1C4D45F7D308F10100B0428046A9
:1009E000E4DB206A384420622046FFF7EFFCBDE8D4
:1009F000FF9F0000064B00002DE9F0418046D21D0C
:100A000022F007020025D2E90002F52915A614D02C
:100A1000011E72F1000106DA0023D0EB030063EB44
:100A2000020211A608E0D8F800108B0701D50FA626
:100A300002E0490701D50EA601251146002408F160
:100A4000240704E000F0A2F830323A55641C50EA62
:100A50000102F7D12B46324621464046BDE8F0411F
:100A6000FFF7CBBE000000002D0000002B000000AF
:100A70002000000030B4002100F1240408E002F05E
:100A80000705D208303542EA4372DB086554491C39
:100A900052EA0305F3D10468002310A2250707D505
:100AA000A40600D421B1C46901230DA2641EC4614F
:100AB00030BCFFF7A2BE10B5044621461068FFF710
:100AC00093FE02462046BDE810400023D2E7D21D27
:100AD00022F00701D1E90023CCE70000000000006C
:100AE0003000000010B5203AC0F00B80B1E818507B
:100AF000203AA0E81850B1E81850A0E81850BFF408
:100B0000F5AF5FEA027C24BFB1E81850A0E81850A6
:100B100044BF18C918C0BDE810405FEA827C24BFFA
:100B200051F8043B40F8043B08BF7047D20728BF88
:100B300031F8023B48BF11F8012B28BF20F8023BD7
:100B400048BF00F8012B70474FF000020429C0F0A5
:100B5000128010F0030C00F02184CCF1040CBCF1E5
:100B6000020F18BF00F8012BA8BF20F8022BA1EB41
:100B70000C0100F013BC5FEAC17C24BF00F8012B1C
:100B800000F8012B48BF00F8012B704730B5B0F1D9
:100B90000A024FEA900E71F100034EEA817EB0EB3B
:100BA0000E0061EB91014FEA101E4EEA017E10EB40
:100BB0000E0041EB11114FEA102E4EEA016E10EBC0
:100BC0000E0041EB11214FEA104E4EEA014E10EBA0
:100BD0000E0041EB1141401841F100014FEAD000F5
:100BE00040EA41704FEAD10110EB80054FEA8104E1
:100BF00044EA907444EB01046D1944EB0404521B65
:100C0000A3414FF0000348BF0A3200D530BD401C5D
:100C100041F1000130BD70472DE9FF4F0C461E46E3
:100C20004FF0FF378BB0D2E90001DDF860800A9009
:100C30008A46C1F30A5505B93D46002108464FF0E2
:100C40000000BAF1000F00F4400005DA00EB80006C
:100C50004FF4400101EA50004FEA9059B9F1010FF9
:100C600000DDB9460A9850EA4A000ED044F610500A
:100C7000A5F2FF3545432F14B8F1000F1ED0754281
:100C8000291E1EDDC9F100021CE0B8F1010F4FF072
:100C9000000001D0302103E0F24305E02154401C64
:100CA000B042FBDB30460022002121540B99C1F8F1
:100CB0000880C1E900200FB0BDE8F08FBD1B6D1C9E
:100CC000DEE74A4600DA694206A800F0FDFB06AB03
:100CD00093E8070003AB83E8070050460A9900F049
:100CE000B6FC8DE80700A0F500501F38009003986F
:100CF000002D09DD42F21F014A46084403A9039072
:100D0000684600F015FF08E0A0F500504A461F387D
:100D100003A90390684600F01FFF8DE80700000458
:100D2000000C03D04FF0FF30410800E01046B8F14E
:100D3000000F03D00022009215461EE0751E05D458
:100D4000FFF724FF303262556D1EF9D5B3460122FC
:100D5000084302D000227F1C04E02078302801D113
:100D600000227F1E002A099786D01DE0112D07DA88
:100D7000FFF70CFF303262556D1C50EA0102F5D1CD
:100D8000084302D00098C8B10EE00021681E05E0BB
:100D9000235C625C63542254401E491C8142F7DB91
:100DA000AB46A81B401E0990002004F80B000B98CE
:100DB000099AC0F80880C0E9002B7CE711264FF0A3
:100DC000000859E72DE9F04F88460446D21D22F06D
:100DD000070191B0D1E90001CDE90A0102F037F92C
:100DE00002460B98C00F01D02D2007E02068810734
:100DF00001D52B2002E0202101EAC000032A09903E
:100E000001D0072A05DB03464146204600F01CFBC3
:100E10000BE12078800601D5E06900E00620B8F1FA
:100E2000650F814606D0B8F1660F18D0B8F1670F8C
:100E300070D131E00020B9F1110F009001DB1123D6
:100E400001E009F101030AAA01A90CA8FFF7E4FED9
:100E5000DDE90C70002609F10105834647E0012019
:100E60004B4600904FF000470AAA01A90CA8FFF7D3
:100E7000D3FEDDE90DB00C995D46002610B909F1ED
:100E800001000D18B9EB050003D4C0F1FF3609F1DC
:100E90000105A5EB09002BE0B9F1010F01DA4FF0D4
:100EA00001090020B9F1110F0090484601DD11231E
:100EB00000E003460AAA01A90CA8FFF7ADFEDDE990
:100EC0000C704D4600268346207800070AD4AB45B7
:100ED00000DA5D4601A8012D04DD411911F8011C5D
:100EE000302907D04F4502DA17F1040F04DA012048
:100EF00082460FE06D1EEEE7002F02DCED1B3E4444
:100F000003E0781CA84200DD7D1CB81B00F1010A3B
:100F10004FF000472078000703D4AA4501DB4FF0CB
:100F2000FF3A0021B7F1004F0DF143088DF843104F
:100F300024D002202B23002F01DA7F422D230A2107
:100F4000021EA0F1010000DC5FB197FBF1FC97FBF2
:100F5000F1F201FB1C7C17460CF1300C08F801CDB6
:100F6000EEE7A8F1010003702188090501D54521AC
:100F700000E06521A0F1010800F8011C09980FA903
:100F8000A1EB0807FF1D00B10120411901EBEA7038
:100F9000A1693844081A401EA0612078C00602D416
:100FA0002046FFF7FDF9099828B1D4E901219047BF
:100FB000206A401C20622078C00622D52046FFF718
:100FC000EFF91EE0002E04DBB34502DD01A8805DD1
:100FD00000E03020D4E901219047206A401C2062C3
:100FE000761CAAF101005FEA000A0AD100F028FA93
:100FF000C0680168405CD4E901219047206A401C28
:101000002062281EA5F10105DCDC07E0D4E90121FE
:1010100018F8010B9047206A401C2062381EA7F187
:101020000107F3DC2046FFF7D1F9032011B043E6B6
:101030002DE9F04F04460D46D21D22F0070089B07D
:10104000D0E900974846394602F001F80246F80F09
:1010500001D02D2307E02068810701D52B2302E072
:10106000202101EAC0038DF820300BB1012000E0FF
:101070000020032A824601D0072A04DB29462046A5
:1010800000F0E2F93FE12078800601D40D2500E070
:10109000E569C7F30A560D2D49DA00214FEA175BBF
:1010A00008464FF00000002F00F4400007DA00EB84
:1010B00080004FF4400100EBD07001EA6000811520
:1010C000012901DD4FF0FF3100224FEA850CBCF110
:1010D000180F06D31346ACF118004FF08052C240EF
:1010E00003E04FF4801323FA0CF30CF10C0CBCF169
:1010F000200F04D3ACF1200C09FA0CF001E007FA40
:101100000CF000294FF0004801DD18B90FE00ED1B6
:1011100040450CD319EB02095F4121B9404502D18A
:101120009F4329EA0209BBEB175F00D0761C208899
:10113000000502D57B48784402E07A4878441938A3
:1011400008AA302302F80A30037C0AF10101002EBC
:101150000AF1020A53546A4602DC4FF0300101E002
:101160004FF031014FF001088DF8001002D0A6F2C7
:10117000FF3603E059EA470100D06B4E002D02DC38
:101180002178090704D54FF002082E218DF80110AF
:10119000C44600210BE0C7F303433F01C35C491C75
:1011A0006D1E02F80830052908F1010801DA002D4A
:1011B000F1DC00210CE000EB1973491C1B786D1E5B
:1011C000082902F808304FEA091908F1010801DA84
:1011D000002DF0DC21688B0602D516E0A8F101088D
:1011E000E04505DD02EB080313F8013C302BF5D098
:1011F000B8F1000F09DD02EB080313F8013C2E2BB8
:1012000003D1090701D4A8F10108002D05DD3E2115
:1012100002F808106D1E08F10108407C002E02F84B
:10122000080008F1010804DA2D20764202F80800CF
:1012300002E02B2002F808000A214FF47A7086425F
:1012400008F101080BDB96FBF0F3303302F80830AD
:1012500096FBF0F308F1010800FB136601E0642E31
:101260000CDB642096FBF0F3303302F8083096FB79
:10127000F0F308F1010800FB136601E00A2E06DB1B
:1012800096FBF1F0303002F8080008F1010896FBF7
:10129000F1F001FB1060303002F80800A16908F19C
:1012A000010808EB050202EB0A00081AA061207889
:1012B000C00602D42046FFF773F8216A08AE01EB9E
:1012C0000A00206204E0D4E9012116F8010B9047DE
:1012D000BAF1010AF7D22078C00602D52046FFF7FE
:1012E0005FF86E4609E016F8010B3E280FD0D4E9EE
:1012F00001219047206A401C2062B8F10108F2D217
:101300002046FFF763F809B00320BDE8F08F206A9C
:101310002844206203E0D4E90121302090476D1E6B
:10132000EBD3F8E73543000002FCFFFF10B543693B
:1013300013B1AFF3008001E0FFF700FB012010BD07
:10134000128800F1240182840022C2840122EDE788
:1013500011684FF0FF32E9E770B516460C460546B6
:1013600000F066F8036893F80101012806D0FF2C0D
:101370000FD8185D68B101202C7070BDD3F807013B
:101380003246214603F2071303442846BDE8704065
:1013900018474FF0FF3070BD4FF0000200B5134604
:1013A00094469646203922BFA0E80C50A0E80C5085
:1013B000B1F12001BFF4F7AF090728BFA0E80C5036
:1013C00048BF0CC05DF804EB890028BF40F8042B2F
:1013D00008BF704748BF20F8022B11F0804F18BF9C
:1013E00000F8012B7047754600F0E6F8AE460500A0
:1013F0006946534620F00700854618B020B5FEF731
:1014000095FFBDE820404FF000064FF000074FF079
:1014100000084FF0000B21F00701AC46ACE8C00912
:10142000ACE8C009ACE8C009ACE8C0098D4670471B
:1014300010B500F005F8001D10BD00BFA93F000069
:1014400000487047545B00202DE9F0411F460446D8
:1014500003260168072A01F4006004DB08B116A521
:1014600005E016A503E008B115A500E015A521F0DB
:1014700010002060A069C01EA0610FB1401EA061D5
:101480002046FEF78DFF4FB1D4E901213846904741
:10149000206A401C2062C01C206206E0206AFAE735
:1014A000D4E9012115F8010B9047761EF8D22046A9
:1014B000FEF78CFFBDE8F0814E414E006E616E007C
:1014C000494E4600696E66002DE9F0478146164692
:1014D0008AB0334878440DC88DE80D003048784410
:1014E000801C03AC0DC884E80D0041F69B30084415
:1014F000372190FBF1F290FBF1F5A5F1800501FB9E
:1015000012041B3C02D56442012000E00020DFF8F9
:1015100090A080460027FA44AAF1BE0A0DE0E00739
:1015200009D03246684607EB47010AEB810100F01B
:1015300013FB8DE8070064107F1C002CEFD1184FBF
:101540007F44AC3F18E0E80714D007EB04100DF11E
:10155000180A90E80E008AE80E00C068F04201D137
:1015600098190890324606A903A800F0F5FA03ABD3
:1015700083E807006D10641C002DE4D132466946F3
:10158000B8F1000F03A802D000F0D2FA01E000F099
:10159000E3FAC9E90001C9F808200AB0BDE8F087FC
:1015A0002840000010B50446AFF300802046BDE897
:1015B0001040FEF75ABE000000487047345B002020
:1015C0004FF0013C50F8042B51F8043B9A4221D1D2
:1015D000A2EB0C03934313EACC1317D150F8042B5E
:1015E00051F8043B9A4215D1A2EB0C03934313EA42
:1015F000CC130BD150F8042B51F8043B9A4209D17B
:10160000A2EB0C03934313EACC13DBD04FF00000A2
:10161000704700BFD01A01BAB1FA81F101F0180188
:1016200022FA01F0CB40C1F12001DBB2C0B2C01AF6
:101630002CFA01F3D11A914311EAC311E6D1704794
:1016400001491820ABBEFEE72600020070475FEAA2
:10165000400C08BF91F0000F4FEA8C234FEAC122E3
:1016600043EA51514FEA1C5018BF00F5F0404FEAD1
:10167000300018BF41F000415FEA6C5C00F0298047
:10168000BCF1FF3F08BF40F080407047130C06BF1D
:1016900012044FF0100C4FF0000C130E04BF120296
:1016A0000CF1080C130F04BF12010CF1040C930F82
:1016B00004BF92000CF1020CD30F04BF52000CF1D6
:1016C000010C11464FF00002A0F11F00A0EB0C002E
:1016D000704711F0004F08BF704731F000413FF4F0
:1016E000D5AF0B0C06BF09044FF0100C4FF0000CE7
:1016F0000B0E04BF09020CF1080C0B0F04BF09010B
:101700000CF1040C8B0F04BF89000CF1020CCB0F01
:1017100004BF49000CF1010CCCF12003A0EB0C003C
:1017200022FA03F302FA0CF241EA030100F101008C
:10173000704720F07F4C80EA030023F07F47ACEB3A
:10174000070303F57C5300F0004003F1FF032DE98C
:1017500080494FEA154B09B44FEA144325EA0B4E72
:1017600024EA03480FF2042606EB132749083E78C3
:101770005FEA320203FB0667C7F5000707FB06F6C0
:101780004FEA54374FEAD64606F1020607FB066CCD
:10179000CCF1005C4FEA1C472CEA074C07FB06F42F
:1017A0000CFB06F504EB15464FEA961634BF0020F5
:1017B0004FF000404FEAD13706FB07FC4FEA1C4CC4
:1017C0000CFB0BF7D21B03FB0CF761EB07010CFBC7
:1017D0000EF7B0EB074072EB17420CFB08F734BF73
:1017E000A2EB0742B2EB074261EB17414FEA0C4410
:1017F0004FEA910706FB07FC4FEA1C4C0CFB0BF76A
:10180000B0EBC74072EB573203FB0CF734BFA2EBCF
:10181000C742B2EBC74261EB57310CFB0EF7B0EB9E
:10182000C70072EB57720CFB08F734BFA2EBC7027C
:10183000B2EBC70261EB5771039F4FEA816141EA46
:10184000921104EBCC044FEAD1374FEA826206FBD7
:1018500007FC42EA90124FEA80604FEA1C4C0CFBF6
:101860000BF7D21B03FB0CF761EB07010CFB0EF728
:10187000B0EB074072EB17420CFB08F734BFA2EB4A
:101880000742B2EB074261EB17414FEA8C554FEA32
:10189000910704EB9C2406FB07FC4FEA1C4C0CFB55
:1018A0000BF7B0EBC74072EB573203FB0CF734BFBA
:1018B000A2EBC742B2EBC74261EB57310CFB0EF70C
:1018C000B0EBC70072EB57720CFB08F734BFA2EB0A
:1018D000C702B2EBC70261EB577115EB4C254FEA1B
:1018E000816141EA92114FEA82624FEAD13742EABE
:1018F000901206FB07FC44F100044FEA80604FEAB7
:101900001C4C0CFB0BF7D21B03FB0CF761EB070124
:101910000CFB0EF7B0EB074072EB17420CFB08F71D
:1019200034BFA2EB0742B2EB074261EB174115EB64
:101930001C154FEA813141EA92414FEA823242EA74
:1019400090424FEA80304FEA0C7644F1000448EAB6
:1019500003434EEA0B484FF0000EB2EB080C71EB5C
:10196000030724BF624639464EEB0E0E4FF0000BC4
:101970000018524149414BEB0B0BB2EB080C71EBD9
:1019800003077BF1000B24BF624639464EEB0E0E77
:101990004FF0000B0018524149414BEB0B0BB2EBDF
:1019A000080C71EB03077BF1000B24BF624639463C
:1019B0004EEB0E0E51EA020718BF46F0010616EB79
:1019C0000E7655F1000254F1000103D5BDE88901FE
:1019D000BDE80088BDE88901BDE80048B61952415C
:1019E00041EB0101A3F10103704780807F7E7D7C84
:1019F0007B7A7978777676757473727171706F6EA1
:101A00006E6D6C6C6B6A6A6968686766666564644B
:101A1000636362616160605F5F5E5E5D5D5C5C5BD5
:101A20005B5A5A5959585857575656555555545444
:101A3000535352525251515050504F4F4F4E4E4DA2
:101A40004D4D4C4C4C4B4B4B4A4A4A4949494848EE
:101A5000484747474746464645454544444444432E
:101A600043434342424242414141002B26D4770046
:101A700021D01CB54FEA370703B44FF010004FF0E8
:101A800010014FF000000FBCBDE810400BF1010B3E
:101A9000BBF1010F08BF5FEA170722BF12F1010275
:101AA00011F101014FF0004143F1000300F000404B
:101AB00043EA00007047F9D35708DAE746EA0646DA
:101AC00013F1400F4FEA16461FDD13F1200FDFBF61
:101AD00016430A46002120335B42C8D0C3F12007D9
:101AE00046EA064602FA07F74FEA164646EA0706AE
:101AF000C3F1200722FA03F201FA07F721FA03F1F2
:101B00004FF0000342EA0702B1E746EA020646EA5E
:101B100006464FEA164646EA0106BCBF46EA0646B6
:101B2000360C4FF000034FF000024FF000019EE72B
:101B30002DE9C048934630B491E8380007C831EA2F
:101B4000400C48BF34EA430C03D5FFF7F2FDFFF722
:101B50008CFFF0BCBDE800882DE9C048934630B446
:101B600091E8380007C810F0804F08BF13F0804F8D
:101B700003D100F005F8FFF778FFF0BCBDE800885E
:101B800020F07F4780EA030023F07F4C07EB0C0333
:101B9000A3F57C5300F00040A3F1FE0392F0000F88
:101BA00000F0B38095F0000F00F077802DE9014937
:101BB0004FEA11404FEA144621EA004800FB06FCB8
:101BC00024EA064708FB06F607FB08F800FB07F7C0
:101BD00018EB06484CEB164C4FEA124B18EB074833
:101BE0004FEA15464CEB174022EA0B4E0BFB06FC66
:101BF00025EA06470EFB06F607FB0EFE0BFB07F772
:101C00001EEB064E4CEB164C4FF000061EEB074E3B
:101C10004CEB174B18EB0B0840F1000018EB0E0BC8
:101C200058EB000840F100008F1A4FF000013CBF54
:101C3000C943661B14BFB5EB040C00213CBFC9436C
:101C4000F61B4FEA17444EEA8E0E27EA04454FEA88
:101C50001C4704FB07622CEA074C05FB07F70CFB4B
:101C600005F604FB0CFC16EB074642EB174216EB9D
:101C70000C4642EB1C421BEB060658EB02024141AC
:101C800046EA9E0601D5BDE80189B619524141EBED
:101C90000101A3F10103BDE801894FEA14454FEAB0
:101CA000114724EA054621EA074C05FB07F406FB29
:101CB00007F70CFB06F105FB0CFC11EB074144EBAD
:101CC00017444FEA124711EB0C4144EB1C4422EA43
:101CD000074C05FB07F206FB07F70CFB06F605FBB6
:101CE0000CFC16EB074642EB174216EB0C4642EB98
:101CF0001C456A1854F1000148BF7047B61952419B
:101D000041EB0101A3F10103704795F0000F37D0BB
:101D10004FEA11424FEA144721EA024624EA074CEF
:101D200002FB07F106FB07F70CFB06F402FB0CFCB9
:101D300014EB074441EB17414FEA154714EB0C44F1
:101D400041EB1C4125EA074C02FB07F506FB07F7B0
:101D50000CFB06F602FB0CFC16EB074645EB1745A1
:101D600016EB0C4645EB1C42121951F1000148BF1D
:101D70007047B619524141EB0101A3F101037047CD
:101D80004FEA14454FEA114724EA054621EA074C79
:101D900005FB07F106FB07F70CFB06F24FF0000608
:101DA00005FB0CFC12EB074241EB174112EB0C4216
:101DB00051EB1C4148BF7047921841EB0101A3F160
:101DC0000103704710B504462CB900200E498871F4
:101DD0000E49C8700FE0012C03D108200A49487150
:101DE00004E0022C02D10C20074948710120064969
:101DF00088710649C87006480470034800F0D6F997
:101E0000024800F025FD10BDC4000020CC000020D9
:101E1000D100002008B50121082000F08BFD4FF40F
:101E20008070ADF8000010208DF8030003208DF8BD
:101E300002006946044800F023FA4FF4807102481A
:101E400000F0FBFA08BD0000000C014000BFFEE7F7
:101E500010B58CB004460121084600F03BFD0E2071
:101E60008DF8000003208DF8010002208DF802009B
:101E700001208DF80300684600F0EAFC104800F0ED
:101E80004FF81048019002941020039064200490B1
:101E9000002005908020069000200790089009906F
:101EA0004FF400500A9000200B9001A9044800F064
:101EB000FCF801220221024800F0EEF80CB010BD3F
:101EC000440002400438014010B54FF4005000F0C7
:101ED000CDF8012807D10021034800F015F84FF490
:101EE000005000F003F810BD4400024000F08051A3
:101EF00011B10349086001E00249486070470000E1
:101F0000040402400000024021B1026842F00102D4
:101F1000026004E002684FF6FE731A4002607047E8
:101F200001684FF6FE7211400160002101604160BE
:101F30008160C1604B49884208D14A4908394968E3
:101F400041F00F01474A083A51608AE0454914318F
:101F5000884208D143490839496841F0F001414AB3
:101F6000083A51607DE03F492831884208D13D4917
:101F70000839496841F470613A4A083A516070E0A2
:101F800038493C31884208D136490839496841F41A
:101F90007041344A083A516063E032495031884216
:101FA00008D130490839496841F470212D4A083A6E
:101FB000516056E02B496431884208D129490839DB
:101FC000496841F47001274A083A516049E02549BF
:101FD0007831884208D123490839496841F0706155
:101FE000204A083A51603CE01F49884206D1011F4F
:101FF000096841F00F01021F116032E01A491431E3
:10200000884208D11849091F096841F0F001164AB1
:10201000121F116025E014492831884208D1124965
:10202000091F096841F470610F4A121F116018E01E
:102030000D493C31884208D10B49091F096841F418
:102040007041094A121F11600BE007495031884264
:1020500007D10549091F096841F47021024A121F7E
:102060001160704708000240080402400146002049
:10207000002201F0805313B1054B1A6801E0054BB3
:102080001A6802EA01030BB1012000E0002070474A
:1020900000040240000002401AB103680B430360D1
:1020A00002E003688B430360704710B500220268AA
:1020B00047F6F0739A430C6A8B6823430C692343F9
:1020C0004C6923438C692343CC6923434C6A2343E3
:1020D0008C6A23431A430260CB6843600B688360B9
:1020E0004B68C36010BD41607047704710B5102049
:1020F00000F048F8002836D01B48007801280CD1A1
:102100001A480078012803D100201949088000E00E
:1021100000BF0220144908701EE01348007802280E
:102120001AD11248007801280CD11148008840F4D7
:1021300000400F4908800F48006850B10D48006802
:10214000804706E009480078022802D101200749AB
:10215000087001200449087003480078FFF732FE38
:10216000102000F009F810BDD1000020D0000020A0
:10217000D4000020C0000020014908607047000022
:1021800014040140014600200022074B1B6803EAAB
:102190000102054B14331B680B4013B10AB1012037
:1021A00000E00020704700000004014000212349A6
:1021B0008279002A3AD00A46126803689A430B468D
:1021C0001A600A1D126803689A430B1D1A6002798F
:1021D00011440A6803681A430A60184A08321268F0
:1021E00003689A43154B08331A601A1D1268036876
:1021F0009A43124B0C331A604279102A0ED11A1FDF
:10220000126803681A430D4B08331A601A1D1268CE
:1022100003681A43094B0C331A600DE007494279F1
:1022200011440A6803681A430A6005E00279114400
:102230000A6803689A430A6070470000000401407E
:1022400030B500228B071C0F0F2303FA04F20B4B4F
:102250008C1053F824309343084C8D1044F82530EB
:1022600023468C1053F824308C07240F00FA04F412
:102270002343024C8D1044F8253030BD0800014046
:102280002DE9F0410246002500260020002300240D
:10229000002791F803C00CF00F0591F803C00CF073
:1022A000100CBCF1000F03D091F802C04CEA0505F8
:1022B00091F800C0BCF1000F31D0146800202BE071
:1022C0004FF0010C0CFA00F3B1F800C00CEA030661
:1022D0009E4220D183004FF00F0C0CFA03F7BC4351
:1022E00005FA03FC4CEA040491F803C0BCF1280F82
:1022F00006D14FF0010C0CFA00FCC2F814C00AE041
:1023000091F803C0BCF1480F05D14FF0010C0CFA55
:1023100000FCC2F810C0401C0828D1D31460B1F8EA
:1023200000C0BCF1FF0F34DD546800202EE000F146
:10233000080C4FF0010808FA0CF3B1F800C00CEAE1
:1023400003069E4221D183004FF00F0C0CFA03F7D5
:10235000BC4305FA03FC4CEA040491F803C0BCF149
:10236000280F05D100F1080C08FA0CF8C2F8148007
:1023700091F803C0BCF1480F07D100F1080C4FF0F1
:10238000010808FA0CF8C2F81080401C0828CED3C7
:102390005460BDE8F0810000F0B50A460023002437
:1023A0000021002500F00046B6F1004F02D11D4E7D
:1023B000F16901E01B4E7168C0F3034583B200F47C
:1023C0004016B6F5401F08D121F07061154E7668B1
:1023D00026F07066134F7E6012E000F48016B6F5AA
:1023E000801F06D1032606FA05F4A14341F070616F
:1023F00006E0460D360103FA06F6B14341F070617E
:1024000022B1460D360103FA06F6314300F00046CC
:10241000B6F1004F02D1034EF16101E0014E71604F
:10242000F0BD0000000001400246002093680B4010
:102430000BB1012000E0002070474161704701614D
:10244000704700BFFEE7000008B50121442000F0FE
:1024500071FA1820ADF8000048208DF80300694695
:102460000648FFF70DFF0120ADF8000028208DF889
:10247000030069460248FFF703FF08BD001801404A
:102480000008014008B50121482000F053FA20203F
:10249000ADF8000010208DF8030003208DF8020035
:1024A00069460948FFF7ECFE20210748FFF7C7FF00
:1024B0002020ADF8000069460448FFF7E1FE202126
:1024C0000248FFF7BCFF08BD000C014000180140A6
:1024D00038B5002401250121042000F02BFA012148
:1024E000084600F027FA01213148FFF755FFE803BD
:1024F000ADF8000010208DF8030003208DF80200D5
:1025000069462C48FFF7BCFE1020ADF800002820DB
:102510008DF8030003208DF8020069462548FFF777
:10252000AFFE04210020FFF78BFE10202249086037
:102530000020087108204871002088710846FFF7C4
:1025400035FE0A201D49087002204870032088705B
:102550000020C870084600F07BF900201849086088
:102560001849C1F8100100BF1548AC3800680028B0
:10257000FAD14FF4E13001F0A5FC012010490860C8
:10258000282000F0CBFD032407E046220EA10FA077
:1025900000F01AFE08B9002504E0201EA4F1010194
:1025A000CCB2F2D100BF04B90125284638BD0000E5
:1025B0000002300000080140C4000020CC000020D0
:1025C000BC012142000021424F4B00004154000059
:1025D00030B503460A4600211848008800F4004040
:1025E00050B316480088C0F30E00108000201488F5
:1025F000134D2855114C20801248C07950B900BFA6
:1026000004E00F48405C5854481C81B2108888424E
:10261000F7DC0FE00B48C07901280BD1002105E061
:10262000074CC81C205C5854481C81B21088C01E3E
:102630008842F5DC012030BD0020FCE7D4000020FA
:10264000CC540020B400002070B5054602200C498F
:10265000087000240B48C07980B900BF0CE000BFAF
:102660004021094800F020FC0028F9D0295D0648E7
:1026700000F0E7FC601C84B2202CF0DB70BD000091
:10268000D0000020B40000200048004030B585B0E4
:1026900000250021072001F095FC012001F076FCC7
:1026A00000BF484800680028FBD101204549AC31F3
:1026B0000860282000F032FD00204349087043489C
:1026C0000088040A414805782B46224640A1684606
:1026D000FDF750FE00BF322242A1684600F074FDB3
:1026E0000028F8D13948037982783FA16846FDF780
:1026F00041FE00BF32223BA1684600F065FD002884
:10270000F8D13248C2783CA16846FDF733FE00BFDD
:10271000322234A1684600F057FD0028F8D12B483A
:10272000827939A16846FDF725FE00BF32222DA12E
:10273000684600F049FD0028F8D12448C27936A146
:102740006846FDF717FE00BF322226A1684600F05A
:102750003BFD0028F8D11D48427932A16846FDF7BB
:1027600009FE00BF32221FA1684600F02DFD00289F
:10277000F8D11648437A027A2EA16846FDF7FAFD91
:1027800000BF322217A1684600F01EFD0028F8D1D4
:102790000C49AC310860282000F0C0FC00BF09489B
:1027A00000680028FBD127490880012006490870ED
:1027B000064A517A107A01F005FC0120FFF702FB6E
:1027C00005B030BD10012142D0000020B40000202F
:1027D00041542B414444523D253032782C2530322F
:1027E000780000004F4B000041542B574C5241548D
:1027F000453D25642C25640041542B54504F5745CA
:10280000523D25640000000041542B43574D4F4476
:10281000453D25640000000041542B544D4F444574
:102820003D25640041542B574C54494D453D25648A
:102830000000000041542B554152543D25642C2585
:1028400064000000D400002000BFFEE770470000D5
:1028500070B5002100230F22C47804B3154C2468FE
:1028600004F4E064C4F5E064210AC1F10403CA4041
:10287000447804FA03F184781440214309010E4C92
:102880000678A155047804F01F050124AC400578B2
:102890006D11AD0005F1E025C5F8004109E00478AF
:1028A00004F01F050124AC40044D0678761145F86C
:1028B000264070BD0CED00E000E400E080E100E0A7
:1028C00002490143024A1160704700000000FA0506
:1028D0000CED00E029B1064A52690243044B5A61EB
:1028E00004E0034A52698243014B5A617047000079
:1028F0000010024029B1064AD2690243044BDA6152
:1029000004E0034AD2698243014BDA617047000058
:102910000010024029B1064A12690243044B1A61B1
:1029200004E0034A12698243014B1A6170470000B8
:102930000010024029B1064A92690243044B9A6191
:1029400004E0034A92698243014B9A617047000098
:102950000010024029B1064AD2680243044BDA60F3
:1029600004E0034AD2688243014BDA6070470000FA
:102970000010024030B500210022002400232D4D1C
:102980006D6805F00C0121B1042905D0082923D177
:1029900005E0294D056022E0274D05601FE0254D2B
:1029A0006D6805F47012234D6D6805F480340225BE
:1029B00005EB92421CB9214D554305600BE01D4DBE
:1029C0006D6805F400351DB11C4D5543056002E0EE
:1029D000194D5543056002E0174D056000BF00BF6B
:1029E000144D6D6805F0F0010909154D6B5C056823
:1029F000DD4045600F4D6D6805F4E061090A104D3A
:102A00006B5C4568DD4085600A4D6D6805F460517A
:102A1000C90A0B4D6B5C4568DD40C560054D6D68AE
:102A200005F44041890B074D6B5CC568B5FBF3F5B8
:102A3000056130BD0010024000127A0000093D001F
:102A40008C0000209C00002010B500F001F810BDA3
:102A50000CB50020019000903348006840F48030AD
:102A60003149086000BF3048006800F40030009031
:102A70000198401C0190009818B90198B0F5A06F1A
:102A8000F1D12948006800F4003010B10120009015
:102A900001E0002000900098012843D123480068FD
:102AA00040F01000214908600846006820F003004B
:102AB00008600846006840F0020008601A48406854
:102AC000194948600846406848600846406840F434
:102AD000806048600846406820F47C1048600846E2
:102AE000406840F4E81048600846006840F0807094
:102AF000086000BF0C48006800F000700028F9D0A2
:102B00000948406820F003000749486008464068CB
:102B100040F00200486000BF0348406800F00C002D
:102B20000828F9D10CBD000000100240002002402E
:102B3000042808D14FF0E021096941F004014FF069
:102B4000E022116107E04FF0E021096921F0040162
:102B50004FF0E0221161704710B502F0D9F9012859
:102B600001D001F0ABFE10BD10B51348006840F075
:102B700001001149086008464068104908400E49A4
:102B80004860084600680E4908400B49086008463E
:102B9000006820F4802008600846406820F4FE00A9
:102BA00048604FF41F008860FFF74EFF4FF0006051
:102BB0000449086010BD0000001002400000FFF84A
:102BC000FFFFF6FE08ED00E010B50121094800F016
:102BD00054F868B10121074800F040F80648008821
:102BE00040F40040044908800021024800F039F810
:102BF00010BD000000140040D40000207FB5054641
:102C00000C4601212020FFF775FEADF80450ADF809
:102C100000400020ADF80600ADF8020069460E48FD
:102C200000F048F8012211460B4800F037F8012166
:102C3000094800F016F837208DF80C0000208DF8B8
:102C40000D0002208DF80E0001208DF80F0003A862
:102C5000FFF7FEFD7FBD000000140040CA43028262
:102C6000704721B1028842F00102028004E002882C
:102C70004FF6FE731A400280704730B502460020BE
:102C800000230024158A05EA0103958905EA010459
:102C900013B10CB1012000E0002030BD1AB18389CE
:102CA0000B43838102E083898B4383817047818456
:102CB00070470000002202881D4B98420ED01D4B29
:102CC00098420BD0B0F1804F08D01B4B984205D0F2
:102CD0001A4B984202D01A4B984204D14FF68F7388
:102CE0001A404B881A43174B984207D0164B98420C
:102CF00004D04FF6FF431A40CB881A4302808B88DA
:102D000083850B8803850A4B98420BD0094B984268
:102D100008D00E4B984205D00D4B984202D00D4B77
:102D2000984201D10B7A0386012383827047000009
:102D3000002C014000340140000400400008004025
:102D4000000C004000100040001400400040014012
:102D5000004401400048014010B540F22551174899
:102D600000F0AFF810B3154800F066F9C4B214488B
:102D7000008800F40040C8B911480088B0F5806FA1
:102D800015DA1048007850B900210F48FFF78FFF7F
:102D90000B48008818B901210B48FFF762FF08496A
:102DA0000888411C064A118008490C5405E0044873
:102DB000008840F400400249088010BD00480040EF
:102DC000D4000020D000002000140040CC5400208B
:102DD00001F40072B2F5007F00D100BFCA43028047
:102DE000704721B1828942F40052828104E08289D5
:102DF0004DF6FF731A40828170471AB1838A0B43E4
:102E0000838202E0838A8B438382704710B5044635
:102E10002048844209D101218803FFF79BFD00214E
:102E20004FF48040FFF796FD32E01B48844209D101
:102E300001214804FFF76EFD00214FF40030FFF739
:102E400069FD25E01548844209D101218804FFF776
:102E500061FD00214FF48020FFF75CFD18E0104871
:102E6000844209D10121C804FFF754FD00214FF429
:102E70000020FFF74FFD0BE00A48844208D10121F2
:102E80000805FFF747FD00214FF48010FFF742FDD2
:102E900010BD0000003801400044004000480040E0
:102EA000004C00400050004002460020B1F5007F79
:102EB00000D100BF13880B400BB1012000E00020BF
:102EC000704770B50246002400230025002040F61C
:102ED0006A16B14200D100BFC1F3421501F01F03D1
:102EE000012606FA03F3012D02D19689334006E04C
:102EF000022D02D1168A334001E0968A33400C122B
:102F0000012606FA04F41688344013B10CB10120EE
:102F100000E0002070BDF0B5034600240026002527
:102F2000002040F66A17B94200D100BF1846C1F32D
:102F3000421401F01F06012707FA06F5012C01D102
:102F40000C3004E0022C01D1103000E014301AB132
:102F500007682F43076002E00768AF430760F0BDD2
:102F60002DE9F04786B005460E460024A24600BF74
:102F7000A1460027B08900B100BF2F462C8A4CF62D
:102F8000FF700440F08804432C82AC894EF6F310A5
:102F90000440B08831890843718908430443AC81F7
:102FA000AC8A4FF6FF400440B0890443AC8201A8CC
:102FB000FFF7E0FC1F48874202D1DDF810A001E0D6
:102FC000DDF80CA0A88900F4004040B10AEBCA006B
:102FD00000EB0A1031684900B0FBF1F807E00AEB9A
:102FE000CA0000EB0A1031688900B0FBF1F86420D8
:102FF000B8FBF0F004012009642101FB1089A889C5
:1030000000F4004040B1322000EBC900B0FBF1F009
:1030100000F00700044308E0322000EB09106421AF
:10302000B0FBF1F000F00F0004432C8106B0BDE8C6
:10303000F08700000038014001468888C0F308008E
:103040007047C1F308028280704700BFFEE7490065
:1030500050EAC12018BF04204A0D18BF40F00100FB
:1030600040F2FF72B2EB515F08BF40F0020001284E
:1030700008BF0520704730380A2801D20120704768
:103080000020704730B502460B464FF6FF7011E046
:1030900012F8014B604000210AE000F0010424B165
:1030A0004AF2010484EA600000E040104C1CE1B2E6
:1030B0000829F2DB1C1EA3F10105EBB2E8D130BDFB
:1030C00010B50420FFF734FD104800681049B0FB2C
:1030D000F1F0104908700D4800680D49B0FBF1F49B
:1030E0004FF47A70444301200B4908804FF0E020F0
:1030F000006940F002004FF0E02108610846446199
:10310000006940F00100086110BD0000A00000202F
:1031100040420F001A0000201C00002030B5044679
:10312000002504E04FF47A7000F004F86D1CA5420D
:10313000F8D330BD70B5034600224FF0E026756924
:103140000D4E367803FB06F44FF0E026B16910E02F
:103150004FF0E026B06988420BD0884202D20E1AA6
:10316000324402E02E1A0E4432440146A24200D3F9
:1031700000E0EDE700BF70BD1A00002070B5044606
:1031800000250948008800F4004058B10020064995
:103190000988C1F30E01054A505421461046FDF737
:1031A00099FA0546284670BDD4000020CC54002072
:1031B00008B50020009069460248006801F0E8FC6C
:1031C00008BD0000140000202DE9F04104460E4621
:1031D00015460027002018490880FF2C0AD800BF98
:1031E0001648008800F040000028F9D01349091D56
:1031F0000C8003E0214612A000F0ECFDC6B1BDB189
:103200000FE00A20FFF78AFF0B48008800F4004017
:1032100038B13046FFF7B2FF00B106E000200649A2
:103220000880681E80B2051EEBD100BF05B90127DA
:103230003846BDE8F0810000D4000020004800407E
:1032400025730D0A00000000014908607047000066
:10325000C000002010B5FFF719FA03220021012059
:1032600001F046FB024908600248FFF7EDFF10BD80
:1032700014000020B13100081CB54FF44070FFF776
:103280001FFBFFF71DFF4FF4E13000F0CBFDFFF710
:10329000DBF8FFF7F7F8FEF7BDFD002013490860E3
:1032A0001349C1F8940100BFFFF712F90028FBD1C0
:1032B00001200E49086000200D49C1F89401FFF774
:1032C000C9FF0120094908600949C1F8940109486A
:1032D000022100236422CDE9001007A1094801F072
:1032E000E7FD01F03BFA00BFFEE7000094812142B8
:1032F000000023420000002053544152545F5441C7
:10330000534B00005D3D00082DE9F04105460E4697
:103310001C4807681C480068001D00F00BFF50B9EE
:103320001948006890F82C10012088401749096856
:10333000814316480160681C38B936B112480168EB
:10334000091D134800F0D8FF1AE07C190E480068E8
:103350004460BC4207D20C480168091D0D48006852
:1033600000F0B0FF0CE008480168091D0A48006839
:1033700000F0A8FF09480068844201D207480460B1
:10338000BDE8F0813400002020000020380000203B
:1033900068040020280000202400002050000020A5
:1033A00010B5044600F0FCFF24480068401C234987
:1033B00008602348006840B9214804600846006856
:1033C00001280DD100F0CCF90AE01E48006838B998
:1033D0001B480068C06AE16A884201D81848046046
:1033E00019480068401C1849086008460068606475
:1033F00094F82C10012088401449096808431349A7
:103400000860E16A01EB8101114A02EB8100211D94
:1034100000F072FF00F0D6FF0A48006868B1084863
:103420000068C06AE16A884207D24FF080500949BB
:103430000860BFF34F8FBFF36F8F10BD30000020C7
:10344000200000203C0000204C000020380000201C
:10345000C001002004ED00E010B500F0A1FF10480D
:103460000068D0B90F4800F01DFF0F4800F01AFFA8
:103470000C480E4908600C480D49086000221021D4
:10348000052001F035FA064908600846006820B1B9
:1034900008A10348006800F0DDFF00F093FF10BDB5
:1034A00080000020A4540020B854002078000020A0
:1034B0007C000020546D72510000000010B516E031
:1034C00000F06EFF0C48C068C468201D00F032FE9A
:1034D0000A480068401E0949086009480068401E03
:1034E0000749086000F06EFF204600F05FF80448CE
:1034F00000680028E4D110BD5404002030000020F2
:103500002C00002070B504460D46206C70B1216C73
:10351000E0680144E160D4E90210884201D32168E7
:10352000E1602846226CE168FDF705F970BD2DE9E0
:10353000F04104460F4615464FF00008A66B206C7C
:1035400048B9206800282CD1A06801F085FD80468C
:103550000020A06025E07DB93946226C6068FDF747
:10356000EAF8216C606808446060D4E9010188428F
:1035700017D32068606014E03946226CE068FDF7DC
:10358000DAF8216CE068411AE1602168E06888425D
:1035900003D2216CA068411AE160022D01D106B16D
:1035A000761E701CA0634046BDE8F08110B504464D
:1035B000206B00F017FF204600F014FF10BD0146FD
:1035C0004A6A22B10A6B1268C2F1200000E00020B2
:1035D000704700000146084A126812680AB90122C1
:1035E00000E000220A600A6822B9034A1268D26821
:1035F000106800E0002070477800002030B54FF4DC
:10360000A043174800F007042CB1C01D20F00700AC
:10361000134C041B1B1B0246124C22600024114D4C
:103620006C60D018083820F007000F4C2060002490
:103630000D4D2D686C600C4D2D682C601146441AA0
:103640004C60094C24680C60084D4C682C60084D97
:103650004C682C604FF00044064D2C6030BD0000DB
:10366000A4040020600000206800002070000020FA
:103670006C0000207400002000BFFFF71FFF064809
:1036800000680128F9D94FF0805004490860BFF361
:103690004F8FBFF36F8FF0E7C001002004ED00E013
:1036A0002DE9F04106460D4617469846069C0DB991
:1036B000246000E02760E66325640121204601F0D4
:1036C00035F984F850800020A064BDE8F0812DE930
:1036D000F05F81460F4690469A460A9E0C9C4FEA40
:1036E0008801A522206BFDF76BF8A8F10100216B82
:1036F00001EB800B2BF0070B002507E0795D04F14F
:1037000034004155785D00B902E06D1C102DF5D3F1
:1037100000BF002143200155202E00D31F26E66262
:10372000E66400202065201D00F0C9FD04F11800AA
:1037300000F0C5FD2461C6F12000A0616462002094
:10374000606584F8580052464946584600F0F4FA3D
:1037500020600B9808B10B980460BDE8F09F000052
:1037600010B5002407E004EB84010F4A02EB81004E
:1037700000F098FD641C202CF5D30C4800F092FD5D
:103780000B4800F08FFD0B4800F08CFD0A4800F05C
:1037900089FD0A4800F086FD04480949086004488C
:1037A0000849086010BD0000C00100207C04002012
:1037B00090040020400400205404002068040020ED
:1037C000240000202800002010B50146164800E023
:1037D000006803688B42FBD30246436813448B4264
:1037E00004D143684C682344436001460A464B6851
:1037F00013440468A34211D10C4C03682468A3420B
:1038000008D04B680468646823444B6003681B68F5
:103810000B6005E0054B1B680B6001E003680B6063
:10382000884200D0016010BD6000002068000020C8
:103830002DE9F04104460D4616461F464FF000089C
:1038400065602461B5420CD8F01BA169884202D39F
:103850004FF0010811E0211D0948006800F032FD19
:103860000BE0BE4204D2BD4202D34FF0010804E097
:10387000211D0448006800F025FD4046BDE8F081A8
:103880007C0000207800002070B5054600F088FD1F
:10389000A86B08B9012400E0002400F093FD204645
:1038A00070BD70B5054600F07BFDA86BE96B8842E2
:1038B00001D1012400E0002400F084FD204670BD09
:1038C0002DE9F3410D460098846C0027A06BE16B55
:1038D00088421BD294F945602A4669462046FFF784
:1038E00026FE0746701C60B9606A08B9012000E036
:1038F000002050B904F1240001F054FC28B1012744
:1039000003E0701C40B284F8450000BF3846BDE8B3
:10391000FC810000F8B505460E4610480068C068F6
:10392000C468201D00F006FCE069012811D1A069DF
:1039300041192B4632462046FFF77AFF48B1002056
:1039400003462A4601460090204601F0FFFC074648
:1039500000BF2046616A8847F8BD0000780000205B
:10396000F0B587B056E00398002805DA04AED6E932
:103970000020B168904700BF039800284ADB059CEF
:10398000606908B9012000E0002010B9201D00F096
:10399000D1FB02A800F09EF8054603980A2837D20A
:1039A000DFE800F00905072527320608262800BFB2
:1039B00000BF00BF00BF0498A269811803462A46D1
:1039C0002046FFF735FF88B12046616A8847E069E5
:1039D00001280BD1002000900498A169421800230F
:1039E0001946204601F0B2FC074600BF11E000BFB7
:1039F0000FE000BF0498A061A06941192B462A4638
:103A00002046FFF715FF04E0204600F0EBFC00E045
:103A100000BF00BF002203A90348006801F000F9BD
:103A20000028A0D107B0F0BD80000020F8B5054601
:103A30000C4600F0CBFE684600F04CF806460098B5
:103A400020BB44B9B54206D801F0ECFB314628460C
:103A5000FFF760FF1CE03CB10E480068006808B941
:103A6000012000E000200446A91B22460A48006805
:103A700000F006FD01F0D6FB50B94FF08050074929
:103A80000860BFF34F8FBFF36F8F01E001F0CAFBF7
:103A9000F8BD00007C0000208000002004ED00E064
:103AA0000A490968096809B9012100E0002121B12A
:103AB0004FF0FF31064A116006E004490968C96801
:103AC000C868034A41681160704700002400002064
:103AD0005000002070B5044601F02AFA0546074858
:103AE0000068854204D200F00BF80120206001E05C
:103AF0000020206001480560284670BD8800002035
:103B00002DE9F84326E01D480068C06805681B4899
:103B10000068C068C468201D00F00CFB2046616A84
:103B20008847E069012815D1A0694619AE4207D936
:103B300066602461211D1148006800F0C3FB09E0A4
:103B4000002003462A4601460090204601F0FEFB75
:103B5000804600BF09480068006808B9012000E0FD
:103B600000200028CFD005480768054800680349B1
:103B7000086003480760BDE8F88300007800002073
:103B80007C00002000BF502080F31188BFF34F8FCE
:103B9000BFF36F8F00BF00BFFEE708B500BF6846E8
:103BA000FFF718FD044620460099FFF73FFFFFF797
:103BB000D7FEF4E770B5044600F0F2FB94F94550E7
:103BC0001AE0A06C38B100212046FFF779FE88B1D9
:103BD00000F042FD0EE0606A08B9012000E000201C
:103BE00038B904F1240001F0DDFA18B100F034FD19
:103BF00000E003E0681E45B2002DE2DC00BFFF20BC
:103C000084F8450000F0DEFB00F0CAFB94F9445054
:103C100010E0206908B9012000E0002048B904F153
:103C2000100001F0BFFA08B100F016FD681E45B2A1
:103C300000E001E0002DECDC00BFFF2084F8440030
:103C400000F0C0FB70BD00002DE9F04105464FF0CB
:103C5000000800F0BBFD2B48006808B9FFF7CEFC58
:103C6000294800682840002847D145B1083505F0AB
:103C7000070020B105F00700C0F108000544002D41
:103C80003BD022480068854237D8214E3046046830
:103C900001E0264624686068A84202D22068002815
:103CA000F7D118480068844227D0306800F108082E
:103CB000206830606068401B102807D96719606869
:103CC000401B786065603846FFF77EFD0F496068ED
:103CD0000968081A0D490860084600680D49096816
:103CE000884203D2094800680A49086006496068AA
:103CF0000968084360600020206001F093FA4046A4
:103D0000BDE8F08168000020740000206C000020F5
:103D100060000020700000200648006830B10549AE
:103D2000096801F15000096D491C016001480068F3
:103D30007047000020000020001F4FF080730360D8
:103D4000001F21F001030360001F034B03601438C0
:103D50000260203870470000853B00081CB504460F
:103D600000F01EFB0020042103466422CDE9001070
:103D70000FA1114801F09CF80020032103466422A2
:103D8000CDE900100DA10F4801F092F800200221AA
:103D900003466422CDE900100BA10C4801F088F81D
:103DA0000B48006800F0E6FB00F00CFB1CBD0000B7
:103DB00055534152540000003D4800084C6F726159
:103DC00000000000114300084B6579005D410008C8
:103DD000000000200FB438B505A800900F48009AE5
:103DE0000499FCF7B5FA002000900C48FCF784FC1D
:103DF00085B200240DE000BF40210948FFF754F8C8
:103E00000028F9D00548015D0548FFF71AF9601C44
:103E100084B2AC42EFDB38BC5DF814FBCC58002018
:103E20000048004010B586B00446012144F2040069
:103E3000FEF780FD4FF40070ADF8140003208DF8FC
:103E4000160018208DF8170005A91C48FEF718FA6F
:103E50004FF48060ADF8140004208DF8170005A918
:103E60001648FEF70DFA25208DF8000003208DF886
:103E700001008DF8020001208DF803006846FEF76E
:103E8000E7FC01940020ADF80800ADF80A00ADF899
:103E90000C00ADF810000820ADF80E0001A908488C
:103EA000FFF75EF8012280210548FEF7A6FF0121F9
:103EB0000348FEF796FF06B010BD00000008014061
:103EC000003801401CB5044601210820FEF732FDF0
:103ED00001218804FEF70EFD2748FEF797FF4FF4F7
:103EE0008060ADF8000003208DF8020018208DF8E6
:103EF000030069462148FEF7C3F94FF40060ADF8AE
:103F0000000004208DF8030069461C48FEF7B8F94C
:103F10001B48046000201A498880C8800881888175
:103F20000C2048811448FFF71BF801211248FEF7C6
:103F300058FF012240F225510F48FEF7ECFF2720E1
:103F40008DF8040003208DF805008DF8060001208F
:103F50008DF8070001A8FEF77BFC41F61F4140F2F7
:103F6000F310FEF74BFE00200649088000210648AA
:103F7000FEF777FE1CBD000000480040000C014029
:103F8000245B0020D40000200014004010B504463B
:103F900000210A48FEF725FF1CB10C200849488182
:103FA00002E008200649488105490448FEF7D8FF89
:103FB00001210248FEF715FF10BD00000048004037
:103FC000245B002070B505460C46082D2DD2DFE895
:103FD00005F004090E13181D22274FF49660274997
:103FE000086022E04FF41660244908601DE04FF499
:103FF00096502249086018E04FF416501F49086097
:1040000013E04FF496401D4908600EE04FF416404F
:104010001A49086009E04FF461401849086004E05B
:104020004FF4E1301549086000BF00BF002114487B
:10403000FEF7D7FE11480068124908600020C880CA
:1040400014B9888008810FE0012C05D120030D49A7
:1040500088808010088107E0022C05D1E002094920
:1040600088804FF4C060088106490548FEF778FF54
:1040700001210348FEF7B5FE70BD0000D800002006
:1040800000480040245B00202DE9F04180460E46A8
:10409000002522202249087033204870442088706F
:1040A0005520C870301208714E71B8F1000F02D15E
:1040B000AA20887102E0BB20194988711948048838
:1040C0001749CC71002507E01748415D05F108004C
:1040D000134A1154681CC5B2A542F5DB002104F156
:1040E00008000F4A1154401CC1B21046FEF7CAFF27
:1040F0000746391204F10900094A1154401C1754AB
:1041000040210A48FEF764FE04F1090081B2084824
:10411000FDF7E9FF01210648FDF7F6FEBDE8F08155
:10412000DC000020100000201C01002000380140AD
:104130004400024001460A69D1E901309860D1E9A2
:10414000010358605068884201D18868506000209F
:1041500008611068401E10601068704792E01420DB
:1041600000F0B4F94848007858B910214748FEF7E4
:104170005BF930B901204449087000F0D9FE444988
:1041800008604448007858B908214048FEF74CF9C7
:1041900030B901203F49087000F0CAFE3C49086070
:1041A0003D48007858B901213C48FEF73DF9012807
:1041B00005D13949087000F0BBFE35490860324826
:1041C000007801281CD110213048FEF72DF9012874
:1041D00002D100202C49087000F0AAFE2C49096881
:1041E000401AB0F5FA7F03D902202D49087007E084
:1041F00010212648FEF718F9012801D12849087036
:104200002448007801281DD108212048FEF70CF928
:10421000012802D100201F49087000F089FE1C49C6
:104220000968401AB0F5FA7F03D904201C490870C8
:1042300008E008211548FEF7F7F8012802D103200D
:10424000174908701448007801281BD10121134830
:10425000FEF7EAF810B900200F49087000F068FE78
:104260000B490968401AB0F5FA7F03D906200C49BA
:10427000087007E001210948FEF7D6F810B90520BB
:10428000074908706BE70000040000200018014097
:104290000800002005000020060000200008014062
:1042A0000700002000F1080141604FF0FF318160FC
:1042B00000F10801C1600161002101607047002127
:1042C0000161704710B502460B685C1C0CB910699F
:1042D00007E002F1080000E04068446824689C425E
:1042E000FAD944684C604C68A160886041600A61FA
:1042F0001468641C146010BD42684A6093688B6047
:10430000936859609160086103685B1C03607047A3
:1043100001201B49087000BF1A4800680028FBD123
:104320001948FEF791F929E04FF4FA61174800683F
:1043300000F0F8FC01280DD115491348FEF748F9A3
:1043400001281BD100201349087013490860134944
:10435000087013E011480078401C104908700020D4
:104360000B4908800D480078022807D100200B492E
:10437000087001200749087007490860D4E7000069
:10438000D0000020100121421C0100201400002058
:10439000100000201200002094812142180000200B
:1043A00000BF502080F31188BFF34F8FBFF36F8F92
:1043B00000BF03480068401C0149086070470000C6
:1043C0005C00002006480068401E05490860084659
:1043D000006820B9002080F3118800BF00BF70473B
:1043E0005C00002070B506463546D6B1083D2C4627
:1043F0000C4960680968084098B1206888B9094983
:10440000606809688843606000F0E0F90649606808
:1044100009680844044908602046FFF7D5F900F010
:1044200001FF70BD740000206C00002000204FF0E0
:10443000E02108618861064800684FF47A71B0FB9A
:10444000F1F0401E4FF0E0214861072008617047FD
:10445000A0000020024600200BE0084B53F830304B
:1044600033B9064B43F8301003EBC0035A6002E047
:10447000401C0828F1D300BF7047000080010020D5
:104480002DE9F04105460E4617462C46FFF788FFFA
:1044900094F94400401C10B9002084F8440094F9B9
:1044A0004500401C10B9002084F84500FFF78AFF42
:1044B000A06B28B93A46314604F1240000F0E2F836
:1044C0002046FFF777FBBDE8F081000070B5044699
:1044D000002544B100F07AF900212046FEF714FFD0
:1044E00000F0A0FE05463DB94FF08050034908603A
:1044F000BFF34F8FBFF36F8F70BD000004ED00E07E
:104500002DE9F047044688464FF0000900F05EF9B7
:1045100016480668206800EB08052068B04207D9F5
:104520002068A8420BD9B54209D94FF0010906E02D
:104530002068A84201D8B54201D94FF00109256091
:10454000B9F1000F03D0A81B0021FEF7DDFE00F03B
:1045500069FE07463FB94FF0805005490860BFF338
:104560004F8FBFF36F8FBDE8F0870000340000204D
:1045700004ED00E070B50546FFF712FF15B92748B6
:10458000006800E028460446201DFFF7D3FD78B9F7
:10459000E06A00EB8000224951F8200040B994F80D
:1045A0002C10012088401F49096881431D48016083
:1045B000A06A18B104F11800FFF7BCFD1A480068A2
:1045C000401C1949086015480068844209D1211D22
:1045D0001648FFF791FE16480068401C1449086011
:1045E00009E014480068401E124908602046FEF7A2
:1045F000DDFFFFF755FAFFF7E5FE0F48006858B1F9
:1046000006480068844207D14FF080500B4908608B
:10461000BFF34F8FBFF36F8F70BD000020000020ED
:10462000C0010020380000204C000020540400206D
:104630002C000020300000203C00002004ED00E0B1
:104640000349096801600349096841607047000037
:104650004800002034000020012001490860704714
:104660004400002070B505460C4605480168183125
:104670002846FFF727FE01212046FEF745FE70BDC4
:104680002000002070B506460D4614460648016815
:1046900018313046FFF730FE0CB14FF0FF352146A0
:1046A0002846FEF731FE70BD200000202DE9F047BE
:1046B00006460F4634464FF00109002E47D0E06C05
:1046C000B84201D23D4600E0E56CE06AA8423ED027
:1046D000206D01283BD1D4F82C80E562A06900F060
:1046E000004010B9C5F12000A06108EB8801194A0B
:1046F00002EB81016069884201D1012000E00020C5
:1047000028B3201DFFF716FD78B9E06A00EB8000A2
:10471000104951F8200040B994F82C10012088402D
:104720000D49096881430C48016094F82C10012060
:10473000884009490968084307490860E16A01EBB4
:104740008101044A02EB8100211DFFF7D5FDBDE880
:10475000F0870000C0010020380000201CB514487C
:1047600000210B468222CDE9001012A1134800F06F
:104770009FFB0446012C02D100F0C8FD0446012C29
:1047800014D100BF502080F31188BFF34F8FBFF3C7
:104790006F8F00BF4FF0FF300949086001200949C1
:1047A000086000200849086000F06EF81CBD000099
:1047B0005400002049444C450000000079360008B0
:1047C000500000203C000020340000200248006817
:1047D000401C0149086070475800002012480068DA
:1047E00018B10120114908601DE000200F49086040
:1047F0000F480068B0FA80F0C0F11F0101EB8102A0
:104800000C4B03EB820042685268426000F10802E0
:104810004368934202D14268526842604268D2685B
:10482000054B1A6000BF704758000020440000206C
:1048300038000020C00100202000002008B500F052
:1048400077FB00900D48FDF703FB15E064216846F7
:10485000FFF756FE0A48006808B9012000E0002072
:1048600007490860074801880020FFF70DFC05484C
:104870000088401C03490880E8E70000DC000020B5
:10488000940123420C00002010B50A48006840F44F
:104890007000084908600846006840F070400860F1
:1048A000FFF7C4FD002004490860FBF7F7FC002077
:1048B00010BD000020ED00E05C00002010B500BF3E
:1048C000502080F31188BFF34F8FBFF36F8F00BF6D
:1048D00000F034FB18B14FF080500449086000BF6D
:1048E000002080F3118800BF10BD000004ED00E03F
:1048F0002DE9F84307460D4690460DB9002601E024
:1049000007FB05F606F15400FFF79EF904464CB18B
:10491000A14609F1540943464A46294638460094BF
:10492000FEF7BEFE2046BDE8F883000070B50546E0
:104930000E462C46FFF734FDD4E90F12206801FB28
:104940000200A0600020A06320686060E06B401E51
:10495000226C216800FB0211E160FF2084F8440012
:1049600084F845009EB9206908B9012000E00020C4
:10497000A8B904F1100000F015FC80B14FF0805090
:1049800009490860BFF34F8FBFF36F8F07E004F151
:104990001000FFF787FC04F12400FFF783FCFFF70A
:1049A00011FD012070BD000004ED00E02DE9FF477E
:1049B00082B0074688461D464FF000093C4600BFBE
:1049C000FFF7EEFCA06BE16B884201D3022D3FD1D3
:1049D000D4F838A02A4641462046FEF7A8FD0646F0
:1049E000A06C90B1022D02D1BAF1000F2AD1294654
:1049F0002046FEF765FF28B34FF080503C49086021
:104A0000BFF34F8FBFF36F8F1CE0606A08B90120BE
:104A100000E0002068B904F1240000F0C3FB88B175
:104A20004FF0805032490860BFF34F8FBFF36F8F54
:104A300008E03EB14FF080502D490860BFF34F8F22
:104A4000BFF36F8FFFF7BEFC012006B0BDE8F08713
:104A5000049818B9FFF7B6FC0020F6E7B9F1000F8B
:104A600004D16846FFF7ECFD4FF00109FFF7AAFCFF
:104A7000FFF7ACFEFFF794FC94F94400401C10B91A
:104A8000002084F8440094F94500401C10B900202F
:104A900084F84500FFF796FC04A9684600F0DAF9AF
:104AA000F8B92046FEF7FDFEA8B104F11000049904
:104AB000FFF7D8FD2046FFF77DF800F0B3FB002894
:104AC0007FF47EAF4FF0805009490860BFF34F8FED
:104AD000BFF36F8F74E72046FFF76CF800F0A2FB7E
:104AE0006EE72046FFF766F800F09CFB0020ACE77D
:104AF00004ED00E02DE9F05F06468A4615461F46A4
:104B0000344600BF5021EFF3118081F31188BFF3C9
:104B10004F8FBFF36F8F00BF8146A06BE16B884260
:104B200001D3022F2BD194F945B03A465146204685
:104B3000FEF7FDFC0BF10100C8B9A06C40B139468D
:104B40002046FEF7BDFEB8B1B5B10120286013E0E4
:104B5000606A08B9012000E0002068B904F124006F
:104B600000F020FB40B13DB10120286004E00BF1D2
:104B7000010040B284F845004FF0010801E04FF019
:104B8000000800BF89F3118800BF4046BDE8F09FD0
:104B90002DE9F04706460D46344600BF5021EFF39D
:104BA000118081F31188BFF34F8FBFF36F8F00BF68
:104BB0008046D4F83890E06B484528D994F945A050
:104BC00009F10100A0630AF10100C8B9A06C40B16D
:104BD00000212046FEF774FEB8B1B5B1012028606F
:104BE00013E0606A08B9012000E0002068B904F110
:104BF000240000F0D7FA40B13DB10120286004E064
:104C00000AF1010040B284F84500012700E00027C6
:104C100000BF88F3118800BF3846BDE8F087000068
:104C20002DE9F74183B005460F464FF000082C46AA
:104C300000BFFFF7B5FBA66BF6B139462046FEF77D
:104C400061FC701EA063206908B9012000E000200B
:104C500060B904F1100000F0A5FA38B14FF08050AF
:104C60002F490860BFF34F8FBFF36F8FFFF7AAFB89
:104C7000012006B0BDE8F081059818B9FFF7A2FB46
:104C80000020F6E7B8F1000F04D101A8FFF7D8FC27
:104C90004FF00108FFF796FBFFF798FDFFF780FB49
:104CA00094F94400401C10B9002084F8440094F9A1
:104CB0004500401C10B9002084F84500FFF782FB36
:104CC00005A901A800F0C6F8F0B92046FEF7DCFD02
:104CD000A0B104F124000599FFF7C4FC2046FEF7BB
:104CE00069FF00F09FFA0028A3D14FF080500C49D3
:104CF0000860BFF34F8FBFF36F8F9AE72046FEF730
:104D000059FF00F08FFA94E72046FEF753FF00F0BA
:104D100089FA2046FEF7B8FD00288AD00020A8E7CF
:104D200004ED00E02DE9F34182B0054600272C4652
:104D3000B84600BFFFF734FBA66BFEB1701EA06340
:104D4000206810B9FEF7E8FFA060206908B90120CB
:104D500000E0002060B904F1100000F023FA38B13F
:104D60004FF080503A490860BFF34F8FBFF36F8F09
:104D7000FFF728FB012004B0BDE8F081039818B9C3
:104D8000FFF720FB0020F6E71FB96846FFF758FC45
:104D90000127FFF717FBFFF719FDFFF701FB94F958
:104DA0004400401C10B9002084F8440094F94500E8
:104DB000401C10B9002084F84500FFF703FB03A94D
:104DC000684600F047F840BB2046FEF75DFDF0B1B5
:104DD000206838B9FFF7E4FAA06800F07FF9804650
:104DE000FFF7F0FA04F124000399FFF73BFC20469B
:104DF000FEF7E0FE00F016FA00289BD14FF080503D
:104E000013490860BFF34F8FBFF36F8F92E72046BF
:104E1000FEF7D0FE00F006FA8CE72046FEF7CAFE49
:104E200000F000FA2046FEF72FFD002882D0B8F1EE
:104E3000000F0BD0FFF7B4FA2046FEF7C0FB064682
:104E40003146A068FFF732FCFFF7BCFA002092E77A
:104E500004ED00E070B506460C46FFF7A1FA1248D3
:104E600002687068131A2068401C08B9002517E012
:104E70000E4930680968884204D07068904201D8B1
:104E800001250DE02068984207D92068C01A2060EB
:104E90003046FFF7D5FB002502E000202060012509
:104EA000FFF790FA284670BD34000020480000202B
:104EB0002DE9FF4F85B0804689461746DDE912ABE4
:104EC000B800FEF7C1FE064656B15C20FEF7BCFEF8
:104ED00004460CB1266304E03046FFF783FA00E095
:104EE00000247CB10020CDE900ABCDE902403A4678
:104EF00049464046089BFEF7EAFB2046FEF750FA7B
:104F0000012501E04FF0FF35284609B0BDE8F08FDC
:104F10000549096809B9012005E00449096809B98A
:104F2000022000E0002070473C00002058000020D4
:104F30000149086870470000340000202DE9F04165
:104F400000273A480068002863D139480068451CAA
:104F5000374805608DB93748D0F80080364800687A
:104F6000344908603448C0F8008034480068401C68
:104F700032490860FEF794FD00BF31480068854261
:104F80003BD300BF2B480068006808B9012000E04F
:104F9000002020B14FF0FF30294908602CE025485F
:104FA0000068C068C4686668B54202D224480660DA
:104FB00022E0201DFFF7BEF8A06A18B104F1180026
:104FC000FFF7B8F894F82C10012088401D490968B3
:104FD00008431C490860E16A01EB81011A4A02EBAF
:104FE0008100211DFFF788F91849E06A0968C96A3C
:104FF0008842C7D30127C5E700BF14480068C06ACC
:1050000000EB8000104951F82000012800D9012749
:1050100004E00F480068401C0D4908600D48006816
:1050200000B101273846BDE8F0810000580000209B
:105030003400002024000020280000204800002028
:105040005000002038000020C00100202000002077
:10505000400000204400002070B505462C46002684
:10506000ADB3206D401E2065E16CE06A88422ED011
:10507000206D60BB201DFFF75DF878B9E06A00EB9A
:105080008000144951F8200040B994F82C100120F8
:1050900088401149096881430F480160E06CE06273
:1050A000E06AC0F12000A06194F82C100120884033
:1050B00009490968084308490860E16A01EB810170
:1050C000044A02EB8100211DFFF716F90126304644
:1050D00070BD0000C00100203800002070B50546FA
:1050E0002C460026002D54D02B49E06A0968C96A75
:1050F000884247D2A06900F0004028B926480068DD
:10510000C06AC0F12000A061E16A01EB8101234A7D
:1051100002EB81016069884201D1012000E000209A
:1051200050B3201DFFF706F878B9E06A00EB800065
:105130001A4951F8200040B994F82C1001208840F9
:105140001749096881431648016013480068C06A1E
:10515000E06294F82C100120884011490968084346
:105160000F490860E16A01EB81010C4A02EB810002
:10517000211DFFF7C1F803E007480068C06AE0623C
:10518000012606E00449E06C0968C96A884200D239
:105190000126304670BD000020000020C001002024
:1051A0003800002070B50646F068C46804F11800A5
:1051B000FEF7C0FF15480068A8B9201DFEF7BAFF2A
:1051C00094F82C10012088401149096808431049BF
:1051D0000860E16A01EB81010E4A02EB8100211DAA
:1051E000FFF78AF804E004F118010B48FFF784F890
:1051F0000A49E06A0968C96A884204D90125012080
:105200000749086000E00025284670BD58000020CE
:1052100038000020C00100204004002020000020B1
:105220004400002070B500240026FFF7B9F82E488E
:105230000068401E2C4908600846006800284FD1CD
:105240002A48006800284BD024E02948C068C46878
:1052500004F11800FEF76EFF201DFEF76BFF94F8B7
:105260002C1001208840234909680843214908601F
:10527000E16A01EB8101204A02EB8100211DFFF769
:105280003BF81E49E06A0968C96A884202D30120D6
:105290001B4908601648006808B9012000E000209A
:1052A0000028D2D00CB1FEF7FBFB1648056865B1AB
:1052B00000BFFFF743FE10B10120114908606D1EC9
:1052C000002DF6D100200F4908600D48006838B164
:1052D000012630070C490860BFF34F8FBFF36F8F73
:1052E000FFF770F8304670BD5800002030000020F5
:1052F0004004002038000020C001002020000020D1
:10530000440000204000002004ED00E01CB5002413
:10531000FEF7A2F80848006858B108481F2100238A
:105320004FF48272CDE9001005A10748FFF7C0FDD8
:10533000044620461CBD00008000002084000020A0
:10534000546D7220537663009B3B00082DE9FF47A4
:1053500005460C4616461F46DDF830804FF0000922
:105360001448006810B3009401960295062C15DAD3
:10537000FFF7CEFD022808D10023424669460D48BA
:105380000068FFF713FB814610E000231A466946C8
:1053900008480068FFF70AFB814607E000233A4609
:1053A000694604480068FFF7A5FB8146484604B0FB
:1053B000BDE8F0878000002010B500290AD00878E9
:1053C000002807D005487844FCF7FAF8002801D0F7
:1053D000002010BD0248784410BD0000720100009A
:1053E0006A01000010B500290AD00878002807D00B
:1053F00005487844FCF7E4F8002801D0002010BDEF
:105400000248784410BD0000620100005A0100000B
:10541000FBF7D8BCFBF70CBE3031323334353637AE
:1054200038394142434445464030580030313233E8
:1054300034353637383961626364656640307800E8
:10544000040000080000000000000002000100004D
:105450001000000000000000000000003031323376
:105460003435363738396162636465667870003088
:105470003132333435363738394142434445465862
:105480005000000002400000000000A000000000EA
:1054900005400000000000C8000000000C400000B3
:1054A0000000409C00000000194000000020BCBE2D
:1054B0000000000034400000BFC91B8E0000000443
:1054C000B5400000504BCFD06607E2CF010000008E
:1054D0006C4100003E8251AADFEEA73401000000BB
:1054E000D9420000DCB5A0E23A301F97FFFFFFFF72
:1054F000B4450000FD25A0C8E9A3C14FFFFFFFFF91
:10550000FF3F00000000008000000000FF3F00009F
:105510000000008000000000645600080000002029
:10552000DC0000006C01000840570008DC0000208F
:10553000BC600000880100081C000000430000005F
:10554000F8FFFFFF0C0000000E0000000F0000003D
:105550002E0000001001000043000000F8FFFFFFD4
:105560000040404040404040404041414141414076
:10557000404040404040404040404040404040402B
:1055800040050202020202020202020202020202BA
:1055900002202020202020202020200202020202BF
:1055A0000202909090909090101010101010101017
:1055B0001010101010101010101010100202020223
:1055C0000202888888888888080808080808080867
:1055D0000808080808080808080808080202020263
:1055E000400000000000000000000000000000007B
:1055F00000000000000000000000000000000000AB
:10560000000000000000000000000000000000009A
:10561000000000000000000000000000000000008A
:10562000000000000000000000000000000000007A
:10563000000000000000000000000000000000006A
:10564000000000000000000000000000000000005A
:10565000000000000000000000000000000000004A
:10566000000000000000000000000000000000003A
:10567000000000000000000000000000000000002A
:10568000000000000000000000000000000000001A
:10569000000000000000000000000000000000000A
:1056A00000000000000000000000000000000000FA
:1056B00000000000000000000000000000000000EA
:1056C000AAAAAAAA00000000000000000000000032
:1056D00000000000000000000000000000000000CA
:1056E00000000000000000000000000000000000BA
:1056F0000000000001020304010203040607080978
:105700000204060800A24A04000000000000000095
:105710000102030406070809000017030500000042
:105720000700000000000000000000000000000072
:105730000000000000000000000000000000000069
:0400000508000131BD
:00000001FF
